{
	"contracts/EHKDscrow.sol": {
		"EHKDEscrow": {
			"abi": [
				{
					"inputs": [
						{
							"internalType": "address",
							"name": "_eHKDAddress",
							"type": "address"
						},
						{
							"internalType": "address",
							"name": "_seller",
							"type": "address"
						}
					],
					"stateMutability": "nonpayable",
					"type": "constructor"
				},
				{
					"inputs": [
						{
							"internalType": "address",
							"name": "token",
							"type": "address"
						}
					],
					"name": "SafeERC20FailedOperation",
					"type": "error"
				},
				{
					"anonymous": false,
					"inputs": [
						{
							"indexed": true,
							"internalType": "address",
							"name": "buyer",
							"type": "address"
						},
						{
							"indexed": false,
							"internalType": "uint256",
							"name": "amount",
							"type": "uint256"
						}
					],
					"name": "DepositMade",
					"type": "event"
				},
				{
					"anonymous": false,
					"inputs": [
						{
							"indexed": true,
							"internalType": "address",
							"name": "seller",
							"type": "address"
						}
					],
					"name": "FulfillmentConfirmed",
					"type": "event"
				},
				{
					"anonymous": false,
					"inputs": [
						{
							"indexed": true,
							"internalType": "address",
							"name": "seller",
							"type": "address"
						},
						{
							"indexed": false,
							"internalType": "uint256",
							"name": "amount",
							"type": "uint256"
						}
					],
					"name": "FundsReleased",
					"type": "event"
				},
				{
					"anonymous": false,
					"inputs": [
						{
							"indexed": true,
							"internalType": "address",
							"name": "buyer",
							"type": "address"
						},
						{
							"indexed": false,
							"internalType": "uint256",
							"name": "amount",
							"type": "uint256"
						}
					],
					"name": "RefundIssued",
					"type": "event"
				},
				{
					"inputs": [],
					"name": "amount",
					"outputs": [
						{
							"internalType": "uint256",
							"name": "",
							"type": "uint256"
						}
					],
					"stateMutability": "view",
					"type": "function"
				},
				{
					"inputs": [],
					"name": "buyer",
					"outputs": [
						{
							"internalType": "address",
							"name": "",
							"type": "address"
						}
					],
					"stateMutability": "view",
					"type": "function"
				},
				{
					"inputs": [],
					"name": "confirmFulfillment",
					"outputs": [],
					"stateMutability": "nonpayable",
					"type": "function"
				},
				{
					"inputs": [
						{
							"internalType": "uint256",
							"name": "_amount",
							"type": "uint256"
						}
					],
					"name": "deposit",
					"outputs": [],
					"stateMutability": "nonpayable",
					"type": "function"
				},
				{
					"inputs": [],
					"name": "eHKD",
					"outputs": [
						{
							"internalType": "contract ERC20",
							"name": "",
							"type": "address"
						}
					],
					"stateMutability": "view",
					"type": "function"
				},
				{
					"inputs": [],
					"name": "isFulfilled",
					"outputs": [
						{
							"internalType": "bool",
							"name": "",
							"type": "bool"
						}
					],
					"stateMutability": "view",
					"type": "function"
				},
				{
					"inputs": [],
					"name": "isRefunded",
					"outputs": [
						{
							"internalType": "bool",
							"name": "",
							"type": "bool"
						}
					],
					"stateMutability": "view",
					"type": "function"
				},
				{
					"inputs": [],
					"name": "refund",
					"outputs": [],
					"stateMutability": "nonpayable",
					"type": "function"
				},
				{
					"inputs": [],
					"name": "releaseFunds",
					"outputs": [],
					"stateMutability": "nonpayable",
					"type": "function"
				},
				{
					"inputs": [],
					"name": "seller",
					"outputs": [
						{
							"internalType": "address",
							"name": "",
							"type": "address"
						}
					],
					"stateMutability": "view",
					"type": "function"
				},
				{
					"inputs": [],
					"name": "verifyBalances",
					"outputs": [
						{
							"internalType": "uint256",
							"name": "contractBalance",
							"type": "uint256"
						},
						{
							"internalType": "uint256",
							"name": "buyerBalance",
							"type": "uint256"
						},
						{
							"internalType": "uint256",
							"name": "sellerBalance",
							"type": "uint256"
						}
					],
					"stateMutability": "view",
					"type": "function"
				}
			],
			"devdoc": {
				"errors": {
					"SafeERC20FailedOperation(address)": [
						{
							"details": "An operation with an ERC-20 token failed."
						}
					]
				},
				"kind": "dev",
				"methods": {},
				"version": 1
			},
			"evm": {
				"assembly": "    /* \"contracts/EHKDscrow.sol\":181:2793  contract EHKDEscrow {... */\n  mstore(0x40, 0xa0)\n    /* \"contracts/EHKDscrow.sol\":671:791  constructor(address _eHKDAddress, address _seller) {... */\n  callvalue\n  dup1\n  iszero\n  tag_1\n  jumpi\n  revert(0x00, 0x00)\ntag_1:\n  pop\n  mload(0x40)\n  sub(codesize, bytecodeSize)\n  dup1\n  bytecodeSize\n  dup4\n  codecopy\n  dup2\n  dup2\n  add\n  0x40\n  mstore\n  dup2\n  add\n  swap1\n  tag_2\n  swap2\n  swap1\n  tag_3\n  jump\t// in\ntag_2:\n    /* \"contracts/EHKDscrow.sol\":745:757  _eHKDAddress */\n  dup2\n    /* \"contracts/EHKDscrow.sol\":732:758  eHKD = ERC20(_eHKDAddress) */\n  0xffffffffffffffffffffffffffffffffffffffff\n  and\n  0x80\n  dup2\n  0xffffffffffffffffffffffffffffffffffffffff\n  and\n  dup2\n  mstore\n  pop\n  pop\n    /* \"contracts/EHKDscrow.sol\":777:784  _seller */\n  dup1\n    /* \"contracts/EHKDscrow.sol\":768:774  seller */\n  0x00\n  0x00\n    /* \"contracts/EHKDscrow.sol\":768:784  seller = _seller */\n  0x0100\n  exp\n  dup2\n  sload\n  dup2\n  0xffffffffffffffffffffffffffffffffffffffff\n  mul\n  not\n  and\n  swap1\n  dup4\n  0xffffffffffffffffffffffffffffffffffffffff\n  and\n  mul\n  or\n  swap1\n  sstore\n  pop\n    /* \"contracts/EHKDscrow.sol\":671:791  constructor(address _eHKDAddress, address _seller) {... */\n  pop\n  pop\n    /* \"contracts/EHKDscrow.sol\":181:2793  contract EHKDEscrow {... */\n  jump(tag_6)\n    /* \"#utility.yul\":88:205   */\ntag_8:\n    /* \"#utility.yul\":197:198   */\n  0x00\n    /* \"#utility.yul\":194:195   */\n  0x00\n    /* \"#utility.yul\":187:199   */\n  revert\n    /* \"#utility.yul\":334:460   */\ntag_10:\n    /* \"#utility.yul\":371:378   */\n  0x00\n    /* \"#utility.yul\":411:453   */\n  0xffffffffffffffffffffffffffffffffffffffff\n    /* \"#utility.yul\":404:409   */\n  dup3\n    /* \"#utility.yul\":400:454   */\n  and\n    /* \"#utility.yul\":389:454   */\n  swap1\n  pop\n    /* \"#utility.yul\":334:460   */\n  swap2\n  swap1\n  pop\n  jump\t// out\n    /* \"#utility.yul\":466:562   */\ntag_11:\n    /* \"#utility.yul\":503:510   */\n  0x00\n    /* \"#utility.yul\":532:556   */\n  tag_20\n    /* \"#utility.yul\":550:555   */\n  dup3\n    /* \"#utility.yul\":532:556   */\n  tag_10\n  jump\t// in\ntag_20:\n    /* \"#utility.yul\":521:556   */\n  swap1\n  pop\n    /* \"#utility.yul\":466:562   */\n  swap2\n  swap1\n  pop\n  jump\t// out\n    /* \"#utility.yul\":568:690   */\ntag_12:\n    /* \"#utility.yul\":641:665   */\n  tag_22\n    /* \"#utility.yul\":659:664   */\n  dup2\n    /* \"#utility.yul\":641:665   */\n  tag_11\n  jump\t// in\ntag_22:\n    /* \"#utility.yul\":634:639   */\n  dup2\n    /* \"#utility.yul\":631:666   */\n  eq\n    /* \"#utility.yul\":621:684   */\n  tag_23\n  jumpi\n    /* \"#utility.yul\":680:681   */\n  0x00\n    /* \"#utility.yul\":677:678   */\n  0x00\n    /* \"#utility.yul\":670:682   */\n  revert\n    /* \"#utility.yul\":621:684   */\ntag_23:\n    /* \"#utility.yul\":568:690   */\n  pop\n  jump\t// out\n    /* \"#utility.yul\":696:839   */\ntag_13:\n    /* \"#utility.yul\":753:758   */\n  0x00\n    /* \"#utility.yul\":784:790   */\n  dup2\n    /* \"#utility.yul\":778:791   */\n  mload\n    /* \"#utility.yul\":769:791   */\n  swap1\n  pop\n    /* \"#utility.yul\":800:833   */\n  tag_25\n    /* \"#utility.yul\":827:832   */\n  dup2\n    /* \"#utility.yul\":800:833   */\n  tag_12\n  jump\t// in\ntag_25:\n    /* \"#utility.yul\":696:839   */\n  swap3\n  swap2\n  pop\n  pop\n  jump\t// out\n    /* \"#utility.yul\":845:1352   */\ntag_3:\n    /* \"#utility.yul\":924:930   */\n  0x00\n    /* \"#utility.yul\":932:938   */\n  0x00\n    /* \"#utility.yul\":981:983   */\n  0x40\n    /* \"#utility.yul\":969:978   */\n  dup4\n    /* \"#utility.yul\":960:967   */\n  dup6\n    /* \"#utility.yul\":956:979   */\n  sub\n    /* \"#utility.yul\":952:984   */\n  slt\n    /* \"#utility.yul\":949:1068   */\n  iszero\n  tag_27\n  jumpi\n    /* \"#utility.yul\":987:1066   */\n  tag_28\n  tag_8\n  jump\t// in\ntag_28:\n    /* \"#utility.yul\":949:1068   */\ntag_27:\n    /* \"#utility.yul\":1107:1108   */\n  0x00\n    /* \"#utility.yul\":1132:1196   */\n  tag_29\n    /* \"#utility.yul\":1188:1195   */\n  dup6\n    /* \"#utility.yul\":1179:1185   */\n  dup3\n    /* \"#utility.yul\":1168:1177   */\n  dup7\n    /* \"#utility.yul\":1164:1186   */\n  add\n    /* \"#utility.yul\":1132:1196   */\n  tag_13\n  jump\t// in\ntag_29:\n    /* \"#utility.yul\":1122:1196   */\n  swap3\n  pop\n    /* \"#utility.yul\":1078:1206   */\n  pop\n    /* \"#utility.yul\":1245:1247   */\n  0x20\n    /* \"#utility.yul\":1271:1335   */\n  tag_30\n    /* \"#utility.yul\":1327:1334   */\n  dup6\n    /* \"#utility.yul\":1318:1324   */\n  dup3\n    /* \"#utility.yul\":1307:1316   */\n  dup7\n    /* \"#utility.yul\":1303:1325   */\n  add\n    /* \"#utility.yul\":1271:1335   */\n  tag_13\n  jump\t// in\ntag_30:\n    /* \"#utility.yul\":1261:1335   */\n  swap2\n  pop\n    /* \"#utility.yul\":1216:1345   */\n  pop\n    /* \"#utility.yul\":845:1352   */\n  swap3\n  pop\n  swap3\n  swap1\n  pop\n  jump\t// out\n    /* \"contracts/EHKDscrow.sol\":181:2793  contract EHKDEscrow {... */\ntag_6:\n  mload(0x80)\n  codecopy(0x00, dataOffset(sub_0), dataSize(sub_0))\n  0x00\n  assignImmutable(\"0x4ebeb7ed611105ebcb944a24e2d12881730f2ed7a718f6029f8a700f1b351cbf\")\n  return(0x00, dataSize(sub_0))\nstop\n\nsub_0: assembly {\n        /* \"contracts/EHKDscrow.sol\":181:2793  contract EHKDEscrow {... */\n      mstore(0x40, 0x80)\n      callvalue\n      dup1\n      iszero\n      tag_1\n      jumpi\n      revert(0x00, 0x00)\n    tag_1:\n      pop\n      jumpi(tag_2, lt(calldatasize, 0x04))\n      shr(0xe0, calldataload(0x00))\n      dup1\n      0x779cd083\n      gt\n      tag_14\n      jumpi\n      dup1\n      0x779cd083\n      eq\n      tag_8\n      jumpi\n      dup1\n      0x7c0840d1\n      eq\n      tag_9\n      jumpi\n      dup1\n      0xaa8c217c\n      eq\n      tag_10\n      jumpi\n      dup1\n      0xb6b55f25\n      eq\n      tag_11\n      jumpi\n      dup1\n      0xd2c9ea03\n      eq\n      tag_12\n      jumpi\n      dup1\n      0xd41b053f\n      eq\n      tag_13\n      jumpi\n      jump(tag_2)\n    tag_14:\n      dup1\n      0x08551a53\n      eq\n      tag_3\n      jumpi\n      dup1\n      0x385a9c37\n      eq\n      tag_4\n      jumpi\n      dup1\n      0x590e1ae3\n      eq\n      tag_5\n      jumpi\n      dup1\n      0x69d89575\n      eq\n      tag_6\n      jumpi\n      dup1\n      0x7150d8ae\n      eq\n      tag_7\n      jumpi\n    tag_2:\n      revert(0x00, 0x00)\n        /* \"contracts/EHKDscrow.sol\":272:293  address public seller */\n    tag_3:\n      tag_15\n      tag_16\n      jump\t// in\n    tag_15:\n      mload(0x40)\n      tag_17\n      swap2\n      swap1\n      tag_18\n      jump\t// in\n    tag_17:\n      mload(0x40)\n      dup1\n      swap2\n      sub\n      swap1\n      return\n        /* \"contracts/EHKDscrow.sol\":352:375  bool public isFulfilled */\n    tag_4:\n      tag_19\n      tag_20\n      jump\t// in\n    tag_19:\n      mload(0x40)\n      tag_21\n      swap2\n      swap1\n      tag_22\n      jump\t// in\n    tag_21:\n      mload(0x40)\n      dup1\n      swap2\n      sub\n      swap1\n      return\n        /* \"contracts/EHKDscrow.sol\":2062:2468  function refund() external {... */\n    tag_5:\n      tag_23\n      tag_24\n      jump\t// in\n    tag_23:\n      stop\n        /* \"contracts/EHKDscrow.sol\":1622:1983  function releaseFunds() external {... */\n    tag_6:\n      tag_25\n      tag_26\n      jump\t// in\n    tag_25:\n      stop\n        /* \"contracts/EHKDscrow.sol\":299:319  address public buyer */\n    tag_7:\n      tag_27\n      tag_28\n      jump\t// in\n    tag_27:\n      mload(0x40)\n      tag_29\n      swap2\n      swap1\n      tag_18\n      jump\t// in\n    tag_29:\n      mload(0x40)\n      dup1\n      swap2\n      sub\n      swap1\n      return\n        /* \"contracts/EHKDscrow.sol\":381:403  bool public isRefunded */\n    tag_8:\n      tag_30\n      tag_31\n      jump\t// in\n    tag_30:\n      mload(0x40)\n      tag_32\n      swap2\n      swap1\n      tag_22\n      jump\t// in\n    tag_32:\n      mload(0x40)\n      dup1\n      swap2\n      sub\n      swap1\n      return\n        /* \"contracts/EHKDscrow.sol\":2524:2791  function verifyBalances() external view returns (uint256 contractBalance, uint256 buyerBalance, uint256 sellerBalance) {... */\n    tag_9:\n      tag_33\n      tag_34\n      jump\t// in\n    tag_33:\n      mload(0x40)\n      tag_35\n      swap4\n      swap3\n      swap2\n      swap1\n      tag_36\n      jump\t// in\n    tag_35:\n      mload(0x40)\n      dup1\n      swap2\n      sub\n      swap1\n      return\n        /* \"contracts/EHKDscrow.sol\":325:346  uint256 public amount */\n    tag_10:\n      tag_37\n      tag_38\n      jump\t// in\n    tag_37:\n      mload(0x40)\n      tag_39\n      swap2\n      swap1\n      tag_40\n      jump\t// in\n    tag_39:\n      mload(0x40)\n      dup1\n      swap2\n      sub\n      swap1\n      return\n        /* \"contracts/EHKDscrow.sol\":837:1247  function deposit(uint256 _amount) external {... */\n    tag_11:\n      tag_41\n      0x04\n      dup1\n      calldatasize\n      sub\n      dup2\n      add\n      swap1\n      tag_42\n      swap2\n      swap1\n      tag_43\n      jump\t// in\n    tag_42:\n      tag_44\n      jump\t// in\n    tag_41:\n      stop\n        /* \"contracts/EHKDscrow.sol\":1305:1568  function confirmFulfillment() external {... */\n    tag_12:\n      tag_45\n      tag_46\n      jump\t// in\n    tag_45:\n      stop\n        /* \"contracts/EHKDscrow.sol\":239:266  ERC20 public immutable eHKD */\n    tag_13:\n      tag_47\n      tag_48\n      jump\t// in\n    tag_47:\n      mload(0x40)\n      tag_49\n      swap2\n      swap1\n      tag_50\n      jump\t// in\n    tag_49:\n      mload(0x40)\n      dup1\n      swap2\n      sub\n      swap1\n      return\n        /* \"contracts/EHKDscrow.sol\":272:293  address public seller */\n    tag_16:\n      0x00\n      0x00\n      swap1\n      sload\n      swap1\n      0x0100\n      exp\n      swap1\n      div\n      0xffffffffffffffffffffffffffffffffffffffff\n      and\n      dup2\n      jump\t// out\n        /* \"contracts/EHKDscrow.sol\":352:375  bool public isFulfilled */\n    tag_20:\n      0x03\n      0x00\n      swap1\n      sload\n      swap1\n      0x0100\n      exp\n      swap1\n      div\n      0xff\n      and\n      dup2\n      jump\t// out\n        /* \"contracts/EHKDscrow.sol\":2062:2468  function refund() external {... */\n    tag_24:\n        /* \"contracts/EHKDscrow.sol\":2121:2126  buyer */\n      0x01\n      0x00\n      swap1\n      sload\n      swap1\n      0x0100\n      exp\n      swap1\n      div\n      0xffffffffffffffffffffffffffffffffffffffff\n      and\n        /* \"contracts/EHKDscrow.sol\":2107:2126  msg.sender == buyer */\n      0xffffffffffffffffffffffffffffffffffffffff\n      and\n        /* \"contracts/EHKDscrow.sol\":2107:2117  msg.sender */\n      caller\n        /* \"contracts/EHKDscrow.sol\":2107:2126  msg.sender == buyer */\n      0xffffffffffffffffffffffffffffffffffffffff\n      and\n      eq\n        /* \"contracts/EHKDscrow.sol\":2099:2152  require(msg.sender == buyer, \"Only buyer can refund\") */\n      tag_52\n      jumpi\n      mload(0x40)\n      0x08c379a000000000000000000000000000000000000000000000000000000000\n      dup2\n      mstore\n      0x04\n      add\n      tag_53\n      swap1\n      tag_54\n      jump\t// in\n    tag_53:\n      mload(0x40)\n      dup1\n      swap2\n      sub\n      swap1\n      revert\n    tag_52:\n        /* \"contracts/EHKDscrow.sol\":2171:2182  isFulfilled */\n      0x03\n      0x00\n      swap1\n      sload\n      swap1\n      0x0100\n      exp\n      swap1\n      div\n      0xff\n      and\n        /* \"contracts/EHKDscrow.sol\":2170:2182  !isFulfilled */\n      iszero\n        /* \"contracts/EHKDscrow.sol\":2170:2197  !isFulfilled && !isRefunded */\n      dup1\n      iszero\n      tag_55\n      jumpi\n      pop\n        /* \"contracts/EHKDscrow.sol\":2187:2197  isRefunded */\n      0x03\n      0x01\n      swap1\n      sload\n      swap1\n      0x0100\n      exp\n      swap1\n      div\n      0xff\n      and\n        /* \"contracts/EHKDscrow.sol\":2186:2197  !isRefunded */\n      iszero\n        /* \"contracts/EHKDscrow.sol\":2170:2197  !isFulfilled && !isRefunded */\n    tag_55:\n        /* \"contracts/EHKDscrow.sol\":2162:2231  require(!isFulfilled && !isRefunded, \"Transaction already completed\") */\n      tag_56\n      jumpi\n      mload(0x40)\n      0x08c379a000000000000000000000000000000000000000000000000000000000\n      dup2\n      mstore\n      0x04\n      add\n      tag_57\n      swap1\n      tag_58\n      jump\t// in\n    tag_57:\n      mload(0x40)\n      dup1\n      swap2\n      sub\n      swap1\n      revert\n    tag_56:\n        /* \"contracts/EHKDscrow.sol\":2242:2257  uint256 balance */\n      0x00\n        /* \"contracts/EHKDscrow.sol\":2260:2264  eHKD */\n      immutable(\"0x4ebeb7ed611105ebcb944a24e2d12881730f2ed7a718f6029f8a700f1b351cbf\")\n        /* \"contracts/EHKDscrow.sol\":2260:2274  eHKD.balanceOf */\n      0xffffffffffffffffffffffffffffffffffffffff\n      and\n      0x70a08231\n        /* \"contracts/EHKDscrow.sol\":2283:2287  this */\n      address\n        /* \"contracts/EHKDscrow.sol\":2260:2289  eHKD.balanceOf(address(this)) */\n      mload(0x40)\n      dup3\n      0xffffffff\n      and\n      0xe0\n      shl\n      dup2\n      mstore\n      0x04\n      add\n      tag_59\n      swap2\n      swap1\n      tag_18\n      jump\t// in\n    tag_59:\n      0x20\n      mload(0x40)\n      dup1\n      dup4\n      sub\n      dup2\n      dup7\n      gas\n      staticcall\n      iszero\n      dup1\n      iszero\n      tag_61\n      jumpi\n      returndatacopy(0x00, 0x00, returndatasize)\n      revert(0x00, returndatasize)\n    tag_61:\n      pop\n      pop\n      pop\n      pop\n      mload(0x40)\n      returndatasize\n      not(0x1f)\n      0x1f\n      dup3\n      add\n      and\n      dup3\n      add\n      dup1\n      0x40\n      mstore\n      pop\n      dup2\n      add\n      swap1\n      tag_62\n      swap2\n      swap1\n      tag_63\n      jump\t// in\n    tag_62:\n        /* \"contracts/EHKDscrow.sol\":2242:2289  uint256 balance = eHKD.balanceOf(address(this)) */\n      swap1\n      pop\n        /* \"contracts/EHKDscrow.sol\":2318:2324  amount */\n      sload(0x02)\n        /* \"contracts/EHKDscrow.sol\":2307:2314  balance */\n      dup2\n        /* \"contracts/EHKDscrow.sol\":2307:2324  balance >= amount */\n      lt\n      iszero\n        /* \"contracts/EHKDscrow.sol\":2299:2349  require(balance >= amount, \"Insufficient balance\") */\n      tag_64\n      jumpi\n      mload(0x40)\n      0x08c379a000000000000000000000000000000000000000000000000000000000\n      dup2\n      mstore\n      0x04\n      add\n      tag_65\n      swap1\n      tag_66\n      jump\t// in\n    tag_65:\n      mload(0x40)\n      dup1\n      swap2\n      sub\n      swap1\n      revert\n    tag_64:\n        /* \"contracts/EHKDscrow.sol\":2373:2377  true */\n      0x01\n        /* \"contracts/EHKDscrow.sol\":2360:2370  isRefunded */\n      0x03\n      0x01\n        /* \"contracts/EHKDscrow.sol\":2360:2377  isRefunded = true */\n      0x0100\n      exp\n      dup2\n      sload\n      dup2\n      0xff\n      mul\n      not\n      and\n      swap1\n      dup4\n      iszero\n      iszero\n      mul\n      or\n      swap1\n      sstore\n      pop\n        /* \"contracts/EHKDscrow.sol\":2387:2419  eHKD.safeTransfer(buyer, amount) */\n      tag_67\n        /* \"contracts/EHKDscrow.sol\":2405:2410  buyer */\n      0x01\n      0x00\n      swap1\n      sload\n      swap1\n      0x0100\n      exp\n      swap1\n      div\n      0xffffffffffffffffffffffffffffffffffffffff\n      and\n        /* \"contracts/EHKDscrow.sol\":2412:2418  amount */\n      sload(0x02)\n        /* \"contracts/EHKDscrow.sol\":2387:2391  eHKD */\n      immutable(\"0x4ebeb7ed611105ebcb944a24e2d12881730f2ed7a718f6029f8a700f1b351cbf\")\n        /* \"contracts/EHKDscrow.sol\":2387:2404  eHKD.safeTransfer */\n      0xffffffffffffffffffffffffffffffffffffffff\n      and\n      tag_68\n      swap1\n        /* \"contracts/EHKDscrow.sol\":2387:2419  eHKD.safeTransfer(buyer, amount) */\n      swap3\n      swap2\n      swap1\n      0xffffffff\n      and\n      jump\t// in\n    tag_67:\n        /* \"contracts/EHKDscrow.sol\":2447:2452  buyer */\n      0x01\n      0x00\n      swap1\n      sload\n      swap1\n      0x0100\n      exp\n      swap1\n      div\n      0xffffffffffffffffffffffffffffffffffffffff\n      and\n        /* \"contracts/EHKDscrow.sol\":2434:2461  RefundIssued(buyer, amount) */\n      0xffffffffffffffffffffffffffffffffffffffff\n      and\n      0xa171b6942063c6f2800ce40a780edce37baa2b618571b11eedd1e69e626e7d76\n        /* \"contracts/EHKDscrow.sol\":2454:2460  amount */\n      sload(0x02)\n        /* \"contracts/EHKDscrow.sol\":2434:2461  RefundIssued(buyer, amount) */\n      mload(0x40)\n      tag_69\n      swap2\n      swap1\n      tag_40\n      jump\t// in\n    tag_69:\n      mload(0x40)\n      dup1\n      swap2\n      sub\n      swap1\n      log2\n        /* \"contracts/EHKDscrow.sol\":2089:2468  {... */\n      pop\n        /* \"contracts/EHKDscrow.sol\":2062:2468  function refund() external {... */\n      jump\t// out\n        /* \"contracts/EHKDscrow.sol\":1622:1983  function releaseFunds() external {... */\n    tag_26:\n        /* \"contracts/EHKDscrow.sol\":1673:1684  isFulfilled */\n      0x03\n      0x00\n      swap1\n      sload\n      swap1\n      0x0100\n      exp\n      swap1\n      div\n      0xff\n      and\n        /* \"contracts/EHKDscrow.sol\":1665:1714  require(isFulfilled, \"Fulfillment not confirmed\") */\n      tag_71\n      jumpi\n      mload(0x40)\n      0x08c379a000000000000000000000000000000000000000000000000000000000\n      dup2\n      mstore\n      0x04\n      add\n      tag_72\n      swap1\n      tag_73\n      jump\t// in\n    tag_72:\n      mload(0x40)\n      dup1\n      swap2\n      sub\n      swap1\n      revert\n    tag_71:\n        /* \"contracts/EHKDscrow.sol\":1733:1743  isRefunded */\n      0x03\n      0x01\n      swap1\n      sload\n      swap1\n      0x0100\n      exp\n      swap1\n      div\n      0xff\n      and\n        /* \"contracts/EHKDscrow.sol\":1732:1743  !isRefunded */\n      iszero\n        /* \"contracts/EHKDscrow.sol\":1724:1770  require(!isRefunded, \"Funds already refunded\") */\n      tag_74\n      jumpi\n      mload(0x40)\n      0x08c379a000000000000000000000000000000000000000000000000000000000\n      dup2\n      mstore\n      0x04\n      add\n      tag_75\n      swap1\n      tag_76\n      jump\t// in\n    tag_75:\n      mload(0x40)\n      dup1\n      swap2\n      sub\n      swap1\n      revert\n    tag_74:\n        /* \"contracts/EHKDscrow.sol\":1781:1796  uint256 balance */\n      0x00\n        /* \"contracts/EHKDscrow.sol\":1799:1803  eHKD */\n      immutable(\"0x4ebeb7ed611105ebcb944a24e2d12881730f2ed7a718f6029f8a700f1b351cbf\")\n        /* \"contracts/EHKDscrow.sol\":1799:1813  eHKD.balanceOf */\n      0xffffffffffffffffffffffffffffffffffffffff\n      and\n      0x70a08231\n        /* \"contracts/EHKDscrow.sol\":1822:1826  this */\n      address\n        /* \"contracts/EHKDscrow.sol\":1799:1828  eHKD.balanceOf(address(this)) */\n      mload(0x40)\n      dup3\n      0xffffffff\n      and\n      0xe0\n      shl\n      dup2\n      mstore\n      0x04\n      add\n      tag_77\n      swap2\n      swap1\n      tag_18\n      jump\t// in\n    tag_77:\n      0x20\n      mload(0x40)\n      dup1\n      dup4\n      sub\n      dup2\n      dup7\n      gas\n      staticcall\n      iszero\n      dup1\n      iszero\n      tag_79\n      jumpi\n      returndatacopy(0x00, 0x00, returndatasize)\n      revert(0x00, returndatasize)\n    tag_79:\n      pop\n      pop\n      pop\n      pop\n      mload(0x40)\n      returndatasize\n      not(0x1f)\n      0x1f\n      dup3\n      add\n      and\n      dup3\n      add\n      dup1\n      0x40\n      mstore\n      pop\n      dup2\n      add\n      swap1\n      tag_80\n      swap2\n      swap1\n      tag_63\n      jump\t// in\n    tag_80:\n        /* \"contracts/EHKDscrow.sol\":1781:1828  uint256 balance = eHKD.balanceOf(address(this)) */\n      swap1\n      pop\n        /* \"contracts/EHKDscrow.sol\":1857:1863  amount */\n      sload(0x02)\n        /* \"contracts/EHKDscrow.sol\":1846:1853  balance */\n      dup2\n        /* \"contracts/EHKDscrow.sol\":1846:1863  balance >= amount */\n      lt\n      iszero\n        /* \"contracts/EHKDscrow.sol\":1838:1888  require(balance >= amount, \"Insufficient balance\") */\n      tag_81\n      jumpi\n      mload(0x40)\n      0x08c379a000000000000000000000000000000000000000000000000000000000\n      dup2\n      mstore\n      0x04\n      add\n      tag_82\n      swap1\n      tag_66\n      jump\t// in\n    tag_82:\n      mload(0x40)\n      dup1\n      swap2\n      sub\n      swap1\n      revert\n    tag_81:\n        /* \"contracts/EHKDscrow.sol\":1899:1932  eHKD.safeTransfer(seller, amount) */\n      tag_83\n        /* \"contracts/EHKDscrow.sol\":1917:1923  seller */\n      0x00\n      0x00\n      swap1\n      sload\n      swap1\n      0x0100\n      exp\n      swap1\n      div\n      0xffffffffffffffffffffffffffffffffffffffff\n      and\n        /* \"contracts/EHKDscrow.sol\":1925:1931  amount */\n      sload(0x02)\n        /* \"contracts/EHKDscrow.sol\":1899:1903  eHKD */\n      immutable(\"0x4ebeb7ed611105ebcb944a24e2d12881730f2ed7a718f6029f8a700f1b351cbf\")\n        /* \"contracts/EHKDscrow.sol\":1899:1916  eHKD.safeTransfer */\n      0xffffffffffffffffffffffffffffffffffffffff\n      and\n      tag_68\n      swap1\n        /* \"contracts/EHKDscrow.sol\":1899:1932  eHKD.safeTransfer(seller, amount) */\n      swap3\n      swap2\n      swap1\n      0xffffffff\n      and\n      jump\t// in\n    tag_83:\n        /* \"contracts/EHKDscrow.sol\":1961:1967  seller */\n      0x00\n      0x00\n      swap1\n      sload\n      swap1\n      0x0100\n      exp\n      swap1\n      div\n      0xffffffffffffffffffffffffffffffffffffffff\n      and\n        /* \"contracts/EHKDscrow.sol\":1947:1976  FundsReleased(seller, amount) */\n      0xffffffffffffffffffffffffffffffffffffffff\n      and\n      0x221c08a06b07a64803b3787861a3f276212fcccb51c2e6234077a9b8cb13047a\n        /* \"contracts/EHKDscrow.sol\":1969:1975  amount */\n      sload(0x02)\n        /* \"contracts/EHKDscrow.sol\":1947:1976  FundsReleased(seller, amount) */\n      mload(0x40)\n      tag_84\n      swap2\n      swap1\n      tag_40\n      jump\t// in\n    tag_84:\n      mload(0x40)\n      dup1\n      swap2\n      sub\n      swap1\n      log2\n        /* \"contracts/EHKDscrow.sol\":1655:1983  {... */\n      pop\n        /* \"contracts/EHKDscrow.sol\":1622:1983  function releaseFunds() external {... */\n      jump\t// out\n        /* \"contracts/EHKDscrow.sol\":299:319  address public buyer */\n    tag_28:\n      0x01\n      0x00\n      swap1\n      sload\n      swap1\n      0x0100\n      exp\n      swap1\n      div\n      0xffffffffffffffffffffffffffffffffffffffff\n      and\n      dup2\n      jump\t// out\n        /* \"contracts/EHKDscrow.sol\":381:403  bool public isRefunded */\n    tag_31:\n      0x03\n      0x01\n      swap1\n      sload\n      swap1\n      0x0100\n      exp\n      swap1\n      div\n      0xff\n      and\n      dup2\n      jump\t// out\n        /* \"contracts/EHKDscrow.sol\":2524:2791  function verifyBalances() external view returns (uint256 contractBalance, uint256 buyerBalance, uint256 sellerBalance) {... */\n    tag_34:\n        /* \"contracts/EHKDscrow.sol\":2573:2596  uint256 contractBalance */\n      0x00\n        /* \"contracts/EHKDscrow.sol\":2598:2618  uint256 buyerBalance */\n      0x00\n        /* \"contracts/EHKDscrow.sol\":2620:2641  uint256 sellerBalance */\n      0x00\n        /* \"contracts/EHKDscrow.sol\":2674:2678  eHKD */\n      immutable(\"0x4ebeb7ed611105ebcb944a24e2d12881730f2ed7a718f6029f8a700f1b351cbf\")\n        /* \"contracts/EHKDscrow.sol\":2674:2688  eHKD.balanceOf */\n      0xffffffffffffffffffffffffffffffffffffffff\n      and\n      0x70a08231\n        /* \"contracts/EHKDscrow.sol\":2697:2701  this */\n      address\n        /* \"contracts/EHKDscrow.sol\":2674:2703  eHKD.balanceOf(address(this)) */\n      mload(0x40)\n      dup3\n      0xffffffff\n      and\n      0xe0\n      shl\n      dup2\n      mstore\n      0x04\n      add\n      tag_86\n      swap2\n      swap1\n      tag_18\n      jump\t// in\n    tag_86:\n      0x20\n      mload(0x40)\n      dup1\n      dup4\n      sub\n      dup2\n      dup7\n      gas\n      staticcall\n      iszero\n      dup1\n      iszero\n      tag_88\n      jumpi\n      returndatacopy(0x00, 0x00, returndatasize)\n      revert(0x00, returndatasize)\n    tag_88:\n      pop\n      pop\n      pop\n      pop\n      mload(0x40)\n      returndatasize\n      not(0x1f)\n      0x1f\n      dup3\n      add\n      and\n      dup3\n      add\n      dup1\n      0x40\n      mstore\n      pop\n      dup2\n      add\n      swap1\n      tag_89\n      swap2\n      swap1\n      tag_63\n      jump\t// in\n    tag_89:\n        /* \"contracts/EHKDscrow.sol\":2717:2721  eHKD */\n      immutable(\"0x4ebeb7ed611105ebcb944a24e2d12881730f2ed7a718f6029f8a700f1b351cbf\")\n        /* \"contracts/EHKDscrow.sol\":2717:2731  eHKD.balanceOf */\n      0xffffffffffffffffffffffffffffffffffffffff\n      and\n      0x70a08231\n        /* \"contracts/EHKDscrow.sol\":2732:2737  buyer */\n      0x01\n      0x00\n      swap1\n      sload\n      swap1\n      0x0100\n      exp\n      swap1\n      div\n      0xffffffffffffffffffffffffffffffffffffffff\n      and\n        /* \"contracts/EHKDscrow.sol\":2717:2738  eHKD.balanceOf(buyer) */\n      mload(0x40)\n      dup3\n      0xffffffff\n      and\n      0xe0\n      shl\n      dup2\n      mstore\n      0x04\n      add\n      tag_90\n      swap2\n      swap1\n      tag_18\n      jump\t// in\n    tag_90:\n      0x20\n      mload(0x40)\n      dup1\n      dup4\n      sub\n      dup2\n      dup7\n      gas\n      staticcall\n      iszero\n      dup1\n      iszero\n      tag_92\n      jumpi\n      returndatacopy(0x00, 0x00, returndatasize)\n      revert(0x00, returndatasize)\n    tag_92:\n      pop\n      pop\n      pop\n      pop\n      mload(0x40)\n      returndatasize\n      not(0x1f)\n      0x1f\n      dup3\n      add\n      and\n      dup3\n      add\n      dup1\n      0x40\n      mstore\n      pop\n      dup2\n      add\n      swap1\n      tag_93\n      swap2\n      swap1\n      tag_63\n      jump\t// in\n    tag_93:\n        /* \"contracts/EHKDscrow.sol\":2752:2756  eHKD */\n      immutable(\"0x4ebeb7ed611105ebcb944a24e2d12881730f2ed7a718f6029f8a700f1b351cbf\")\n        /* \"contracts/EHKDscrow.sol\":2752:2766  eHKD.balanceOf */\n      0xffffffffffffffffffffffffffffffffffffffff\n      and\n      0x70a08231\n        /* \"contracts/EHKDscrow.sol\":2767:2773  seller */\n      0x00\n      0x00\n      swap1\n      sload\n      swap1\n      0x0100\n      exp\n      swap1\n      div\n      0xffffffffffffffffffffffffffffffffffffffff\n      and\n        /* \"contracts/EHKDscrow.sol\":2752:2774  eHKD.balanceOf(seller) */\n      mload(0x40)\n      dup3\n      0xffffffff\n      and\n      0xe0\n      shl\n      dup2\n      mstore\n      0x04\n      add\n      tag_94\n      swap2\n      swap1\n      tag_18\n      jump\t// in\n    tag_94:\n      0x20\n      mload(0x40)\n      dup1\n      dup4\n      sub\n      dup2\n      dup7\n      gas\n      staticcall\n      iszero\n      dup1\n      iszero\n      tag_96\n      jumpi\n      returndatacopy(0x00, 0x00, returndatasize)\n      revert(0x00, returndatasize)\n    tag_96:\n      pop\n      pop\n      pop\n      pop\n      mload(0x40)\n      returndatasize\n      not(0x1f)\n      0x1f\n      dup3\n      add\n      and\n      dup3\n      add\n      dup1\n      0x40\n      mstore\n      pop\n      dup2\n      add\n      swap1\n      tag_97\n      swap2\n      swap1\n      tag_63\n      jump\t// in\n    tag_97:\n        /* \"contracts/EHKDscrow.sol\":2653:2784  return (... */\n      swap3\n      pop\n      swap3\n      pop\n      swap3\n      pop\n        /* \"contracts/EHKDscrow.sol\":2524:2791  function verifyBalances() external view returns (uint256 contractBalance, uint256 buyerBalance, uint256 sellerBalance) {... */\n      swap1\n      swap2\n      swap3\n      jump\t// out\n        /* \"contracts/EHKDscrow.sol\":325:346  uint256 public amount */\n    tag_38:\n      sload(0x02)\n      dup2\n      jump\t// out\n        /* \"contracts/EHKDscrow.sol\":837:1247  function deposit(uint256 _amount) external {... */\n    tag_44:\n        /* \"contracts/EHKDscrow.sol\":899:910  isFulfilled */\n      0x03\n      0x00\n      swap1\n      sload\n      swap1\n      0x0100\n      exp\n      swap1\n      div\n      0xff\n      and\n        /* \"contracts/EHKDscrow.sol\":898:910  !isFulfilled */\n      iszero\n        /* \"contracts/EHKDscrow.sol\":898:925  !isFulfilled && !isRefunded */\n      dup1\n      iszero\n      tag_99\n      jumpi\n      pop\n        /* \"contracts/EHKDscrow.sol\":915:925  isRefunded */\n      0x03\n      0x01\n      swap1\n      sload\n      swap1\n      0x0100\n      exp\n      swap1\n      div\n      0xff\n      and\n        /* \"contracts/EHKDscrow.sol\":914:925  !isRefunded */\n      iszero\n        /* \"contracts/EHKDscrow.sol\":898:925  !isFulfilled && !isRefunded */\n    tag_99:\n        /* \"contracts/EHKDscrow.sol\":890:959  require(!isFulfilled && !isRefunded, \"Transaction already completed\") */\n      tag_100\n      jumpi\n      mload(0x40)\n      0x08c379a000000000000000000000000000000000000000000000000000000000\n      dup2\n      mstore\n      0x04\n      add\n      tag_101\n      swap1\n      tag_58\n      jump\t// in\n    tag_101:\n      mload(0x40)\n      dup1\n      swap2\n      sub\n      swap1\n      revert\n    tag_100:\n        /* \"contracts/EHKDscrow.sol\":987:988  0 */\n      0x00\n        /* \"contracts/EHKDscrow.sol\":977:984  _amount */\n      dup2\n        /* \"contracts/EHKDscrow.sol\":977:988  _amount > 0 */\n      gt\n        /* \"contracts/EHKDscrow.sol\":969:1011  require(_amount > 0, \"Amount must be > 0\") */\n      tag_102\n      jumpi\n      mload(0x40)\n      0x08c379a000000000000000000000000000000000000000000000000000000000\n      dup2\n      mstore\n      0x04\n      add\n      tag_103\n      swap1\n      tag_104\n      jump\t// in\n    tag_103:\n      mload(0x40)\n      dup1\n      swap2\n      sub\n      swap1\n      revert\n    tag_102:\n        /* \"contracts/EHKDscrow.sol\":1046:1047  0 */\n      0x00\n        /* \"contracts/EHKDscrow.sol\":1029:1048  buyer == address(0) */\n      0xffffffffffffffffffffffffffffffffffffffff\n      and\n        /* \"contracts/EHKDscrow.sol\":1029:1034  buyer */\n      0x01\n      0x00\n      swap1\n      sload\n      swap1\n      0x0100\n      exp\n      swap1\n      div\n      0xffffffffffffffffffffffffffffffffffffffff\n      and\n        /* \"contracts/EHKDscrow.sol\":1029:1048  buyer == address(0) */\n      0xffffffffffffffffffffffffffffffffffffffff\n      and\n      eq\n        /* \"contracts/EHKDscrow.sol\":1021:1070  require(buyer == address(0), \"Buyer already set\") */\n      tag_105\n      jumpi\n      mload(0x40)\n      0x08c379a000000000000000000000000000000000000000000000000000000000\n      dup2\n      mstore\n      0x04\n      add\n      tag_106\n      swap1\n      tag_107\n      jump\t// in\n    tag_106:\n      mload(0x40)\n      dup1\n      swap2\n      sub\n      swap1\n      revert\n    tag_105:\n        /* \"contracts/EHKDscrow.sol\":1089:1099  msg.sender */\n      caller\n        /* \"contracts/EHKDscrow.sol\":1081:1086  buyer */\n      0x01\n      0x00\n        /* \"contracts/EHKDscrow.sol\":1081:1099  buyer = msg.sender */\n      0x0100\n      exp\n      dup2\n      sload\n      dup2\n      0xffffffffffffffffffffffffffffffffffffffff\n      mul\n      not\n      and\n      swap1\n      dup4\n      0xffffffffffffffffffffffffffffffffffffffff\n      and\n      mul\n      or\n      swap1\n      sstore\n      pop\n        /* \"contracts/EHKDscrow.sol\":1118:1125  _amount */\n      dup1\n        /* \"contracts/EHKDscrow.sol\":1109:1115  amount */\n      0x02\n        /* \"contracts/EHKDscrow.sol\":1109:1125  amount = _amount */\n      dup2\n      swap1\n      sstore\n      pop\n        /* \"contracts/EHKDscrow.sol\":1135:1192  eHKD.safeTransferFrom(msg.sender, address(this), _amount) */\n      tag_108\n        /* \"contracts/EHKDscrow.sol\":1157:1167  msg.sender */\n      caller\n        /* \"contracts/EHKDscrow.sol\":1177:1181  this */\n      address\n        /* \"contracts/EHKDscrow.sol\":1184:1191  _amount */\n      dup4\n        /* \"contracts/EHKDscrow.sol\":1135:1139  eHKD */\n      immutable(\"0x4ebeb7ed611105ebcb944a24e2d12881730f2ed7a718f6029f8a700f1b351cbf\")\n        /* \"contracts/EHKDscrow.sol\":1135:1156  eHKD.safeTransferFrom */\n      0xffffffffffffffffffffffffffffffffffffffff\n      and\n      tag_109\n      swap1\n        /* \"contracts/EHKDscrow.sol\":1135:1192  eHKD.safeTransferFrom(msg.sender, address(this), _amount) */\n      swap4\n      swap3\n      swap2\n      swap1\n      0xffffffff\n      and\n      jump\t// in\n    tag_108:\n        /* \"contracts/EHKDscrow.sol\":1220:1230  msg.sender */\n      caller\n        /* \"contracts/EHKDscrow.sol\":1208:1240  DepositMade(msg.sender, _amount) */\n      0xffffffffffffffffffffffffffffffffffffffff\n      and\n      0xd15c9547ea5c06670c0010ce19bc32d54682a4b3801ece7f3ab0c3f17106b4bb\n        /* \"contracts/EHKDscrow.sol\":1232:1239  _amount */\n      dup3\n        /* \"contracts/EHKDscrow.sol\":1208:1240  DepositMade(msg.sender, _amount) */\n      mload(0x40)\n      tag_110\n      swap2\n      swap1\n      tag_40\n      jump\t// in\n    tag_110:\n      mload(0x40)\n      dup1\n      swap2\n      sub\n      swap1\n      log2\n        /* \"contracts/EHKDscrow.sol\":837:1247  function deposit(uint256 _amount) external {... */\n      pop\n      jump\t// out\n        /* \"contracts/EHKDscrow.sol\":1305:1568  function confirmFulfillment() external {... */\n    tag_46:\n        /* \"contracts/EHKDscrow.sol\":1376:1382  seller */\n      0x00\n      0x00\n      swap1\n      sload\n      swap1\n      0x0100\n      exp\n      swap1\n      div\n      0xffffffffffffffffffffffffffffffffffffffff\n      and\n        /* \"contracts/EHKDscrow.sol\":1362:1382  msg.sender == seller */\n      0xffffffffffffffffffffffffffffffffffffffff\n      and\n        /* \"contracts/EHKDscrow.sol\":1362:1372  msg.sender */\n      caller\n        /* \"contracts/EHKDscrow.sol\":1362:1382  msg.sender == seller */\n      0xffffffffffffffffffffffffffffffffffffffff\n      and\n      eq\n        /* \"contracts/EHKDscrow.sol\":1354:1410  require(msg.sender == seller, \"Only seller can confirm\") */\n      tag_112\n      jumpi\n      mload(0x40)\n      0x08c379a000000000000000000000000000000000000000000000000000000000\n      dup2\n      mstore\n      0x04\n      add\n      tag_113\n      swap1\n      tag_114\n      jump\t// in\n    tag_113:\n      mload(0x40)\n      dup1\n      swap2\n      sub\n      swap1\n      revert\n    tag_112:\n        /* \"contracts/EHKDscrow.sol\":1429:1440  isFulfilled */\n      0x03\n      0x00\n      swap1\n      sload\n      swap1\n      0x0100\n      exp\n      swap1\n      div\n      0xff\n      and\n        /* \"contracts/EHKDscrow.sol\":1428:1440  !isFulfilled */\n      iszero\n        /* \"contracts/EHKDscrow.sol\":1428:1455  !isFulfilled && !isRefunded */\n      dup1\n      iszero\n      tag_115\n      jumpi\n      pop\n        /* \"contracts/EHKDscrow.sol\":1445:1455  isRefunded */\n      0x03\n      0x01\n      swap1\n      sload\n      swap1\n      0x0100\n      exp\n      swap1\n      div\n      0xff\n      and\n        /* \"contracts/EHKDscrow.sol\":1444:1455  !isRefunded */\n      iszero\n        /* \"contracts/EHKDscrow.sol\":1428:1455  !isFulfilled && !isRefunded */\n    tag_115:\n        /* \"contracts/EHKDscrow.sol\":1420:1489  require(!isFulfilled && !isRefunded, \"Transaction already completed\") */\n      tag_116\n      jumpi\n      mload(0x40)\n      0x08c379a000000000000000000000000000000000000000000000000000000000\n      dup2\n      mstore\n      0x04\n      add\n      tag_117\n      swap1\n      tag_58\n      jump\t// in\n    tag_117:\n      mload(0x40)\n      dup1\n      swap2\n      sub\n      swap1\n      revert\n    tag_116:\n        /* \"contracts/EHKDscrow.sol\":1514:1518  true */\n      0x01\n        /* \"contracts/EHKDscrow.sol\":1500:1511  isFulfilled */\n      0x03\n      0x00\n        /* \"contracts/EHKDscrow.sol\":1500:1518  isFulfilled = true */\n      0x0100\n      exp\n      dup2\n      sload\n      dup2\n      0xff\n      mul\n      not\n      and\n      swap1\n      dup4\n      iszero\n      iszero\n      mul\n      or\n      swap1\n      sstore\n      pop\n        /* \"contracts/EHKDscrow.sol\":1554:1560  seller */\n      0x00\n      0x00\n      swap1\n      sload\n      swap1\n      0x0100\n      exp\n      swap1\n      div\n      0xffffffffffffffffffffffffffffffffffffffff\n      and\n        /* \"contracts/EHKDscrow.sol\":1533:1561  FulfillmentConfirmed(seller) */\n      0xffffffffffffffffffffffffffffffffffffffff\n      and\n      0x2b4d886262cf2de6c7d4426877b49a269f028810e47e65e9debbf5cd75b99f8b\n      mload(0x40)\n      mload(0x40)\n      dup1\n      swap2\n      sub\n      swap1\n      log2\n        /* \"contracts/EHKDscrow.sol\":1305:1568  function confirmFulfillment() external {... */\n      jump\t// out\n        /* \"contracts/EHKDscrow.sol\":239:266  ERC20 public immutable eHKD */\n    tag_48:\n      immutable(\"0x4ebeb7ed611105ebcb944a24e2d12881730f2ed7a718f6029f8a700f1b351cbf\")\n      dup2\n      jump\t// out\n        /* \"@openzeppelin/contracts/token/ERC20/utils/SafeERC20.sol\":1219:1379  function safeTransfer(IERC20 token, address to, uint256 value) internal {... */\n    tag_68:\n        /* \"@openzeppelin/contracts/token/ERC20/utils/SafeERC20.sol\":1301:1372  _callOptionalReturn(token, abi.encodeCall(token.transfer, (to, value))) */\n      tag_119\n        /* \"@openzeppelin/contracts/token/ERC20/utils/SafeERC20.sol\":1321:1326  token */\n      dup4\n        /* \"@openzeppelin/contracts/token/ERC20/utils/SafeERC20.sol\":1343:1348  token */\n      dup5\n        /* \"@openzeppelin/contracts/token/ERC20/utils/SafeERC20.sol\":1343:1357  token.transfer */\n      0xffffffffffffffffffffffffffffffffffffffff\n      and\n      0xa9059cbb\n        /* \"@openzeppelin/contracts/token/ERC20/utils/SafeERC20.sol\":1360:1362  to */\n      dup6\n        /* \"@openzeppelin/contracts/token/ERC20/utils/SafeERC20.sol\":1364:1369  value */\n      dup6\n        /* \"@openzeppelin/contracts/token/ERC20/utils/SafeERC20.sol\":1328:1371  abi.encodeCall(token.transfer, (to, value)) */\n      add(0x24, mload(0x40))\n      tag_120\n      swap3\n      swap2\n      swap1\n      tag_121\n      jump\t// in\n    tag_120:\n      mload(0x40)\n      0x20\n      dup2\n      dup4\n      sub\n      sub\n      dup2\n      mstore\n      swap1\n      0x40\n      mstore\n      swap2\n      pop\n      0xe0\n      shl\n      0x20\n      dup3\n      add\n      dup1\n      mload\n      0xffffffffffffffffffffffffffffffffffffffffffffffffffffffff\n      dup4\n      dup2\n      dup4\n      and\n      or\n      dup4\n      mstore\n      pop\n      pop\n      pop\n      pop\n        /* \"@openzeppelin/contracts/token/ERC20/utils/SafeERC20.sol\":1301:1320  _callOptionalReturn */\n      tag_122\n        /* \"@openzeppelin/contracts/token/ERC20/utils/SafeERC20.sol\":1301:1372  _callOptionalReturn(token, abi.encodeCall(token.transfer, (to, value))) */\n      jump\t// in\n    tag_119:\n        /* \"@openzeppelin/contracts/token/ERC20/utils/SafeERC20.sol\":1219:1379  function safeTransfer(IERC20 token, address to, uint256 value) internal {... */\n      pop\n      pop\n      pop\n      jump\t// out\n        /* \"@openzeppelin/contracts/token/ERC20/utils/SafeERC20.sol\":1618:1806  function safeTransferFrom(IERC20 token, address from, address to, uint256 value) internal {... */\n    tag_109:\n        /* \"@openzeppelin/contracts/token/ERC20/utils/SafeERC20.sol\":1718:1799  _callOptionalReturn(token, abi.encodeCall(token.transferFrom, (from, to, value))) */\n      tag_124\n        /* \"@openzeppelin/contracts/token/ERC20/utils/SafeERC20.sol\":1738:1743  token */\n      dup5\n        /* \"@openzeppelin/contracts/token/ERC20/utils/SafeERC20.sol\":1760:1765  token */\n      dup6\n        /* \"@openzeppelin/contracts/token/ERC20/utils/SafeERC20.sol\":1760:1778  token.transferFrom */\n      0xffffffffffffffffffffffffffffffffffffffff\n      and\n      0x23b872dd\n        /* \"@openzeppelin/contracts/token/ERC20/utils/SafeERC20.sol\":1781:1785  from */\n      dup7\n        /* \"@openzeppelin/contracts/token/ERC20/utils/SafeERC20.sol\":1787:1789  to */\n      dup7\n        /* \"@openzeppelin/contracts/token/ERC20/utils/SafeERC20.sol\":1791:1796  value */\n      dup7\n        /* \"@openzeppelin/contracts/token/ERC20/utils/SafeERC20.sol\":1745:1798  abi.encodeCall(token.transferFrom, (from, to, value)) */\n      add(0x24, mload(0x40))\n      tag_125\n      swap4\n      swap3\n      swap2\n      swap1\n      tag_126\n      jump\t// in\n    tag_125:\n      mload(0x40)\n      0x20\n      dup2\n      dup4\n      sub\n      sub\n      dup2\n      mstore\n      swap1\n      0x40\n      mstore\n      swap2\n      pop\n      0xe0\n      shl\n      0x20\n      dup3\n      add\n      dup1\n      mload\n      0xffffffffffffffffffffffffffffffffffffffffffffffffffffffff\n      dup4\n      dup2\n      dup4\n      and\n      or\n      dup4\n      mstore\n      pop\n      pop\n      pop\n      pop\n        /* \"@openzeppelin/contracts/token/ERC20/utils/SafeERC20.sol\":1718:1737  _callOptionalReturn */\n      tag_122\n        /* \"@openzeppelin/contracts/token/ERC20/utils/SafeERC20.sol\":1718:1799  _callOptionalReturn(token, abi.encodeCall(token.transferFrom, (from, to, value))) */\n      jump\t// in\n    tag_124:\n        /* \"@openzeppelin/contracts/token/ERC20/utils/SafeERC20.sol\":1618:1806  function safeTransferFrom(IERC20 token, address from, address to, uint256 value) internal {... */\n      pop\n      pop\n      pop\n      pop\n      jump\t// out\n        /* \"@openzeppelin/contracts/token/ERC20/utils/SafeERC20.sol\":8370:9090  function _callOptionalReturn(IERC20 token, bytes memory data) private {... */\n    tag_122:\n        /* \"@openzeppelin/contracts/token/ERC20/utils/SafeERC20.sol\":8450:8468  uint256 returnSize */\n      0x00\n        /* \"@openzeppelin/contracts/token/ERC20/utils/SafeERC20.sol\":8478:8497  uint256 returnValue */\n      0x00\n        /* \"@openzeppelin/contracts/token/ERC20/utils/SafeERC20.sol\":8616:8620  0x20 */\n      0x20\n        /* \"@openzeppelin/contracts/token/ERC20/utils/SafeERC20.sol\":8613:8614  0 */\n      0x00\n        /* \"@openzeppelin/contracts/token/ERC20/utils/SafeERC20.sol\":8606:8610  data */\n      dup5\n        /* \"@openzeppelin/contracts/token/ERC20/utils/SafeERC20.sol\":8600:8611  mload(data) */\n      mload\n        /* \"@openzeppelin/contracts/token/ERC20/utils/SafeERC20.sol\":8593:8597  0x20 */\n      0x20\n        /* \"@openzeppelin/contracts/token/ERC20/utils/SafeERC20.sol\":8587:8591  data */\n      dup7\n        /* \"@openzeppelin/contracts/token/ERC20/utils/SafeERC20.sol\":8583:8598  add(data, 0x20) */\n      add\n        /* \"@openzeppelin/contracts/token/ERC20/utils/SafeERC20.sol\":8580:8581  0 */\n      0x00\n        /* \"@openzeppelin/contracts/token/ERC20/utils/SafeERC20.sol\":8573:8578  token */\n      dup9\n        /* \"@openzeppelin/contracts/token/ERC20/utils/SafeERC20.sol\":8566:8571  gas() */\n      gas\n        /* \"@openzeppelin/contracts/token/ERC20/utils/SafeERC20.sol\":8561:8621  call(gas(), token, 0, add(data, 0x20), mload(data), 0, 0x20) */\n      call\n        /* \"@openzeppelin/contracts/token/ERC20/utils/SafeERC20.sol\":8673:8680  success */\n      dup1\n        /* \"@openzeppelin/contracts/token/ERC20/utils/SafeERC20.sol\":8663:8839  if iszero(success) {... */\n      tag_128\n      jumpi\n        /* \"@openzeppelin/contracts/token/ERC20/utils/SafeERC20.sol\":8717:8721  0x40 */\n      0x40\n        /* \"@openzeppelin/contracts/token/ERC20/utils/SafeERC20.sol\":8711:8722  mload(0x40) */\n      mload\n        /* \"@openzeppelin/contracts/token/ERC20/utils/SafeERC20.sol\":8762:8778  returndatasize() */\n      returndatasize\n        /* \"@openzeppelin/contracts/token/ERC20/utils/SafeERC20.sol\":8759:8760  0 */\n      0x00\n        /* \"@openzeppelin/contracts/token/ERC20/utils/SafeERC20.sol\":8754:8757  ptr */\n      dup3\n        /* \"@openzeppelin/contracts/token/ERC20/utils/SafeERC20.sol\":8739:8779  returndatacopy(ptr, 0, returndatasize()) */\n      returndatacopy\n        /* \"@openzeppelin/contracts/token/ERC20/utils/SafeERC20.sol\":8808:8824  returndatasize() */\n      returndatasize\n        /* \"@openzeppelin/contracts/token/ERC20/utils/SafeERC20.sol\":8803:8806  ptr */\n      dup2\n        /* \"@openzeppelin/contracts/token/ERC20/utils/SafeERC20.sol\":8796:8825  revert(ptr, returndatasize()) */\n      revert\n        /* \"@openzeppelin/contracts/token/ERC20/utils/SafeERC20.sol\":8663:8839  if iszero(success) {... */\n    tag_128:\n        /* \"@openzeppelin/contracts/token/ERC20/utils/SafeERC20.sol\":8866:8882  returndatasize() */\n      returndatasize\n        /* \"@openzeppelin/contracts/token/ERC20/utils/SafeERC20.sol\":8852:8882  returnSize := returndatasize() */\n      swap3\n      pop\n        /* \"@openzeppelin/contracts/token/ERC20/utils/SafeERC20.sol\":8916:8917  0 */\n      0x00\n        /* \"@openzeppelin/contracts/token/ERC20/utils/SafeERC20.sol\":8910:8918  mload(0) */\n      mload\n        /* \"@openzeppelin/contracts/token/ERC20/utils/SafeERC20.sol\":8895:8918  returnValue := mload(0) */\n      swap2\n      pop\n        /* \"@openzeppelin/contracts/token/ERC20/utils/SafeERC20.sol\":8532:8928  {... */\n      pop\n        /* \"@openzeppelin/contracts/token/ERC20/utils/SafeERC20.sol\":8956:8957  0 */\n      0x00\n        /* \"@openzeppelin/contracts/token/ERC20/utils/SafeERC20.sol\":8942:8952  returnSize */\n      dup3\n        /* \"@openzeppelin/contracts/token/ERC20/utils/SafeERC20.sol\":8942:8957  returnSize == 0 */\n      eq\n        /* \"@openzeppelin/contracts/token/ERC20/utils/SafeERC20.sol\":8942:9010  returnSize == 0 ? address(token).code.length == 0 : returnValue != 1 */\n      tag_129\n      jumpi\n        /* \"@openzeppelin/contracts/token/ERC20/utils/SafeERC20.sol\":9009:9010  1 */\n      0x01\n        /* \"@openzeppelin/contracts/token/ERC20/utils/SafeERC20.sol\":8994:9005  returnValue */\n      dup2\n        /* \"@openzeppelin/contracts/token/ERC20/utils/SafeERC20.sol\":8994:9010  returnValue != 1 */\n      eq\n      iszero\n        /* \"@openzeppelin/contracts/token/ERC20/utils/SafeERC20.sol\":8942:9010  returnSize == 0 ? address(token).code.length == 0 : returnValue != 1 */\n      jump(tag_130)\n    tag_129:\n        /* \"@openzeppelin/contracts/token/ERC20/utils/SafeERC20.sol\":8990:8991  0 */\n      0x00\n        /* \"@openzeppelin/contracts/token/ERC20/utils/SafeERC20.sol\":8968:8973  token */\n      dup5\n        /* \"@openzeppelin/contracts/token/ERC20/utils/SafeERC20.sol\":8960:8986  address(token).code.length */\n      0xffffffffffffffffffffffffffffffffffffffff\n      and\n      extcodesize\n        /* \"@openzeppelin/contracts/token/ERC20/utils/SafeERC20.sol\":8960:8991  address(token).code.length == 0 */\n      eq\n        /* \"@openzeppelin/contracts/token/ERC20/utils/SafeERC20.sol\":8942:9010  returnSize == 0 ? address(token).code.length == 0 : returnValue != 1 */\n    tag_130:\n        /* \"@openzeppelin/contracts/token/ERC20/utils/SafeERC20.sol\":8938:9084  if (returnSize == 0 ? address(token).code.length == 0 : returnValue != 1) {... */\n      iszero\n      tag_131\n      jumpi\n        /* \"@openzeppelin/contracts/token/ERC20/utils/SafeERC20.sol\":9066:9071  token */\n      dup4\n        /* \"@openzeppelin/contracts/token/ERC20/utils/SafeERC20.sol\":9033:9073  SafeERC20FailedOperation(address(token)) */\n      mload(0x40)\n      0x5274afe700000000000000000000000000000000000000000000000000000000\n      dup2\n      mstore\n      0x04\n      add\n      tag_132\n      swap2\n      swap1\n      tag_18\n      jump\t// in\n    tag_132:\n      mload(0x40)\n      dup1\n      swap2\n      sub\n      swap1\n      revert\n        /* \"@openzeppelin/contracts/token/ERC20/utils/SafeERC20.sol\":8938:9084  if (returnSize == 0 ? address(token).code.length == 0 : returnValue != 1) {... */\n    tag_131:\n        /* \"@openzeppelin/contracts/token/ERC20/utils/SafeERC20.sol\":8440:9090  {... */\n      pop\n      pop\n        /* \"@openzeppelin/contracts/token/ERC20/utils/SafeERC20.sol\":8370:9090  function _callOptionalReturn(IERC20 token, bytes memory data) private {... */\n      pop\n      pop\n      jump\t// out\n        /* \"#utility.yul\":7:133   */\n    tag_133:\n        /* \"#utility.yul\":44:51   */\n      0x00\n        /* \"#utility.yul\":84:126   */\n      0xffffffffffffffffffffffffffffffffffffffff\n        /* \"#utility.yul\":77:82   */\n      dup3\n        /* \"#utility.yul\":73:127   */\n      and\n        /* \"#utility.yul\":62:127   */\n      swap1\n      pop\n        /* \"#utility.yul\":7:133   */\n      swap2\n      swap1\n      pop\n      jump\t// out\n        /* \"#utility.yul\":139:235   */\n    tag_134:\n        /* \"#utility.yul\":176:183   */\n      0x00\n        /* \"#utility.yul\":205:229   */\n      tag_171\n        /* \"#utility.yul\":223:228   */\n      dup3\n        /* \"#utility.yul\":205:229   */\n      tag_133\n      jump\t// in\n    tag_171:\n        /* \"#utility.yul\":194:229   */\n      swap1\n      pop\n        /* \"#utility.yul\":139:235   */\n      swap2\n      swap1\n      pop\n      jump\t// out\n        /* \"#utility.yul\":241:359   */\n    tag_135:\n        /* \"#utility.yul\":328:352   */\n      tag_173\n        /* \"#utility.yul\":346:351   */\n      dup2\n        /* \"#utility.yul\":328:352   */\n      tag_134\n      jump\t// in\n    tag_173:\n        /* \"#utility.yul\":323:326   */\n      dup3\n        /* \"#utility.yul\":316:353   */\n      mstore\n        /* \"#utility.yul\":241:359   */\n      pop\n      pop\n      jump\t// out\n        /* \"#utility.yul\":365:587   */\n    tag_18:\n        /* \"#utility.yul\":458:462   */\n      0x00\n        /* \"#utility.yul\":496:498   */\n      0x20\n        /* \"#utility.yul\":485:494   */\n      dup3\n        /* \"#utility.yul\":481:499   */\n      add\n        /* \"#utility.yul\":473:499   */\n      swap1\n      pop\n        /* \"#utility.yul\":509:580   */\n      tag_175\n        /* \"#utility.yul\":577:578   */\n      0x00\n        /* \"#utility.yul\":566:575   */\n      dup4\n        /* \"#utility.yul\":562:579   */\n      add\n        /* \"#utility.yul\":553:559   */\n      dup5\n        /* \"#utility.yul\":509:580   */\n      tag_135\n      jump\t// in\n    tag_175:\n        /* \"#utility.yul\":365:587   */\n      swap3\n      swap2\n      pop\n      pop\n      jump\t// out\n        /* \"#utility.yul\":593:683   */\n    tag_136:\n        /* \"#utility.yul\":627:634   */\n      0x00\n        /* \"#utility.yul\":670:675   */\n      dup2\n        /* \"#utility.yul\":663:676   */\n      iszero\n        /* \"#utility.yul\":656:677   */\n      iszero\n        /* \"#utility.yul\":645:677   */\n      swap1\n      pop\n        /* \"#utility.yul\":593:683   */\n      swap2\n      swap1\n      pop\n      jump\t// out\n        /* \"#utility.yul\":689:798   */\n    tag_137:\n        /* \"#utility.yul\":770:791   */\n      tag_178\n        /* \"#utility.yul\":785:790   */\n      dup2\n        /* \"#utility.yul\":770:791   */\n      tag_136\n      jump\t// in\n    tag_178:\n        /* \"#utility.yul\":765:768   */\n      dup3\n        /* \"#utility.yul\":758:792   */\n      mstore\n        /* \"#utility.yul\":689:798   */\n      pop\n      pop\n      jump\t// out\n        /* \"#utility.yul\":804:1014   */\n    tag_22:\n        /* \"#utility.yul\":891:895   */\n      0x00\n        /* \"#utility.yul\":929:931   */\n      0x20\n        /* \"#utility.yul\":918:927   */\n      dup3\n        /* \"#utility.yul\":914:932   */\n      add\n        /* \"#utility.yul\":906:932   */\n      swap1\n      pop\n        /* \"#utility.yul\":942:1007   */\n      tag_180\n        /* \"#utility.yul\":1004:1005   */\n      0x00\n        /* \"#utility.yul\":993:1002   */\n      dup4\n        /* \"#utility.yul\":989:1006   */\n      add\n        /* \"#utility.yul\":980:986   */\n      dup5\n        /* \"#utility.yul\":942:1007   */\n      tag_137\n      jump\t// in\n    tag_180:\n        /* \"#utility.yul\":804:1014   */\n      swap3\n      swap2\n      pop\n      pop\n      jump\t// out\n        /* \"#utility.yul\":1020:1097   */\n    tag_138:\n        /* \"#utility.yul\":1057:1064   */\n      0x00\n        /* \"#utility.yul\":1086:1091   */\n      dup2\n        /* \"#utility.yul\":1075:1091   */\n      swap1\n      pop\n        /* \"#utility.yul\":1020:1097   */\n      swap2\n      swap1\n      pop\n      jump\t// out\n        /* \"#utility.yul\":1103:1221   */\n    tag_139:\n        /* \"#utility.yul\":1190:1214   */\n      tag_183\n        /* \"#utility.yul\":1208:1213   */\n      dup2\n        /* \"#utility.yul\":1190:1214   */\n      tag_138\n      jump\t// in\n    tag_183:\n        /* \"#utility.yul\":1185:1188   */\n      dup3\n        /* \"#utility.yul\":1178:1215   */\n      mstore\n        /* \"#utility.yul\":1103:1221   */\n      pop\n      pop\n      jump\t// out\n        /* \"#utility.yul\":1227:1669   */\n    tag_36:\n        /* \"#utility.yul\":1376:1380   */\n      0x00\n        /* \"#utility.yul\":1414:1416   */\n      0x60\n        /* \"#utility.yul\":1403:1412   */\n      dup3\n        /* \"#utility.yul\":1399:1417   */\n      add\n        /* \"#utility.yul\":1391:1417   */\n      swap1\n      pop\n        /* \"#utility.yul\":1427:1498   */\n      tag_185\n        /* \"#utility.yul\":1495:1496   */\n      0x00\n        /* \"#utility.yul\":1484:1493   */\n      dup4\n        /* \"#utility.yul\":1480:1497   */\n      add\n        /* \"#utility.yul\":1471:1477   */\n      dup7\n        /* \"#utility.yul\":1427:1498   */\n      tag_139\n      jump\t// in\n    tag_185:\n        /* \"#utility.yul\":1508:1580   */\n      tag_186\n        /* \"#utility.yul\":1576:1578   */\n      0x20\n        /* \"#utility.yul\":1565:1574   */\n      dup4\n        /* \"#utility.yul\":1561:1579   */\n      add\n        /* \"#utility.yul\":1552:1558   */\n      dup6\n        /* \"#utility.yul\":1508:1580   */\n      tag_139\n      jump\t// in\n    tag_186:\n        /* \"#utility.yul\":1590:1662   */\n      tag_187\n        /* \"#utility.yul\":1658:1660   */\n      0x40\n        /* \"#utility.yul\":1647:1656   */\n      dup4\n        /* \"#utility.yul\":1643:1661   */\n      add\n        /* \"#utility.yul\":1634:1640   */\n      dup5\n        /* \"#utility.yul\":1590:1662   */\n      tag_139\n      jump\t// in\n    tag_187:\n        /* \"#utility.yul\":1227:1669   */\n      swap5\n      swap4\n      pop\n      pop\n      pop\n      pop\n      jump\t// out\n        /* \"#utility.yul\":1675:1897   */\n    tag_40:\n        /* \"#utility.yul\":1768:1772   */\n      0x00\n        /* \"#utility.yul\":1806:1808   */\n      0x20\n        /* \"#utility.yul\":1795:1804   */\n      dup3\n        /* \"#utility.yul\":1791:1809   */\n      add\n        /* \"#utility.yul\":1783:1809   */\n      swap1\n      pop\n        /* \"#utility.yul\":1819:1890   */\n      tag_189\n        /* \"#utility.yul\":1887:1888   */\n      0x00\n        /* \"#utility.yul\":1876:1885   */\n      dup4\n        /* \"#utility.yul\":1872:1889   */\n      add\n        /* \"#utility.yul\":1863:1869   */\n      dup5\n        /* \"#utility.yul\":1819:1890   */\n      tag_139\n      jump\t// in\n    tag_189:\n        /* \"#utility.yul\":1675:1897   */\n      swap3\n      swap2\n      pop\n      pop\n      jump\t// out\n        /* \"#utility.yul\":1984:2101   */\n    tag_141:\n        /* \"#utility.yul\":2093:2094   */\n      0x00\n        /* \"#utility.yul\":2090:2091   */\n      0x00\n        /* \"#utility.yul\":2083:2095   */\n      revert\n        /* \"#utility.yul\":2230:2352   */\n    tag_143:\n        /* \"#utility.yul\":2303:2327   */\n      tag_194\n        /* \"#utility.yul\":2321:2326   */\n      dup2\n        /* \"#utility.yul\":2303:2327   */\n      tag_138\n      jump\t// in\n    tag_194:\n        /* \"#utility.yul\":2296:2301   */\n      dup2\n        /* \"#utility.yul\":2293:2328   */\n      eq\n        /* \"#utility.yul\":2283:2346   */\n      tag_195\n      jumpi\n        /* \"#utility.yul\":2342:2343   */\n      0x00\n        /* \"#utility.yul\":2339:2340   */\n      0x00\n        /* \"#utility.yul\":2332:2344   */\n      revert\n        /* \"#utility.yul\":2283:2346   */\n    tag_195:\n        /* \"#utility.yul\":2230:2352   */\n      pop\n      jump\t// out\n        /* \"#utility.yul\":2358:2497   */\n    tag_144:\n        /* \"#utility.yul\":2404:2409   */\n      0x00\n        /* \"#utility.yul\":2442:2448   */\n      dup2\n        /* \"#utility.yul\":2429:2449   */\n      calldataload\n        /* \"#utility.yul\":2420:2449   */\n      swap1\n      pop\n        /* \"#utility.yul\":2458:2491   */\n      tag_197\n        /* \"#utility.yul\":2485:2490   */\n      dup2\n        /* \"#utility.yul\":2458:2491   */\n      tag_143\n      jump\t// in\n    tag_197:\n        /* \"#utility.yul\":2358:2497   */\n      swap3\n      swap2\n      pop\n      pop\n      jump\t// out\n        /* \"#utility.yul\":2503:2832   */\n    tag_43:\n        /* \"#utility.yul\":2562:2568   */\n      0x00\n        /* \"#utility.yul\":2611:2613   */\n      0x20\n        /* \"#utility.yul\":2599:2608   */\n      dup3\n        /* \"#utility.yul\":2590:2597   */\n      dup5\n        /* \"#utility.yul\":2586:2609   */\n      sub\n        /* \"#utility.yul\":2582:2614   */\n      slt\n        /* \"#utility.yul\":2579:2698   */\n      iszero\n      tag_199\n      jumpi\n        /* \"#utility.yul\":2617:2696   */\n      tag_200\n      tag_141\n      jump\t// in\n    tag_200:\n        /* \"#utility.yul\":2579:2698   */\n    tag_199:\n        /* \"#utility.yul\":2737:2738   */\n      0x00\n        /* \"#utility.yul\":2762:2815   */\n      tag_201\n        /* \"#utility.yul\":2807:2814   */\n      dup5\n        /* \"#utility.yul\":2798:2804   */\n      dup3\n        /* \"#utility.yul\":2787:2796   */\n      dup6\n        /* \"#utility.yul\":2783:2805   */\n      add\n        /* \"#utility.yul\":2762:2815   */\n      tag_144\n      jump\t// in\n    tag_201:\n        /* \"#utility.yul\":2752:2815   */\n      swap2\n      pop\n        /* \"#utility.yul\":2708:2825   */\n      pop\n        /* \"#utility.yul\":2503:2832   */\n      swap3\n      swap2\n      pop\n      pop\n      jump\t// out\n        /* \"#utility.yul\":2838:2898   */\n    tag_145:\n        /* \"#utility.yul\":2866:2869   */\n      0x00\n        /* \"#utility.yul\":2887:2892   */\n      dup2\n        /* \"#utility.yul\":2880:2892   */\n      swap1\n      pop\n        /* \"#utility.yul\":2838:2898   */\n      swap2\n      swap1\n      pop\n      jump\t// out\n        /* \"#utility.yul\":2904:3046   */\n    tag_146:\n        /* \"#utility.yul\":2954:2963   */\n      0x00\n        /* \"#utility.yul\":2987:3040   */\n      tag_204\n        /* \"#utility.yul\":3005:3039   */\n      tag_205\n        /* \"#utility.yul\":3014:3038   */\n      tag_206\n        /* \"#utility.yul\":3032:3037   */\n      dup5\n        /* \"#utility.yul\":3014:3038   */\n      tag_133\n      jump\t// in\n    tag_206:\n        /* \"#utility.yul\":3005:3039   */\n      tag_145\n      jump\t// in\n    tag_205:\n        /* \"#utility.yul\":2987:3040   */\n      tag_133\n      jump\t// in\n    tag_204:\n        /* \"#utility.yul\":2974:3040   */\n      swap1\n      pop\n        /* \"#utility.yul\":2904:3046   */\n      swap2\n      swap1\n      pop\n      jump\t// out\n        /* \"#utility.yul\":3052:3178   */\n    tag_147:\n        /* \"#utility.yul\":3102:3111   */\n      0x00\n        /* \"#utility.yul\":3135:3172   */\n      tag_208\n        /* \"#utility.yul\":3166:3171   */\n      dup3\n        /* \"#utility.yul\":3135:3172   */\n      tag_146\n      jump\t// in\n    tag_208:\n        /* \"#utility.yul\":3122:3172   */\n      swap1\n      pop\n        /* \"#utility.yul\":3052:3178   */\n      swap2\n      swap1\n      pop\n      jump\t// out\n        /* \"#utility.yul\":3184:3323   */\n    tag_148:\n        /* \"#utility.yul\":3247:3256   */\n      0x00\n        /* \"#utility.yul\":3280:3317   */\n      tag_210\n        /* \"#utility.yul\":3311:3316   */\n      dup3\n        /* \"#utility.yul\":3280:3317   */\n      tag_147\n      jump\t// in\n    tag_210:\n        /* \"#utility.yul\":3267:3317   */\n      swap1\n      pop\n        /* \"#utility.yul\":3184:3323   */\n      swap2\n      swap1\n      pop\n      jump\t// out\n        /* \"#utility.yul\":3329:3486   */\n    tag_149:\n        /* \"#utility.yul\":3429:3479   */\n      tag_212\n        /* \"#utility.yul\":3473:3478   */\n      dup2\n        /* \"#utility.yul\":3429:3479   */\n      tag_148\n      jump\t// in\n    tag_212:\n        /* \"#utility.yul\":3424:3427   */\n      dup3\n        /* \"#utility.yul\":3417:3480   */\n      mstore\n        /* \"#utility.yul\":3329:3486   */\n      pop\n      pop\n      jump\t// out\n        /* \"#utility.yul\":3492:3740   */\n    tag_50:\n        /* \"#utility.yul\":3598:3602   */\n      0x00\n        /* \"#utility.yul\":3636:3638   */\n      0x20\n        /* \"#utility.yul\":3625:3634   */\n      dup3\n        /* \"#utility.yul\":3621:3639   */\n      add\n        /* \"#utility.yul\":3613:3639   */\n      swap1\n      pop\n        /* \"#utility.yul\":3649:3733   */\n      tag_214\n        /* \"#utility.yul\":3730:3731   */\n      0x00\n        /* \"#utility.yul\":3719:3728   */\n      dup4\n        /* \"#utility.yul\":3715:3732   */\n      add\n        /* \"#utility.yul\":3706:3712   */\n      dup5\n        /* \"#utility.yul\":3649:3733   */\n      tag_149\n      jump\t// in\n    tag_214:\n        /* \"#utility.yul\":3492:3740   */\n      swap3\n      swap2\n      pop\n      pop\n      jump\t// out\n        /* \"#utility.yul\":3746:3915   */\n    tag_150:\n        /* \"#utility.yul\":3830:3841   */\n      0x00\n        /* \"#utility.yul\":3864:3870   */\n      dup3\n        /* \"#utility.yul\":3859:3862   */\n      dup3\n        /* \"#utility.yul\":3852:3871   */\n      mstore\n        /* \"#utility.yul\":3904:3908   */\n      0x20\n        /* \"#utility.yul\":3899:3902   */\n      dup3\n        /* \"#utility.yul\":3895:3909   */\n      add\n        /* \"#utility.yul\":3880:3909   */\n      swap1\n      pop\n        /* \"#utility.yul\":3746:3915   */\n      swap3\n      swap2\n      pop\n      pop\n      jump\t// out\n        /* \"#utility.yul\":3921:4092   */\n    tag_151:\n        /* \"#utility.yul\":4061:4084   */\n      0x4f6e6c792062757965722063616e20726566756e640000000000000000000000\n        /* \"#utility.yul\":4057:4058   */\n      0x00\n        /* \"#utility.yul\":4049:4055   */\n      dup3\n        /* \"#utility.yul\":4045:4059   */\n      add\n        /* \"#utility.yul\":4038:4085   */\n      mstore\n        /* \"#utility.yul\":3921:4092   */\n      pop\n      jump\t// out\n        /* \"#utility.yul\":4098:4464   */\n    tag_152:\n        /* \"#utility.yul\":4240:4243   */\n      0x00\n        /* \"#utility.yul\":4261:4328   */\n      tag_218\n        /* \"#utility.yul\":4325:4327   */\n      0x15\n        /* \"#utility.yul\":4320:4323   */\n      dup4\n        /* \"#utility.yul\":4261:4328   */\n      tag_150\n      jump\t// in\n    tag_218:\n        /* \"#utility.yul\":4254:4328   */\n      swap2\n      pop\n        /* \"#utility.yul\":4337:4430   */\n      tag_219\n        /* \"#utility.yul\":4426:4429   */\n      dup3\n        /* \"#utility.yul\":4337:4430   */\n      tag_151\n      jump\t// in\n    tag_219:\n        /* \"#utility.yul\":4455:4457   */\n      0x20\n        /* \"#utility.yul\":4450:4453   */\n      dup3\n        /* \"#utility.yul\":4446:4458   */\n      add\n        /* \"#utility.yul\":4439:4458   */\n      swap1\n      pop\n        /* \"#utility.yul\":4098:4464   */\n      swap2\n      swap1\n      pop\n      jump\t// out\n        /* \"#utility.yul\":4470:4889   */\n    tag_54:\n        /* \"#utility.yul\":4636:4640   */\n      0x00\n        /* \"#utility.yul\":4674:4676   */\n      0x20\n        /* \"#utility.yul\":4663:4672   */\n      dup3\n        /* \"#utility.yul\":4659:4677   */\n      add\n        /* \"#utility.yul\":4651:4677   */\n      swap1\n      pop\n        /* \"#utility.yul\":4723:4732   */\n      dup2\n        /* \"#utility.yul\":4717:4721   */\n      dup2\n        /* \"#utility.yul\":4713:4733   */\n      sub\n        /* \"#utility.yul\":4709:4710   */\n      0x00\n        /* \"#utility.yul\":4698:4707   */\n      dup4\n        /* \"#utility.yul\":4694:4711   */\n      add\n        /* \"#utility.yul\":4687:4734   */\n      mstore\n        /* \"#utility.yul\":4751:4882   */\n      tag_221\n        /* \"#utility.yul\":4877:4881   */\n      dup2\n        /* \"#utility.yul\":4751:4882   */\n      tag_152\n      jump\t// in\n    tag_221:\n        /* \"#utility.yul\":4743:4882   */\n      swap1\n      pop\n        /* \"#utility.yul\":4470:4889   */\n      swap2\n      swap1\n      pop\n      jump\t// out\n        /* \"#utility.yul\":4895:5074   */\n    tag_153:\n        /* \"#utility.yul\":5035:5066   */\n      0x5472616e73616374696f6e20616c726561647920636f6d706c65746564000000\n        /* \"#utility.yul\":5031:5032   */\n      0x00\n        /* \"#utility.yul\":5023:5029   */\n      dup3\n        /* \"#utility.yul\":5019:5033   */\n      add\n        /* \"#utility.yul\":5012:5067   */\n      mstore\n        /* \"#utility.yul\":4895:5074   */\n      pop\n      jump\t// out\n        /* \"#utility.yul\":5080:5446   */\n    tag_154:\n        /* \"#utility.yul\":5222:5225   */\n      0x00\n        /* \"#utility.yul\":5243:5310   */\n      tag_224\n        /* \"#utility.yul\":5307:5309   */\n      0x1d\n        /* \"#utility.yul\":5302:5305   */\n      dup4\n        /* \"#utility.yul\":5243:5310   */\n      tag_150\n      jump\t// in\n    tag_224:\n        /* \"#utility.yul\":5236:5310   */\n      swap2\n      pop\n        /* \"#utility.yul\":5319:5412   */\n      tag_225\n        /* \"#utility.yul\":5408:5411   */\n      dup3\n        /* \"#utility.yul\":5319:5412   */\n      tag_153\n      jump\t// in\n    tag_225:\n        /* \"#utility.yul\":5437:5439   */\n      0x20\n        /* \"#utility.yul\":5432:5435   */\n      dup3\n        /* \"#utility.yul\":5428:5440   */\n      add\n        /* \"#utility.yul\":5421:5440   */\n      swap1\n      pop\n        /* \"#utility.yul\":5080:5446   */\n      swap2\n      swap1\n      pop\n      jump\t// out\n        /* \"#utility.yul\":5452:5871   */\n    tag_58:\n        /* \"#utility.yul\":5618:5622   */\n      0x00\n        /* \"#utility.yul\":5656:5658   */\n      0x20\n        /* \"#utility.yul\":5645:5654   */\n      dup3\n        /* \"#utility.yul\":5641:5659   */\n      add\n        /* \"#utility.yul\":5633:5659   */\n      swap1\n      pop\n        /* \"#utility.yul\":5705:5714   */\n      dup2\n        /* \"#utility.yul\":5699:5703   */\n      dup2\n        /* \"#utility.yul\":5695:5715   */\n      sub\n        /* \"#utility.yul\":5691:5692   */\n      0x00\n        /* \"#utility.yul\":5680:5689   */\n      dup4\n        /* \"#utility.yul\":5676:5693   */\n      add\n        /* \"#utility.yul\":5669:5716   */\n      mstore\n        /* \"#utility.yul\":5733:5864   */\n      tag_227\n        /* \"#utility.yul\":5859:5863   */\n      dup2\n        /* \"#utility.yul\":5733:5864   */\n      tag_154\n      jump\t// in\n    tag_227:\n        /* \"#utility.yul\":5725:5864   */\n      swap1\n      pop\n        /* \"#utility.yul\":5452:5871   */\n      swap2\n      swap1\n      pop\n      jump\t// out\n        /* \"#utility.yul\":5877:6020   */\n    tag_155:\n        /* \"#utility.yul\":5934:5939   */\n      0x00\n        /* \"#utility.yul\":5965:5971   */\n      dup2\n        /* \"#utility.yul\":5959:5972   */\n      mload\n        /* \"#utility.yul\":5950:5972   */\n      swap1\n      pop\n        /* \"#utility.yul\":5981:6014   */\n      tag_229\n        /* \"#utility.yul\":6008:6013   */\n      dup2\n        /* \"#utility.yul\":5981:6014   */\n      tag_143\n      jump\t// in\n    tag_229:\n        /* \"#utility.yul\":5877:6020   */\n      swap3\n      swap2\n      pop\n      pop\n      jump\t// out\n        /* \"#utility.yul\":6026:6377   */\n    tag_63:\n        /* \"#utility.yul\":6096:6102   */\n      0x00\n        /* \"#utility.yul\":6145:6147   */\n      0x20\n        /* \"#utility.yul\":6133:6142   */\n      dup3\n        /* \"#utility.yul\":6124:6131   */\n      dup5\n        /* \"#utility.yul\":6120:6143   */\n      sub\n        /* \"#utility.yul\":6116:6148   */\n      slt\n        /* \"#utility.yul\":6113:6232   */\n      iszero\n      tag_231\n      jumpi\n        /* \"#utility.yul\":6151:6230   */\n      tag_232\n      tag_141\n      jump\t// in\n    tag_232:\n        /* \"#utility.yul\":6113:6232   */\n    tag_231:\n        /* \"#utility.yul\":6271:6272   */\n      0x00\n        /* \"#utility.yul\":6296:6360   */\n      tag_233\n        /* \"#utility.yul\":6352:6359   */\n      dup5\n        /* \"#utility.yul\":6343:6349   */\n      dup3\n        /* \"#utility.yul\":6332:6341   */\n      dup6\n        /* \"#utility.yul\":6328:6350   */\n      add\n        /* \"#utility.yul\":6296:6360   */\n      tag_155\n      jump\t// in\n    tag_233:\n        /* \"#utility.yul\":6286:6360   */\n      swap2\n      pop\n        /* \"#utility.yul\":6242:6370   */\n      pop\n        /* \"#utility.yul\":6026:6377   */\n      swap3\n      swap2\n      pop\n      pop\n      jump\t// out\n        /* \"#utility.yul\":6383:6553   */\n    tag_156:\n        /* \"#utility.yul\":6523:6545   */\n      0x496e73756666696369656e742062616c616e6365000000000000000000000000\n        /* \"#utility.yul\":6519:6520   */\n      0x00\n        /* \"#utility.yul\":6511:6517   */\n      dup3\n        /* \"#utility.yul\":6507:6521   */\n      add\n        /* \"#utility.yul\":6500:6546   */\n      mstore\n        /* \"#utility.yul\":6383:6553   */\n      pop\n      jump\t// out\n        /* \"#utility.yul\":6559:6925   */\n    tag_157:\n        /* \"#utility.yul\":6701:6704   */\n      0x00\n        /* \"#utility.yul\":6722:6789   */\n      tag_236\n        /* \"#utility.yul\":6786:6788   */\n      0x14\n        /* \"#utility.yul\":6781:6784   */\n      dup4\n        /* \"#utility.yul\":6722:6789   */\n      tag_150\n      jump\t// in\n    tag_236:\n        /* \"#utility.yul\":6715:6789   */\n      swap2\n      pop\n        /* \"#utility.yul\":6798:6891   */\n      tag_237\n        /* \"#utility.yul\":6887:6890   */\n      dup3\n        /* \"#utility.yul\":6798:6891   */\n      tag_156\n      jump\t// in\n    tag_237:\n        /* \"#utility.yul\":6916:6918   */\n      0x20\n        /* \"#utility.yul\":6911:6914   */\n      dup3\n        /* \"#utility.yul\":6907:6919   */\n      add\n        /* \"#utility.yul\":6900:6919   */\n      swap1\n      pop\n        /* \"#utility.yul\":6559:6925   */\n      swap2\n      swap1\n      pop\n      jump\t// out\n        /* \"#utility.yul\":6931:7350   */\n    tag_66:\n        /* \"#utility.yul\":7097:7101   */\n      0x00\n        /* \"#utility.yul\":7135:7137   */\n      0x20\n        /* \"#utility.yul\":7124:7133   */\n      dup3\n        /* \"#utility.yul\":7120:7138   */\n      add\n        /* \"#utility.yul\":7112:7138   */\n      swap1\n      pop\n        /* \"#utility.yul\":7184:7193   */\n      dup2\n        /* \"#utility.yul\":7178:7182   */\n      dup2\n        /* \"#utility.yul\":7174:7194   */\n      sub\n        /* \"#utility.yul\":7170:7171   */\n      0x00\n        /* \"#utility.yul\":7159:7168   */\n      dup4\n        /* \"#utility.yul\":7155:7172   */\n      add\n        /* \"#utility.yul\":7148:7195   */\n      mstore\n        /* \"#utility.yul\":7212:7343   */\n      tag_239\n        /* \"#utility.yul\":7338:7342   */\n      dup2\n        /* \"#utility.yul\":7212:7343   */\n      tag_157\n      jump\t// in\n    tag_239:\n        /* \"#utility.yul\":7204:7343   */\n      swap1\n      pop\n        /* \"#utility.yul\":6931:7350   */\n      swap2\n      swap1\n      pop\n      jump\t// out\n        /* \"#utility.yul\":7356:7531   */\n    tag_158:\n        /* \"#utility.yul\":7496:7523   */\n      0x46756c66696c6c6d656e74206e6f7420636f6e6669726d656400000000000000\n        /* \"#utility.yul\":7492:7493   */\n      0x00\n        /* \"#utility.yul\":7484:7490   */\n      dup3\n        /* \"#utility.yul\":7480:7494   */\n      add\n        /* \"#utility.yul\":7473:7524   */\n      mstore\n        /* \"#utility.yul\":7356:7531   */\n      pop\n      jump\t// out\n        /* \"#utility.yul\":7537:7903   */\n    tag_159:\n        /* \"#utility.yul\":7679:7682   */\n      0x00\n        /* \"#utility.yul\":7700:7767   */\n      tag_242\n        /* \"#utility.yul\":7764:7766   */\n      0x19\n        /* \"#utility.yul\":7759:7762   */\n      dup4\n        /* \"#utility.yul\":7700:7767   */\n      tag_150\n      jump\t// in\n    tag_242:\n        /* \"#utility.yul\":7693:7767   */\n      swap2\n      pop\n        /* \"#utility.yul\":7776:7869   */\n      tag_243\n        /* \"#utility.yul\":7865:7868   */\n      dup3\n        /* \"#utility.yul\":7776:7869   */\n      tag_158\n      jump\t// in\n    tag_243:\n        /* \"#utility.yul\":7894:7896   */\n      0x20\n        /* \"#utility.yul\":7889:7892   */\n      dup3\n        /* \"#utility.yul\":7885:7897   */\n      add\n        /* \"#utility.yul\":7878:7897   */\n      swap1\n      pop\n        /* \"#utility.yul\":7537:7903   */\n      swap2\n      swap1\n      pop\n      jump\t// out\n        /* \"#utility.yul\":7909:8328   */\n    tag_73:\n        /* \"#utility.yul\":8075:8079   */\n      0x00\n        /* \"#utility.yul\":8113:8115   */\n      0x20\n        /* \"#utility.yul\":8102:8111   */\n      dup3\n        /* \"#utility.yul\":8098:8116   */\n      add\n        /* \"#utility.yul\":8090:8116   */\n      swap1\n      pop\n        /* \"#utility.yul\":8162:8171   */\n      dup2\n        /* \"#utility.yul\":8156:8160   */\n      dup2\n        /* \"#utility.yul\":8152:8172   */\n      sub\n        /* \"#utility.yul\":8148:8149   */\n      0x00\n        /* \"#utility.yul\":8137:8146   */\n      dup4\n        /* \"#utility.yul\":8133:8150   */\n      add\n        /* \"#utility.yul\":8126:8173   */\n      mstore\n        /* \"#utility.yul\":8190:8321   */\n      tag_245\n        /* \"#utility.yul\":8316:8320   */\n      dup2\n        /* \"#utility.yul\":8190:8321   */\n      tag_159\n      jump\t// in\n    tag_245:\n        /* \"#utility.yul\":8182:8321   */\n      swap1\n      pop\n        /* \"#utility.yul\":7909:8328   */\n      swap2\n      swap1\n      pop\n      jump\t// out\n        /* \"#utility.yul\":8334:8506   */\n    tag_160:\n        /* \"#utility.yul\":8474:8498   */\n      0x46756e647320616c726561647920726566756e64656400000000000000000000\n        /* \"#utility.yul\":8470:8471   */\n      0x00\n        /* \"#utility.yul\":8462:8468   */\n      dup3\n        /* \"#utility.yul\":8458:8472   */\n      add\n        /* \"#utility.yul\":8451:8499   */\n      mstore\n        /* \"#utility.yul\":8334:8506   */\n      pop\n      jump\t// out\n        /* \"#utility.yul\":8512:8878   */\n    tag_161:\n        /* \"#utility.yul\":8654:8657   */\n      0x00\n        /* \"#utility.yul\":8675:8742   */\n      tag_248\n        /* \"#utility.yul\":8739:8741   */\n      0x16\n        /* \"#utility.yul\":8734:8737   */\n      dup4\n        /* \"#utility.yul\":8675:8742   */\n      tag_150\n      jump\t// in\n    tag_248:\n        /* \"#utility.yul\":8668:8742   */\n      swap2\n      pop\n        /* \"#utility.yul\":8751:8844   */\n      tag_249\n        /* \"#utility.yul\":8840:8843   */\n      dup3\n        /* \"#utility.yul\":8751:8844   */\n      tag_160\n      jump\t// in\n    tag_249:\n        /* \"#utility.yul\":8869:8871   */\n      0x20\n        /* \"#utility.yul\":8864:8867   */\n      dup3\n        /* \"#utility.yul\":8860:8872   */\n      add\n        /* \"#utility.yul\":8853:8872   */\n      swap1\n      pop\n        /* \"#utility.yul\":8512:8878   */\n      swap2\n      swap1\n      pop\n      jump\t// out\n        /* \"#utility.yul\":8884:9303   */\n    tag_76:\n        /* \"#utility.yul\":9050:9054   */\n      0x00\n        /* \"#utility.yul\":9088:9090   */\n      0x20\n        /* \"#utility.yul\":9077:9086   */\n      dup3\n        /* \"#utility.yul\":9073:9091   */\n      add\n        /* \"#utility.yul\":9065:9091   */\n      swap1\n      pop\n        /* \"#utility.yul\":9137:9146   */\n      dup2\n        /* \"#utility.yul\":9131:9135   */\n      dup2\n        /* \"#utility.yul\":9127:9147   */\n      sub\n        /* \"#utility.yul\":9123:9124   */\n      0x00\n        /* \"#utility.yul\":9112:9121   */\n      dup4\n        /* \"#utility.yul\":9108:9125   */\n      add\n        /* \"#utility.yul\":9101:9148   */\n      mstore\n        /* \"#utility.yul\":9165:9296   */\n      tag_251\n        /* \"#utility.yul\":9291:9295   */\n      dup2\n        /* \"#utility.yul\":9165:9296   */\n      tag_161\n      jump\t// in\n    tag_251:\n        /* \"#utility.yul\":9157:9296   */\n      swap1\n      pop\n        /* \"#utility.yul\":8884:9303   */\n      swap2\n      swap1\n      pop\n      jump\t// out\n        /* \"#utility.yul\":9309:9477   */\n    tag_162:\n        /* \"#utility.yul\":9449:9469   */\n      0x416d6f756e74206d757374206265203e20300000000000000000000000000000\n        /* \"#utility.yul\":9445:9446   */\n      0x00\n        /* \"#utility.yul\":9437:9443   */\n      dup3\n        /* \"#utility.yul\":9433:9447   */\n      add\n        /* \"#utility.yul\":9426:9470   */\n      mstore\n        /* \"#utility.yul\":9309:9477   */\n      pop\n      jump\t// out\n        /* \"#utility.yul\":9483:9849   */\n    tag_163:\n        /* \"#utility.yul\":9625:9628   */\n      0x00\n        /* \"#utility.yul\":9646:9713   */\n      tag_254\n        /* \"#utility.yul\":9710:9712   */\n      0x12\n        /* \"#utility.yul\":9705:9708   */\n      dup4\n        /* \"#utility.yul\":9646:9713   */\n      tag_150\n      jump\t// in\n    tag_254:\n        /* \"#utility.yul\":9639:9713   */\n      swap2\n      pop\n        /* \"#utility.yul\":9722:9815   */\n      tag_255\n        /* \"#utility.yul\":9811:9814   */\n      dup3\n        /* \"#utility.yul\":9722:9815   */\n      tag_162\n      jump\t// in\n    tag_255:\n        /* \"#utility.yul\":9840:9842   */\n      0x20\n        /* \"#utility.yul\":9835:9838   */\n      dup3\n        /* \"#utility.yul\":9831:9843   */\n      add\n        /* \"#utility.yul\":9824:9843   */\n      swap1\n      pop\n        /* \"#utility.yul\":9483:9849   */\n      swap2\n      swap1\n      pop\n      jump\t// out\n        /* \"#utility.yul\":9855:10274   */\n    tag_104:\n        /* \"#utility.yul\":10021:10025   */\n      0x00\n        /* \"#utility.yul\":10059:10061   */\n      0x20\n        /* \"#utility.yul\":10048:10057   */\n      dup3\n        /* \"#utility.yul\":10044:10062   */\n      add\n        /* \"#utility.yul\":10036:10062   */\n      swap1\n      pop\n        /* \"#utility.yul\":10108:10117   */\n      dup2\n        /* \"#utility.yul\":10102:10106   */\n      dup2\n        /* \"#utility.yul\":10098:10118   */\n      sub\n        /* \"#utility.yul\":10094:10095   */\n      0x00\n        /* \"#utility.yul\":10083:10092   */\n      dup4\n        /* \"#utility.yul\":10079:10096   */\n      add\n        /* \"#utility.yul\":10072:10119   */\n      mstore\n        /* \"#utility.yul\":10136:10267   */\n      tag_257\n        /* \"#utility.yul\":10262:10266   */\n      dup2\n        /* \"#utility.yul\":10136:10267   */\n      tag_163\n      jump\t// in\n    tag_257:\n        /* \"#utility.yul\":10128:10267   */\n      swap1\n      pop\n        /* \"#utility.yul\":9855:10274   */\n      swap2\n      swap1\n      pop\n      jump\t// out\n        /* \"#utility.yul\":10280:10447   */\n    tag_164:\n        /* \"#utility.yul\":10420:10439   */\n      0x427579657220616c726561647920736574000000000000000000000000000000\n        /* \"#utility.yul\":10416:10417   */\n      0x00\n        /* \"#utility.yul\":10408:10414   */\n      dup3\n        /* \"#utility.yul\":10404:10418   */\n      add\n        /* \"#utility.yul\":10397:10440   */\n      mstore\n        /* \"#utility.yul\":10280:10447   */\n      pop\n      jump\t// out\n        /* \"#utility.yul\":10453:10819   */\n    tag_165:\n        /* \"#utility.yul\":10595:10598   */\n      0x00\n        /* \"#utility.yul\":10616:10683   */\n      tag_260\n        /* \"#utility.yul\":10680:10682   */\n      0x11\n        /* \"#utility.yul\":10675:10678   */\n      dup4\n        /* \"#utility.yul\":10616:10683   */\n      tag_150\n      jump\t// in\n    tag_260:\n        /* \"#utility.yul\":10609:10683   */\n      swap2\n      pop\n        /* \"#utility.yul\":10692:10785   */\n      tag_261\n        /* \"#utility.yul\":10781:10784   */\n      dup3\n        /* \"#utility.yul\":10692:10785   */\n      tag_164\n      jump\t// in\n    tag_261:\n        /* \"#utility.yul\":10810:10812   */\n      0x20\n        /* \"#utility.yul\":10805:10808   */\n      dup3\n        /* \"#utility.yul\":10801:10813   */\n      add\n        /* \"#utility.yul\":10794:10813   */\n      swap1\n      pop\n        /* \"#utility.yul\":10453:10819   */\n      swap2\n      swap1\n      pop\n      jump\t// out\n        /* \"#utility.yul\":10825:11244   */\n    tag_107:\n        /* \"#utility.yul\":10991:10995   */\n      0x00\n        /* \"#utility.yul\":11029:11031   */\n      0x20\n        /* \"#utility.yul\":11018:11027   */\n      dup3\n        /* \"#utility.yul\":11014:11032   */\n      add\n        /* \"#utility.yul\":11006:11032   */\n      swap1\n      pop\n        /* \"#utility.yul\":11078:11087   */\n      dup2\n        /* \"#utility.yul\":11072:11076   */\n      dup2\n        /* \"#utility.yul\":11068:11088   */\n      sub\n        /* \"#utility.yul\":11064:11065   */\n      0x00\n        /* \"#utility.yul\":11053:11062   */\n      dup4\n        /* \"#utility.yul\":11049:11066   */\n      add\n        /* \"#utility.yul\":11042:11089   */\n      mstore\n        /* \"#utility.yul\":11106:11237   */\n      tag_263\n        /* \"#utility.yul\":11232:11236   */\n      dup2\n        /* \"#utility.yul\":11106:11237   */\n      tag_165\n      jump\t// in\n    tag_263:\n        /* \"#utility.yul\":11098:11237   */\n      swap1\n      pop\n        /* \"#utility.yul\":10825:11244   */\n      swap2\n      swap1\n      pop\n      jump\t// out\n        /* \"#utility.yul\":11250:11423   */\n    tag_166:\n        /* \"#utility.yul\":11390:11415   */\n      0x4f6e6c792073656c6c65722063616e20636f6e6669726d000000000000000000\n        /* \"#utility.yul\":11386:11387   */\n      0x00\n        /* \"#utility.yul\":11378:11384   */\n      dup3\n        /* \"#utility.yul\":11374:11388   */\n      add\n        /* \"#utility.yul\":11367:11416   */\n      mstore\n        /* \"#utility.yul\":11250:11423   */\n      pop\n      jump\t// out\n        /* \"#utility.yul\":11429:11795   */\n    tag_167:\n        /* \"#utility.yul\":11571:11574   */\n      0x00\n        /* \"#utility.yul\":11592:11659   */\n      tag_266\n        /* \"#utility.yul\":11656:11658   */\n      0x17\n        /* \"#utility.yul\":11651:11654   */\n      dup4\n        /* \"#utility.yul\":11592:11659   */\n      tag_150\n      jump\t// in\n    tag_266:\n        /* \"#utility.yul\":11585:11659   */\n      swap2\n      pop\n        /* \"#utility.yul\":11668:11761   */\n      tag_267\n        /* \"#utility.yul\":11757:11760   */\n      dup3\n        /* \"#utility.yul\":11668:11761   */\n      tag_166\n      jump\t// in\n    tag_267:\n        /* \"#utility.yul\":11786:11788   */\n      0x20\n        /* \"#utility.yul\":11781:11784   */\n      dup3\n        /* \"#utility.yul\":11777:11789   */\n      add\n        /* \"#utility.yul\":11770:11789   */\n      swap1\n      pop\n        /* \"#utility.yul\":11429:11795   */\n      swap2\n      swap1\n      pop\n      jump\t// out\n        /* \"#utility.yul\":11801:12220   */\n    tag_114:\n        /* \"#utility.yul\":11967:11971   */\n      0x00\n        /* \"#utility.yul\":12005:12007   */\n      0x20\n        /* \"#utility.yul\":11994:12003   */\n      dup3\n        /* \"#utility.yul\":11990:12008   */\n      add\n        /* \"#utility.yul\":11982:12008   */\n      swap1\n      pop\n        /* \"#utility.yul\":12054:12063   */\n      dup2\n        /* \"#utility.yul\":12048:12052   */\n      dup2\n        /* \"#utility.yul\":12044:12064   */\n      sub\n        /* \"#utility.yul\":12040:12041   */\n      0x00\n        /* \"#utility.yul\":12029:12038   */\n      dup4\n        /* \"#utility.yul\":12025:12042   */\n      add\n        /* \"#utility.yul\":12018:12065   */\n      mstore\n        /* \"#utility.yul\":12082:12213   */\n      tag_269\n        /* \"#utility.yul\":12208:12212   */\n      dup2\n        /* \"#utility.yul\":12082:12213   */\n      tag_167\n      jump\t// in\n    tag_269:\n        /* \"#utility.yul\":12074:12213   */\n      swap1\n      pop\n        /* \"#utility.yul\":11801:12220   */\n      swap2\n      swap1\n      pop\n      jump\t// out\n        /* \"#utility.yul\":12226:12558   */\n    tag_121:\n        /* \"#utility.yul\":12347:12351   */\n      0x00\n        /* \"#utility.yul\":12385:12387   */\n      0x40\n        /* \"#utility.yul\":12374:12383   */\n      dup3\n        /* \"#utility.yul\":12370:12388   */\n      add\n        /* \"#utility.yul\":12362:12388   */\n      swap1\n      pop\n        /* \"#utility.yul\":12398:12469   */\n      tag_271\n        /* \"#utility.yul\":12466:12467   */\n      0x00\n        /* \"#utility.yul\":12455:12464   */\n      dup4\n        /* \"#utility.yul\":12451:12468   */\n      add\n        /* \"#utility.yul\":12442:12448   */\n      dup6\n        /* \"#utility.yul\":12398:12469   */\n      tag_135\n      jump\t// in\n    tag_271:\n        /* \"#utility.yul\":12479:12551   */\n      tag_272\n        /* \"#utility.yul\":12547:12549   */\n      0x20\n        /* \"#utility.yul\":12536:12545   */\n      dup4\n        /* \"#utility.yul\":12532:12550   */\n      add\n        /* \"#utility.yul\":12523:12529   */\n      dup5\n        /* \"#utility.yul\":12479:12551   */\n      tag_139\n      jump\t// in\n    tag_272:\n        /* \"#utility.yul\":12226:12558   */\n      swap4\n      swap3\n      pop\n      pop\n      pop\n      jump\t// out\n        /* \"#utility.yul\":12564:13006   */\n    tag_126:\n        /* \"#utility.yul\":12713:12717   */\n      0x00\n        /* \"#utility.yul\":12751:12753   */\n      0x60\n        /* \"#utility.yul\":12740:12749   */\n      dup3\n        /* \"#utility.yul\":12736:12754   */\n      add\n        /* \"#utility.yul\":12728:12754   */\n      swap1\n      pop\n        /* \"#utility.yul\":12764:12835   */\n      tag_274\n        /* \"#utility.yul\":12832:12833   */\n      0x00\n        /* \"#utility.yul\":12821:12830   */\n      dup4\n        /* \"#utility.yul\":12817:12834   */\n      add\n        /* \"#utility.yul\":12808:12814   */\n      dup7\n        /* \"#utility.yul\":12764:12835   */\n      tag_135\n      jump\t// in\n    tag_274:\n        /* \"#utility.yul\":12845:12917   */\n      tag_275\n        /* \"#utility.yul\":12913:12915   */\n      0x20\n        /* \"#utility.yul\":12902:12911   */\n      dup4\n        /* \"#utility.yul\":12898:12916   */\n      add\n        /* \"#utility.yul\":12889:12895   */\n      dup6\n        /* \"#utility.yul\":12845:12917   */\n      tag_135\n      jump\t// in\n    tag_275:\n        /* \"#utility.yul\":12927:12999   */\n      tag_276\n        /* \"#utility.yul\":12995:12997   */\n      0x40\n        /* \"#utility.yul\":12984:12993   */\n      dup4\n        /* \"#utility.yul\":12980:12998   */\n      add\n        /* \"#utility.yul\":12971:12977   */\n      dup5\n        /* \"#utility.yul\":12927:12999   */\n      tag_139\n      jump\t// in\n    tag_276:\n        /* \"#utility.yul\":12564:13006   */\n      swap5\n      swap4\n      pop\n      pop\n      pop\n      pop\n      jump\t// out\n\n    auxdata: 0xa2646970667358221220d263a806ef05f094e60c3d638706f1e1ed77c1663406eb6f39e39ec16d978c6564736f6c634300081f0033\n}\n",
				"bytecode": {
					"linkReferences": {},
					"object": "60a060405234801561000f575f5ffd5b5060405161163f38038061163f83398181016040528101906100319190610109565b8173ffffffffffffffffffffffffffffffffffffffff1660808173ffffffffffffffffffffffffffffffffffffffff1681525050805f5f6101000a81548173ffffffffffffffffffffffffffffffffffffffff021916908373ffffffffffffffffffffffffffffffffffffffff1602179055505050610147565b5f5ffd5b5f73ffffffffffffffffffffffffffffffffffffffff82169050919050565b5f6100d8826100af565b9050919050565b6100e8816100ce565b81146100f2575f5ffd5b50565b5f81519050610103816100df565b92915050565b5f5f6040838503121561011f5761011e6100ab565b5b5f61012c858286016100f5565b925050602061013d858286016100f5565b9150509250929050565b6080516114a86101975f395f81816102e90152818161040b015281816105640152818161066a0152818161075e015281816107f6015281816108af01528181610afe0152610d0b01526114a85ff3fe608060405234801561000f575f5ffd5b50600436106100a7575f3560e01c8063779cd0831161006f578063779cd083146101195780637c0840d114610137578063aa8c217c14610157578063b6b55f2514610175578063d2c9ea0314610191578063d41b053f1461019b576100a7565b806308551a53146100ab578063385a9c37146100c9578063590e1ae3146100e757806369d89575146100f15780637150d8ae146100fb575b5f5ffd5b6100b36101b9565b6040516100c09190610f08565b60405180910390f35b6100d16101dd565b6040516100de9190610f3b565b60405180910390f35b6100ef6101ef565b005b6100f96104c3565b005b610103610721565b6040516101109190610f08565b60405180910390f35b610121610746565b60405161012e9190610f3b565b60405180910390f35b61013f610759565b60405161014e93929190610f6c565b60405180910390f35b61015f610970565b60405161016c9190610fa1565b60405180910390f35b61018f600480360381019061018a9190610fe8565b610976565b005b610199610b94565b005b6101a3610d09565b6040516101b0919061106e565b60405180910390f35b5f5f9054906101000a900473ffffffffffffffffffffffffffffffffffffffff1681565b60035f9054906101000a900460ff1681565b60015f9054906101000a900473ffffffffffffffffffffffffffffffffffffffff1673ffffffffffffffffffffffffffffffffffffffff163373ffffffffffffffffffffffffffffffffffffffff161461027e576040517f08c379a0000000000000000000000000000000000000000000000000000000008152600401610275906110e1565b60405180910390fd5b60035f9054906101000a900460ff161580156102a75750600360019054906101000a900460ff16155b6102e6576040517f08c379a00000000000000000000000000000000000000000000000000000000081526004016102dd90611149565b60405180910390fd5b5f7f000000000000000000000000000000000000000000000000000000000000000073ffffffffffffffffffffffffffffffffffffffff166370a08231306040518263ffffffff1660e01b81526004016103409190610f08565b602060405180830381865afa15801561035b573d5f5f3e3d5ffd5b505050506040513d601f19601f8201168201806040525081019061037f919061117b565b90506002548110156103c6576040517f08c379a00000000000000000000000000000000000000000000000000000000081526004016103bd906111f0565b60405180910390fd5b6001600360016101000a81548160ff02191690831515021790555061044f60015f9054906101000a900473ffffffffffffffffffffffffffffffffffffffff166002547f000000000000000000000000000000000000000000000000000000000000000073ffffffffffffffffffffffffffffffffffffffff16610d2d9092919063ffffffff16565b60015f9054906101000a900473ffffffffffffffffffffffffffffffffffffffff1673ffffffffffffffffffffffffffffffffffffffff167fa171b6942063c6f2800ce40a780edce37baa2b618571b11eedd1e69e626e7d766002546040516104b89190610fa1565b60405180910390a250565b60035f9054906101000a900460ff16610511576040517f08c379a000000000000000000000000000000000000000000000000000000000815260040161050890611258565b60405180910390fd5b600360019054906101000a900460ff1615610561576040517f08c379a0000000000000000000000000000000000000000000000000000000008152600401610558906112c0565b60405180910390fd5b5f7f000000000000000000000000000000000000000000000000000000000000000073ffffffffffffffffffffffffffffffffffffffff166370a08231306040518263ffffffff1660e01b81526004016105bb9190610f08565b602060405180830381865afa1580156105d6573d5f5f3e3d5ffd5b505050506040513d601f19601f820116820180604052508101906105fa919061117b565b9050600254811015610641576040517f08c379a0000000000000000000000000000000000000000000000000000000008152600401610638906111f0565b60405180910390fd5b6106ae5f5f9054906101000a900473ffffffffffffffffffffffffffffffffffffffff166002547f000000000000000000000000000000000000000000000000000000000000000073ffffffffffffffffffffffffffffffffffffffff16610d2d9092919063ffffffff16565b5f5f9054906101000a900473ffffffffffffffffffffffffffffffffffffffff1673ffffffffffffffffffffffffffffffffffffffff167f221c08a06b07a64803b3787861a3f276212fcccb51c2e6234077a9b8cb13047a6002546040516107169190610fa1565b60405180910390a250565b60015f9054906101000a900473ffffffffffffffffffffffffffffffffffffffff1681565b600360019054906101000a900460ff1681565b5f5f5f7f000000000000000000000000000000000000000000000000000000000000000073ffffffffffffffffffffffffffffffffffffffff166370a08231306040518263ffffffff1660e01b81526004016107b59190610f08565b602060405180830381865afa1580156107d0573d5f5f3e3d5ffd5b505050506040513d601f19601f820116820180604052508101906107f4919061117b565b7f000000000000000000000000000000000000000000000000000000000000000073ffffffffffffffffffffffffffffffffffffffff166370a0823160015f9054906101000a900473ffffffffffffffffffffffffffffffffffffffff166040518263ffffffff1660e01b815260040161086e9190610f08565b602060405180830381865afa158015610889573d5f5f3e3d5ffd5b505050506040513d601f19601f820116820180604052508101906108ad919061117b565b7f000000000000000000000000000000000000000000000000000000000000000073ffffffffffffffffffffffffffffffffffffffff166370a082315f5f9054906101000a900473ffffffffffffffffffffffffffffffffffffffff166040518263ffffffff1660e01b81526004016109269190610f08565b602060405180830381865afa158015610941573d5f5f3e3d5ffd5b505050506040513d601f19601f82011682018060405250810190610965919061117b565b925092509250909192565b60025481565b60035f9054906101000a900460ff1615801561099f5750600360019054906101000a900460ff16155b6109de576040517f08c379a00000000000000000000000000000000000000000000000000000000081526004016109d590611149565b60405180910390fd5b5f8111610a20576040517f08c379a0000000000000000000000000000000000000000000000000000000008152600401610a1790611328565b60405180910390fd5b5f73ffffffffffffffffffffffffffffffffffffffff1660015f9054906101000a900473ffffffffffffffffffffffffffffffffffffffff1673ffffffffffffffffffffffffffffffffffffffff1614610aaf576040517f08c379a0000000000000000000000000000000000000000000000000000000008152600401610aa690611390565b60405180910390fd5b3360015f6101000a81548173ffffffffffffffffffffffffffffffffffffffff021916908373ffffffffffffffffffffffffffffffffffffffff16021790555080600281905550610b433330837f000000000000000000000000000000000000000000000000000000000000000073ffffffffffffffffffffffffffffffffffffffff16610dac909392919063ffffffff16565b3373ffffffffffffffffffffffffffffffffffffffff167fd15c9547ea5c06670c0010ce19bc32d54682a4b3801ece7f3ab0c3f17106b4bb82604051610b899190610fa1565b60405180910390a250565b5f5f9054906101000a900473ffffffffffffffffffffffffffffffffffffffff1673ffffffffffffffffffffffffffffffffffffffff163373ffffffffffffffffffffffffffffffffffffffff1614610c22576040517f08c379a0000000000000000000000000000000000000000000000000000000008152600401610c19906113f8565b60405180910390fd5b60035f9054906101000a900460ff16158015610c4b5750600360019054906101000a900460ff16155b610c8a576040517f08c379a0000000000000000000000000000000000000000000000000000000008152600401610c8190611149565b60405180910390fd5b600160035f6101000a81548160ff0219169083151502179055505f5f9054906101000a900473ffffffffffffffffffffffffffffffffffffffff1673ffffffffffffffffffffffffffffffffffffffff167f2b4d886262cf2de6c7d4426877b49a269f028810e47e65e9debbf5cd75b99f8b60405160405180910390a2565b7f000000000000000000000000000000000000000000000000000000000000000081565b610da7838473ffffffffffffffffffffffffffffffffffffffff1663a9059cbb8585604051602401610d60929190611416565b604051602081830303815290604052915060e01b6020820180517bffffffffffffffffffffffffffffffffffffffffffffffffffffffff8381831617835250505050610e2e565b505050565b610e28848573ffffffffffffffffffffffffffffffffffffffff166323b872dd868686604051602401610de19392919061143d565b604051602081830303815290604052915060e01b6020820180517bffffffffffffffffffffffffffffffffffffffffffffffffffffffff8381831617835250505050610e2e565b50505050565b5f5f60205f8451602086015f885af180610e4d576040513d5f823e3d81fd5b3d92505f519150505f8214610e66576001811415610e81565b5f8473ffffffffffffffffffffffffffffffffffffffff163b145b15610ec357836040517f5274afe7000000000000000000000000000000000000000000000000000000008152600401610eba9190610f08565b60405180910390fd5b50505050565b5f73ffffffffffffffffffffffffffffffffffffffff82169050919050565b5f610ef282610ec9565b9050919050565b610f0281610ee8565b82525050565b5f602082019050610f1b5f830184610ef9565b92915050565b5f8115159050919050565b610f3581610f21565b82525050565b5f602082019050610f4e5f830184610f2c565b92915050565b5f819050919050565b610f6681610f54565b82525050565b5f606082019050610f7f5f830186610f5d565b610f8c6020830185610f5d565b610f996040830184610f5d565b949350505050565b5f602082019050610fb45f830184610f5d565b92915050565b5f5ffd5b610fc781610f54565b8114610fd1575f5ffd5b50565b5f81359050610fe281610fbe565b92915050565b5f60208284031215610ffd57610ffc610fba565b5b5f61100a84828501610fd4565b91505092915050565b5f819050919050565b5f61103661103161102c84610ec9565b611013565b610ec9565b9050919050565b5f6110478261101c565b9050919050565b5f6110588261103d565b9050919050565b6110688161104e565b82525050565b5f6020820190506110815f83018461105f565b92915050565b5f82825260208201905092915050565b7f4f6e6c792062757965722063616e20726566756e6400000000000000000000005f82015250565b5f6110cb601583611087565b91506110d682611097565b602082019050919050565b5f6020820190508181035f8301526110f8816110bf565b9050919050565b7f5472616e73616374696f6e20616c726561647920636f6d706c657465640000005f82015250565b5f611133601d83611087565b915061113e826110ff565b602082019050919050565b5f6020820190508181035f83015261116081611127565b9050919050565b5f8151905061117581610fbe565b92915050565b5f602082840312156111905761118f610fba565b5b5f61119d84828501611167565b91505092915050565b7f496e73756666696369656e742062616c616e63650000000000000000000000005f82015250565b5f6111da601483611087565b91506111e5826111a6565b602082019050919050565b5f6020820190508181035f830152611207816111ce565b9050919050565b7f46756c66696c6c6d656e74206e6f7420636f6e6669726d6564000000000000005f82015250565b5f611242601983611087565b915061124d8261120e565b602082019050919050565b5f6020820190508181035f83015261126f81611236565b9050919050565b7f46756e647320616c726561647920726566756e646564000000000000000000005f82015250565b5f6112aa601683611087565b91506112b582611276565b602082019050919050565b5f6020820190508181035f8301526112d78161129e565b9050919050565b7f416d6f756e74206d757374206265203e203000000000000000000000000000005f82015250565b5f611312601283611087565b915061131d826112de565b602082019050919050565b5f6020820190508181035f83015261133f81611306565b9050919050565b7f427579657220616c7265616479207365740000000000000000000000000000005f82015250565b5f61137a601183611087565b915061138582611346565b602082019050919050565b5f6020820190508181035f8301526113a78161136e565b9050919050565b7f4f6e6c792073656c6c65722063616e20636f6e6669726d0000000000000000005f82015250565b5f6113e2601783611087565b91506113ed826113ae565b602082019050919050565b5f6020820190508181035f83015261140f816113d6565b9050919050565b5f6040820190506114295f830185610ef9565b6114366020830184610f5d565b9392505050565b5f6060820190506114505f830186610ef9565b61145d6020830185610ef9565b61146a6040830184610f5d565b94935050505056fea2646970667358221220d263a806ef05f094e60c3d638706f1e1ed77c1663406eb6f39e39ec16d978c6564736f6c634300081f0033",
					"opcodes": "PUSH1 0xA0 PUSH1 0x40 MSTORE CALLVALUE DUP1 ISZERO PUSH2 0xF JUMPI PUSH0 PUSH0 REVERT JUMPDEST POP PUSH1 0x40 MLOAD PUSH2 0x163F CODESIZE SUB DUP1 PUSH2 0x163F DUP4 CODECOPY DUP2 DUP2 ADD PUSH1 0x40 MSTORE DUP2 ADD SWAP1 PUSH2 0x31 SWAP2 SWAP1 PUSH2 0x109 JUMP JUMPDEST DUP2 PUSH20 0xFFFFFFFFFFFFFFFFFFFFFFFFFFFFFFFFFFFFFFFF AND PUSH1 0x80 DUP2 PUSH20 0xFFFFFFFFFFFFFFFFFFFFFFFFFFFFFFFFFFFFFFFF AND DUP2 MSTORE POP POP DUP1 PUSH0 PUSH0 PUSH2 0x100 EXP DUP2 SLOAD DUP2 PUSH20 0xFFFFFFFFFFFFFFFFFFFFFFFFFFFFFFFFFFFFFFFF MUL NOT AND SWAP1 DUP4 PUSH20 0xFFFFFFFFFFFFFFFFFFFFFFFFFFFFFFFFFFFFFFFF AND MUL OR SWAP1 SSTORE POP POP POP PUSH2 0x147 JUMP JUMPDEST PUSH0 PUSH0 REVERT JUMPDEST PUSH0 PUSH20 0xFFFFFFFFFFFFFFFFFFFFFFFFFFFFFFFFFFFFFFFF DUP3 AND SWAP1 POP SWAP2 SWAP1 POP JUMP JUMPDEST PUSH0 PUSH2 0xD8 DUP3 PUSH2 0xAF JUMP JUMPDEST SWAP1 POP SWAP2 SWAP1 POP JUMP JUMPDEST PUSH2 0xE8 DUP2 PUSH2 0xCE JUMP JUMPDEST DUP2 EQ PUSH2 0xF2 JUMPI PUSH0 PUSH0 REVERT JUMPDEST POP JUMP JUMPDEST PUSH0 DUP2 MLOAD SWAP1 POP PUSH2 0x103 DUP2 PUSH2 0xDF JUMP JUMPDEST SWAP3 SWAP2 POP POP JUMP JUMPDEST PUSH0 PUSH0 PUSH1 0x40 DUP4 DUP6 SUB SLT ISZERO PUSH2 0x11F JUMPI PUSH2 0x11E PUSH2 0xAB JUMP JUMPDEST JUMPDEST PUSH0 PUSH2 0x12C DUP6 DUP3 DUP7 ADD PUSH2 0xF5 JUMP JUMPDEST SWAP3 POP POP PUSH1 0x20 PUSH2 0x13D DUP6 DUP3 DUP7 ADD PUSH2 0xF5 JUMP JUMPDEST SWAP2 POP POP SWAP3 POP SWAP3 SWAP1 POP JUMP JUMPDEST PUSH1 0x80 MLOAD PUSH2 0x14A8 PUSH2 0x197 PUSH0 CODECOPY PUSH0 DUP2 DUP2 PUSH2 0x2E9 ADD MSTORE DUP2 DUP2 PUSH2 0x40B ADD MSTORE DUP2 DUP2 PUSH2 0x564 ADD MSTORE DUP2 DUP2 PUSH2 0x66A ADD MSTORE DUP2 DUP2 PUSH2 0x75E ADD MSTORE DUP2 DUP2 PUSH2 0x7F6 ADD MSTORE DUP2 DUP2 PUSH2 0x8AF ADD MSTORE DUP2 DUP2 PUSH2 0xAFE ADD MSTORE PUSH2 0xD0B ADD MSTORE PUSH2 0x14A8 PUSH0 RETURN INVALID PUSH1 0x80 PUSH1 0x40 MSTORE CALLVALUE DUP1 ISZERO PUSH2 0xF JUMPI PUSH0 PUSH0 REVERT JUMPDEST POP PUSH1 0x4 CALLDATASIZE LT PUSH2 0xA7 JUMPI PUSH0 CALLDATALOAD PUSH1 0xE0 SHR DUP1 PUSH4 0x779CD083 GT PUSH2 0x6F JUMPI DUP1 PUSH4 0x779CD083 EQ PUSH2 0x119 JUMPI DUP1 PUSH4 0x7C0840D1 EQ PUSH2 0x137 JUMPI DUP1 PUSH4 0xAA8C217C EQ PUSH2 0x157 JUMPI DUP1 PUSH4 0xB6B55F25 EQ PUSH2 0x175 JUMPI DUP1 PUSH4 0xD2C9EA03 EQ PUSH2 0x191 JUMPI DUP1 PUSH4 0xD41B053F EQ PUSH2 0x19B JUMPI PUSH2 0xA7 JUMP JUMPDEST DUP1 PUSH4 0x8551A53 EQ PUSH2 0xAB JUMPI DUP1 PUSH4 0x385A9C37 EQ PUSH2 0xC9 JUMPI DUP1 PUSH4 0x590E1AE3 EQ PUSH2 0xE7 JUMPI DUP1 PUSH4 0x69D89575 EQ PUSH2 0xF1 JUMPI DUP1 PUSH4 0x7150D8AE EQ PUSH2 0xFB JUMPI JUMPDEST PUSH0 PUSH0 REVERT JUMPDEST PUSH2 0xB3 PUSH2 0x1B9 JUMP JUMPDEST PUSH1 0x40 MLOAD PUSH2 0xC0 SWAP2 SWAP1 PUSH2 0xF08 JUMP JUMPDEST PUSH1 0x40 MLOAD DUP1 SWAP2 SUB SWAP1 RETURN JUMPDEST PUSH2 0xD1 PUSH2 0x1DD JUMP JUMPDEST PUSH1 0x40 MLOAD PUSH2 0xDE SWAP2 SWAP1 PUSH2 0xF3B JUMP JUMPDEST PUSH1 0x40 MLOAD DUP1 SWAP2 SUB SWAP1 RETURN JUMPDEST PUSH2 0xEF PUSH2 0x1EF JUMP JUMPDEST STOP JUMPDEST PUSH2 0xF9 PUSH2 0x4C3 JUMP JUMPDEST STOP JUMPDEST PUSH2 0x103 PUSH2 0x721 JUMP JUMPDEST PUSH1 0x40 MLOAD PUSH2 0x110 SWAP2 SWAP1 PUSH2 0xF08 JUMP JUMPDEST PUSH1 0x40 MLOAD DUP1 SWAP2 SUB SWAP1 RETURN JUMPDEST PUSH2 0x121 PUSH2 0x746 JUMP JUMPDEST PUSH1 0x40 MLOAD PUSH2 0x12E SWAP2 SWAP1 PUSH2 0xF3B JUMP JUMPDEST PUSH1 0x40 MLOAD DUP1 SWAP2 SUB SWAP1 RETURN JUMPDEST PUSH2 0x13F PUSH2 0x759 JUMP JUMPDEST PUSH1 0x40 MLOAD PUSH2 0x14E SWAP4 SWAP3 SWAP2 SWAP1 PUSH2 0xF6C JUMP JUMPDEST PUSH1 0x40 MLOAD DUP1 SWAP2 SUB SWAP1 RETURN JUMPDEST PUSH2 0x15F PUSH2 0x970 JUMP JUMPDEST PUSH1 0x40 MLOAD PUSH2 0x16C SWAP2 SWAP1 PUSH2 0xFA1 JUMP JUMPDEST PUSH1 0x40 MLOAD DUP1 SWAP2 SUB SWAP1 RETURN JUMPDEST PUSH2 0x18F PUSH1 0x4 DUP1 CALLDATASIZE SUB DUP2 ADD SWAP1 PUSH2 0x18A SWAP2 SWAP1 PUSH2 0xFE8 JUMP JUMPDEST PUSH2 0x976 JUMP JUMPDEST STOP JUMPDEST PUSH2 0x199 PUSH2 0xB94 JUMP JUMPDEST STOP JUMPDEST PUSH2 0x1A3 PUSH2 0xD09 JUMP JUMPDEST PUSH1 0x40 MLOAD PUSH2 0x1B0 SWAP2 SWAP1 PUSH2 0x106E JUMP JUMPDEST PUSH1 0x40 MLOAD DUP1 SWAP2 SUB SWAP1 RETURN JUMPDEST PUSH0 PUSH0 SWAP1 SLOAD SWAP1 PUSH2 0x100 EXP SWAP1 DIV PUSH20 0xFFFFFFFFFFFFFFFFFFFFFFFFFFFFFFFFFFFFFFFF AND DUP2 JUMP JUMPDEST PUSH1 0x3 PUSH0 SWAP1 SLOAD SWAP1 PUSH2 0x100 EXP SWAP1 DIV PUSH1 0xFF AND DUP2 JUMP JUMPDEST PUSH1 0x1 PUSH0 SWAP1 SLOAD SWAP1 PUSH2 0x100 EXP SWAP1 DIV PUSH20 0xFFFFFFFFFFFFFFFFFFFFFFFFFFFFFFFFFFFFFFFF AND PUSH20 0xFFFFFFFFFFFFFFFFFFFFFFFFFFFFFFFFFFFFFFFF AND CALLER PUSH20 0xFFFFFFFFFFFFFFFFFFFFFFFFFFFFFFFFFFFFFFFF AND EQ PUSH2 0x27E JUMPI PUSH1 0x40 MLOAD PUSH32 0x8C379A000000000000000000000000000000000000000000000000000000000 DUP2 MSTORE PUSH1 0x4 ADD PUSH2 0x275 SWAP1 PUSH2 0x10E1 JUMP JUMPDEST PUSH1 0x40 MLOAD DUP1 SWAP2 SUB SWAP1 REVERT JUMPDEST PUSH1 0x3 PUSH0 SWAP1 SLOAD SWAP1 PUSH2 0x100 EXP SWAP1 DIV PUSH1 0xFF AND ISZERO DUP1 ISZERO PUSH2 0x2A7 JUMPI POP PUSH1 0x3 PUSH1 0x1 SWAP1 SLOAD SWAP1 PUSH2 0x100 EXP SWAP1 DIV PUSH1 0xFF AND ISZERO JUMPDEST PUSH2 0x2E6 JUMPI PUSH1 0x40 MLOAD PUSH32 0x8C379A000000000000000000000000000000000000000000000000000000000 DUP2 MSTORE PUSH1 0x4 ADD PUSH2 0x2DD SWAP1 PUSH2 0x1149 JUMP JUMPDEST PUSH1 0x40 MLOAD DUP1 SWAP2 SUB SWAP1 REVERT JUMPDEST PUSH0 PUSH32 0x0 PUSH20 0xFFFFFFFFFFFFFFFFFFFFFFFFFFFFFFFFFFFFFFFF AND PUSH4 0x70A08231 ADDRESS PUSH1 0x40 MLOAD DUP3 PUSH4 0xFFFFFFFF AND PUSH1 0xE0 SHL DUP2 MSTORE PUSH1 0x4 ADD PUSH2 0x340 SWAP2 SWAP1 PUSH2 0xF08 JUMP JUMPDEST PUSH1 0x20 PUSH1 0x40 MLOAD DUP1 DUP4 SUB DUP2 DUP7 GAS STATICCALL ISZERO DUP1 ISZERO PUSH2 0x35B JUMPI RETURNDATASIZE PUSH0 PUSH0 RETURNDATACOPY RETURNDATASIZE PUSH0 REVERT JUMPDEST POP POP POP POP PUSH1 0x40 MLOAD RETURNDATASIZE PUSH1 0x1F NOT PUSH1 0x1F DUP3 ADD AND DUP3 ADD DUP1 PUSH1 0x40 MSTORE POP DUP2 ADD SWAP1 PUSH2 0x37F SWAP2 SWAP1 PUSH2 0x117B JUMP JUMPDEST SWAP1 POP PUSH1 0x2 SLOAD DUP2 LT ISZERO PUSH2 0x3C6 JUMPI PUSH1 0x40 MLOAD PUSH32 0x8C379A000000000000000000000000000000000000000000000000000000000 DUP2 MSTORE PUSH1 0x4 ADD PUSH2 0x3BD SWAP1 PUSH2 0x11F0 JUMP JUMPDEST PUSH1 0x40 MLOAD DUP1 SWAP2 SUB SWAP1 REVERT JUMPDEST PUSH1 0x1 PUSH1 0x3 PUSH1 0x1 PUSH2 0x100 EXP DUP2 SLOAD DUP2 PUSH1 0xFF MUL NOT AND SWAP1 DUP4 ISZERO ISZERO MUL OR SWAP1 SSTORE POP PUSH2 0x44F PUSH1 0x1 PUSH0 SWAP1 SLOAD SWAP1 PUSH2 0x100 EXP SWAP1 DIV PUSH20 0xFFFFFFFFFFFFFFFFFFFFFFFFFFFFFFFFFFFFFFFF AND PUSH1 0x2 SLOAD PUSH32 0x0 PUSH20 0xFFFFFFFFFFFFFFFFFFFFFFFFFFFFFFFFFFFFFFFF AND PUSH2 0xD2D SWAP1 SWAP3 SWAP2 SWAP1 PUSH4 0xFFFFFFFF AND JUMP JUMPDEST PUSH1 0x1 PUSH0 SWAP1 SLOAD SWAP1 PUSH2 0x100 EXP SWAP1 DIV PUSH20 0xFFFFFFFFFFFFFFFFFFFFFFFFFFFFFFFFFFFFFFFF AND PUSH20 0xFFFFFFFFFFFFFFFFFFFFFFFFFFFFFFFFFFFFFFFF AND PUSH32 0xA171B6942063C6F2800CE40A780EDCE37BAA2B618571B11EEDD1E69E626E7D76 PUSH1 0x2 SLOAD PUSH1 0x40 MLOAD PUSH2 0x4B8 SWAP2 SWAP1 PUSH2 0xFA1 JUMP JUMPDEST PUSH1 0x40 MLOAD DUP1 SWAP2 SUB SWAP1 LOG2 POP JUMP JUMPDEST PUSH1 0x3 PUSH0 SWAP1 SLOAD SWAP1 PUSH2 0x100 EXP SWAP1 DIV PUSH1 0xFF AND PUSH2 0x511 JUMPI PUSH1 0x40 MLOAD PUSH32 0x8C379A000000000000000000000000000000000000000000000000000000000 DUP2 MSTORE PUSH1 0x4 ADD PUSH2 0x508 SWAP1 PUSH2 0x1258 JUMP JUMPDEST PUSH1 0x40 MLOAD DUP1 SWAP2 SUB SWAP1 REVERT JUMPDEST PUSH1 0x3 PUSH1 0x1 SWAP1 SLOAD SWAP1 PUSH2 0x100 EXP SWAP1 DIV PUSH1 0xFF AND ISZERO PUSH2 0x561 JUMPI PUSH1 0x40 MLOAD PUSH32 0x8C379A000000000000000000000000000000000000000000000000000000000 DUP2 MSTORE PUSH1 0x4 ADD PUSH2 0x558 SWAP1 PUSH2 0x12C0 JUMP JUMPDEST PUSH1 0x40 MLOAD DUP1 SWAP2 SUB SWAP1 REVERT JUMPDEST PUSH0 PUSH32 0x0 PUSH20 0xFFFFFFFFFFFFFFFFFFFFFFFFFFFFFFFFFFFFFFFF AND PUSH4 0x70A08231 ADDRESS PUSH1 0x40 MLOAD DUP3 PUSH4 0xFFFFFFFF AND PUSH1 0xE0 SHL DUP2 MSTORE PUSH1 0x4 ADD PUSH2 0x5BB SWAP2 SWAP1 PUSH2 0xF08 JUMP JUMPDEST PUSH1 0x20 PUSH1 0x40 MLOAD DUP1 DUP4 SUB DUP2 DUP7 GAS STATICCALL ISZERO DUP1 ISZERO PUSH2 0x5D6 JUMPI RETURNDATASIZE PUSH0 PUSH0 RETURNDATACOPY RETURNDATASIZE PUSH0 REVERT JUMPDEST POP POP POP POP PUSH1 0x40 MLOAD RETURNDATASIZE PUSH1 0x1F NOT PUSH1 0x1F DUP3 ADD AND DUP3 ADD DUP1 PUSH1 0x40 MSTORE POP DUP2 ADD SWAP1 PUSH2 0x5FA SWAP2 SWAP1 PUSH2 0x117B JUMP JUMPDEST SWAP1 POP PUSH1 0x2 SLOAD DUP2 LT ISZERO PUSH2 0x641 JUMPI PUSH1 0x40 MLOAD PUSH32 0x8C379A000000000000000000000000000000000000000000000000000000000 DUP2 MSTORE PUSH1 0x4 ADD PUSH2 0x638 SWAP1 PUSH2 0x11F0 JUMP JUMPDEST PUSH1 0x40 MLOAD DUP1 SWAP2 SUB SWAP1 REVERT JUMPDEST PUSH2 0x6AE PUSH0 PUSH0 SWAP1 SLOAD SWAP1 PUSH2 0x100 EXP SWAP1 DIV PUSH20 0xFFFFFFFFFFFFFFFFFFFFFFFFFFFFFFFFFFFFFFFF AND PUSH1 0x2 SLOAD PUSH32 0x0 PUSH20 0xFFFFFFFFFFFFFFFFFFFFFFFFFFFFFFFFFFFFFFFF AND PUSH2 0xD2D SWAP1 SWAP3 SWAP2 SWAP1 PUSH4 0xFFFFFFFF AND JUMP JUMPDEST PUSH0 PUSH0 SWAP1 SLOAD SWAP1 PUSH2 0x100 EXP SWAP1 DIV PUSH20 0xFFFFFFFFFFFFFFFFFFFFFFFFFFFFFFFFFFFFFFFF AND PUSH20 0xFFFFFFFFFFFFFFFFFFFFFFFFFFFFFFFFFFFFFFFF AND PUSH32 0x221C08A06B07A64803B3787861A3F276212FCCCB51C2E6234077A9B8CB13047A PUSH1 0x2 SLOAD PUSH1 0x40 MLOAD PUSH2 0x716 SWAP2 SWAP1 PUSH2 0xFA1 JUMP JUMPDEST PUSH1 0x40 MLOAD DUP1 SWAP2 SUB SWAP1 LOG2 POP JUMP JUMPDEST PUSH1 0x1 PUSH0 SWAP1 SLOAD SWAP1 PUSH2 0x100 EXP SWAP1 DIV PUSH20 0xFFFFFFFFFFFFFFFFFFFFFFFFFFFFFFFFFFFFFFFF AND DUP2 JUMP JUMPDEST PUSH1 0x3 PUSH1 0x1 SWAP1 SLOAD SWAP1 PUSH2 0x100 EXP SWAP1 DIV PUSH1 0xFF AND DUP2 JUMP JUMPDEST PUSH0 PUSH0 PUSH0 PUSH32 0x0 PUSH20 0xFFFFFFFFFFFFFFFFFFFFFFFFFFFFFFFFFFFFFFFF AND PUSH4 0x70A08231 ADDRESS PUSH1 0x40 MLOAD DUP3 PUSH4 0xFFFFFFFF AND PUSH1 0xE0 SHL DUP2 MSTORE PUSH1 0x4 ADD PUSH2 0x7B5 SWAP2 SWAP1 PUSH2 0xF08 JUMP JUMPDEST PUSH1 0x20 PUSH1 0x40 MLOAD DUP1 DUP4 SUB DUP2 DUP7 GAS STATICCALL ISZERO DUP1 ISZERO PUSH2 0x7D0 JUMPI RETURNDATASIZE PUSH0 PUSH0 RETURNDATACOPY RETURNDATASIZE PUSH0 REVERT JUMPDEST POP POP POP POP PUSH1 0x40 MLOAD RETURNDATASIZE PUSH1 0x1F NOT PUSH1 0x1F DUP3 ADD AND DUP3 ADD DUP1 PUSH1 0x40 MSTORE POP DUP2 ADD SWAP1 PUSH2 0x7F4 SWAP2 SWAP1 PUSH2 0x117B JUMP JUMPDEST PUSH32 0x0 PUSH20 0xFFFFFFFFFFFFFFFFFFFFFFFFFFFFFFFFFFFFFFFF AND PUSH4 0x70A08231 PUSH1 0x1 PUSH0 SWAP1 SLOAD SWAP1 PUSH2 0x100 EXP SWAP1 DIV PUSH20 0xFFFFFFFFFFFFFFFFFFFFFFFFFFFFFFFFFFFFFFFF AND PUSH1 0x40 MLOAD DUP3 PUSH4 0xFFFFFFFF AND PUSH1 0xE0 SHL DUP2 MSTORE PUSH1 0x4 ADD PUSH2 0x86E SWAP2 SWAP1 PUSH2 0xF08 JUMP JUMPDEST PUSH1 0x20 PUSH1 0x40 MLOAD DUP1 DUP4 SUB DUP2 DUP7 GAS STATICCALL ISZERO DUP1 ISZERO PUSH2 0x889 JUMPI RETURNDATASIZE PUSH0 PUSH0 RETURNDATACOPY RETURNDATASIZE PUSH0 REVERT JUMPDEST POP POP POP POP PUSH1 0x40 MLOAD RETURNDATASIZE PUSH1 0x1F NOT PUSH1 0x1F DUP3 ADD AND DUP3 ADD DUP1 PUSH1 0x40 MSTORE POP DUP2 ADD SWAP1 PUSH2 0x8AD SWAP2 SWAP1 PUSH2 0x117B JUMP JUMPDEST PUSH32 0x0 PUSH20 0xFFFFFFFFFFFFFFFFFFFFFFFFFFFFFFFFFFFFFFFF AND PUSH4 0x70A08231 PUSH0 PUSH0 SWAP1 SLOAD SWAP1 PUSH2 0x100 EXP SWAP1 DIV PUSH20 0xFFFFFFFFFFFFFFFFFFFFFFFFFFFFFFFFFFFFFFFF AND PUSH1 0x40 MLOAD DUP3 PUSH4 0xFFFFFFFF AND PUSH1 0xE0 SHL DUP2 MSTORE PUSH1 0x4 ADD PUSH2 0x926 SWAP2 SWAP1 PUSH2 0xF08 JUMP JUMPDEST PUSH1 0x20 PUSH1 0x40 MLOAD DUP1 DUP4 SUB DUP2 DUP7 GAS STATICCALL ISZERO DUP1 ISZERO PUSH2 0x941 JUMPI RETURNDATASIZE PUSH0 PUSH0 RETURNDATACOPY RETURNDATASIZE PUSH0 REVERT JUMPDEST POP POP POP POP PUSH1 0x40 MLOAD RETURNDATASIZE PUSH1 0x1F NOT PUSH1 0x1F DUP3 ADD AND DUP3 ADD DUP1 PUSH1 0x40 MSTORE POP DUP2 ADD SWAP1 PUSH2 0x965 SWAP2 SWAP1 PUSH2 0x117B JUMP JUMPDEST SWAP3 POP SWAP3 POP SWAP3 POP SWAP1 SWAP2 SWAP3 JUMP JUMPDEST PUSH1 0x2 SLOAD DUP2 JUMP JUMPDEST PUSH1 0x3 PUSH0 SWAP1 SLOAD SWAP1 PUSH2 0x100 EXP SWAP1 DIV PUSH1 0xFF AND ISZERO DUP1 ISZERO PUSH2 0x99F JUMPI POP PUSH1 0x3 PUSH1 0x1 SWAP1 SLOAD SWAP1 PUSH2 0x100 EXP SWAP1 DIV PUSH1 0xFF AND ISZERO JUMPDEST PUSH2 0x9DE JUMPI PUSH1 0x40 MLOAD PUSH32 0x8C379A000000000000000000000000000000000000000000000000000000000 DUP2 MSTORE PUSH1 0x4 ADD PUSH2 0x9D5 SWAP1 PUSH2 0x1149 JUMP JUMPDEST PUSH1 0x40 MLOAD DUP1 SWAP2 SUB SWAP1 REVERT JUMPDEST PUSH0 DUP2 GT PUSH2 0xA20 JUMPI PUSH1 0x40 MLOAD PUSH32 0x8C379A000000000000000000000000000000000000000000000000000000000 DUP2 MSTORE PUSH1 0x4 ADD PUSH2 0xA17 SWAP1 PUSH2 0x1328 JUMP JUMPDEST PUSH1 0x40 MLOAD DUP1 SWAP2 SUB SWAP1 REVERT JUMPDEST PUSH0 PUSH20 0xFFFFFFFFFFFFFFFFFFFFFFFFFFFFFFFFFFFFFFFF AND PUSH1 0x1 PUSH0 SWAP1 SLOAD SWAP1 PUSH2 0x100 EXP SWAP1 DIV PUSH20 0xFFFFFFFFFFFFFFFFFFFFFFFFFFFFFFFFFFFFFFFF AND PUSH20 0xFFFFFFFFFFFFFFFFFFFFFFFFFFFFFFFFFFFFFFFF AND EQ PUSH2 0xAAF JUMPI PUSH1 0x40 MLOAD PUSH32 0x8C379A000000000000000000000000000000000000000000000000000000000 DUP2 MSTORE PUSH1 0x4 ADD PUSH2 0xAA6 SWAP1 PUSH2 0x1390 JUMP JUMPDEST PUSH1 0x40 MLOAD DUP1 SWAP2 SUB SWAP1 REVERT JUMPDEST CALLER PUSH1 0x1 PUSH0 PUSH2 0x100 EXP DUP2 SLOAD DUP2 PUSH20 0xFFFFFFFFFFFFFFFFFFFFFFFFFFFFFFFFFFFFFFFF MUL NOT AND SWAP1 DUP4 PUSH20 0xFFFFFFFFFFFFFFFFFFFFFFFFFFFFFFFFFFFFFFFF AND MUL OR SWAP1 SSTORE POP DUP1 PUSH1 0x2 DUP2 SWAP1 SSTORE POP PUSH2 0xB43 CALLER ADDRESS DUP4 PUSH32 0x0 PUSH20 0xFFFFFFFFFFFFFFFFFFFFFFFFFFFFFFFFFFFFFFFF AND PUSH2 0xDAC SWAP1 SWAP4 SWAP3 SWAP2 SWAP1 PUSH4 0xFFFFFFFF AND JUMP JUMPDEST CALLER PUSH20 0xFFFFFFFFFFFFFFFFFFFFFFFFFFFFFFFFFFFFFFFF AND PUSH32 0xD15C9547EA5C06670C0010CE19BC32D54682A4B3801ECE7F3AB0C3F17106B4BB DUP3 PUSH1 0x40 MLOAD PUSH2 0xB89 SWAP2 SWAP1 PUSH2 0xFA1 JUMP JUMPDEST PUSH1 0x40 MLOAD DUP1 SWAP2 SUB SWAP1 LOG2 POP JUMP JUMPDEST PUSH0 PUSH0 SWAP1 SLOAD SWAP1 PUSH2 0x100 EXP SWAP1 DIV PUSH20 0xFFFFFFFFFFFFFFFFFFFFFFFFFFFFFFFFFFFFFFFF AND PUSH20 0xFFFFFFFFFFFFFFFFFFFFFFFFFFFFFFFFFFFFFFFF AND CALLER PUSH20 0xFFFFFFFFFFFFFFFFFFFFFFFFFFFFFFFFFFFFFFFF AND EQ PUSH2 0xC22 JUMPI PUSH1 0x40 MLOAD PUSH32 0x8C379A000000000000000000000000000000000000000000000000000000000 DUP2 MSTORE PUSH1 0x4 ADD PUSH2 0xC19 SWAP1 PUSH2 0x13F8 JUMP JUMPDEST PUSH1 0x40 MLOAD DUP1 SWAP2 SUB SWAP1 REVERT JUMPDEST PUSH1 0x3 PUSH0 SWAP1 SLOAD SWAP1 PUSH2 0x100 EXP SWAP1 DIV PUSH1 0xFF AND ISZERO DUP1 ISZERO PUSH2 0xC4B JUMPI POP PUSH1 0x3 PUSH1 0x1 SWAP1 SLOAD SWAP1 PUSH2 0x100 EXP SWAP1 DIV PUSH1 0xFF AND ISZERO JUMPDEST PUSH2 0xC8A JUMPI PUSH1 0x40 MLOAD PUSH32 0x8C379A000000000000000000000000000000000000000000000000000000000 DUP2 MSTORE PUSH1 0x4 ADD PUSH2 0xC81 SWAP1 PUSH2 0x1149 JUMP JUMPDEST PUSH1 0x40 MLOAD DUP1 SWAP2 SUB SWAP1 REVERT JUMPDEST PUSH1 0x1 PUSH1 0x3 PUSH0 PUSH2 0x100 EXP DUP2 SLOAD DUP2 PUSH1 0xFF MUL NOT AND SWAP1 DUP4 ISZERO ISZERO MUL OR SWAP1 SSTORE POP PUSH0 PUSH0 SWAP1 SLOAD SWAP1 PUSH2 0x100 EXP SWAP1 DIV PUSH20 0xFFFFFFFFFFFFFFFFFFFFFFFFFFFFFFFFFFFFFFFF AND PUSH20 0xFFFFFFFFFFFFFFFFFFFFFFFFFFFFFFFFFFFFFFFF AND PUSH32 0x2B4D886262CF2DE6C7D4426877B49A269F028810E47E65E9DEBBF5CD75B99F8B PUSH1 0x40 MLOAD PUSH1 0x40 MLOAD DUP1 SWAP2 SUB SWAP1 LOG2 JUMP JUMPDEST PUSH32 0x0 DUP2 JUMP JUMPDEST PUSH2 0xDA7 DUP4 DUP5 PUSH20 0xFFFFFFFFFFFFFFFFFFFFFFFFFFFFFFFFFFFFFFFF AND PUSH4 0xA9059CBB DUP6 DUP6 PUSH1 0x40 MLOAD PUSH1 0x24 ADD PUSH2 0xD60 SWAP3 SWAP2 SWAP1 PUSH2 0x1416 JUMP JUMPDEST PUSH1 0x40 MLOAD PUSH1 0x20 DUP2 DUP4 SUB SUB DUP2 MSTORE SWAP1 PUSH1 0x40 MSTORE SWAP2 POP PUSH1 0xE0 SHL PUSH1 0x20 DUP3 ADD DUP1 MLOAD PUSH28 0xFFFFFFFFFFFFFFFFFFFFFFFFFFFFFFFFFFFFFFFFFFFFFFFFFFFFFFFF DUP4 DUP2 DUP4 AND OR DUP4 MSTORE POP POP POP POP PUSH2 0xE2E JUMP JUMPDEST POP POP POP JUMP JUMPDEST PUSH2 0xE28 DUP5 DUP6 PUSH20 0xFFFFFFFFFFFFFFFFFFFFFFFFFFFFFFFFFFFFFFFF AND PUSH4 0x23B872DD DUP7 DUP7 DUP7 PUSH1 0x40 MLOAD PUSH1 0x24 ADD PUSH2 0xDE1 SWAP4 SWAP3 SWAP2 SWAP1 PUSH2 0x143D JUMP JUMPDEST PUSH1 0x40 MLOAD PUSH1 0x20 DUP2 DUP4 SUB SUB DUP2 MSTORE SWAP1 PUSH1 0x40 MSTORE SWAP2 POP PUSH1 0xE0 SHL PUSH1 0x20 DUP3 ADD DUP1 MLOAD PUSH28 0xFFFFFFFFFFFFFFFFFFFFFFFFFFFFFFFFFFFFFFFFFFFFFFFFFFFFFFFF DUP4 DUP2 DUP4 AND OR DUP4 MSTORE POP POP POP POP PUSH2 0xE2E JUMP JUMPDEST POP POP POP POP JUMP JUMPDEST PUSH0 PUSH0 PUSH1 0x20 PUSH0 DUP5 MLOAD PUSH1 0x20 DUP7 ADD PUSH0 DUP9 GAS CALL DUP1 PUSH2 0xE4D JUMPI PUSH1 0x40 MLOAD RETURNDATASIZE PUSH0 DUP3 RETURNDATACOPY RETURNDATASIZE DUP2 REVERT JUMPDEST RETURNDATASIZE SWAP3 POP PUSH0 MLOAD SWAP2 POP POP PUSH0 DUP3 EQ PUSH2 0xE66 JUMPI PUSH1 0x1 DUP2 EQ ISZERO PUSH2 0xE81 JUMP JUMPDEST PUSH0 DUP5 PUSH20 0xFFFFFFFFFFFFFFFFFFFFFFFFFFFFFFFFFFFFFFFF AND EXTCODESIZE EQ JUMPDEST ISZERO PUSH2 0xEC3 JUMPI DUP4 PUSH1 0x40 MLOAD PUSH32 0x5274AFE700000000000000000000000000000000000000000000000000000000 DUP2 MSTORE PUSH1 0x4 ADD PUSH2 0xEBA SWAP2 SWAP1 PUSH2 0xF08 JUMP JUMPDEST PUSH1 0x40 MLOAD DUP1 SWAP2 SUB SWAP1 REVERT JUMPDEST POP POP POP POP JUMP JUMPDEST PUSH0 PUSH20 0xFFFFFFFFFFFFFFFFFFFFFFFFFFFFFFFFFFFFFFFF DUP3 AND SWAP1 POP SWAP2 SWAP1 POP JUMP JUMPDEST PUSH0 PUSH2 0xEF2 DUP3 PUSH2 0xEC9 JUMP JUMPDEST SWAP1 POP SWAP2 SWAP1 POP JUMP JUMPDEST PUSH2 0xF02 DUP2 PUSH2 0xEE8 JUMP JUMPDEST DUP3 MSTORE POP POP JUMP JUMPDEST PUSH0 PUSH1 0x20 DUP3 ADD SWAP1 POP PUSH2 0xF1B PUSH0 DUP4 ADD DUP5 PUSH2 0xEF9 JUMP JUMPDEST SWAP3 SWAP2 POP POP JUMP JUMPDEST PUSH0 DUP2 ISZERO ISZERO SWAP1 POP SWAP2 SWAP1 POP JUMP JUMPDEST PUSH2 0xF35 DUP2 PUSH2 0xF21 JUMP JUMPDEST DUP3 MSTORE POP POP JUMP JUMPDEST PUSH0 PUSH1 0x20 DUP3 ADD SWAP1 POP PUSH2 0xF4E PUSH0 DUP4 ADD DUP5 PUSH2 0xF2C JUMP JUMPDEST SWAP3 SWAP2 POP POP JUMP JUMPDEST PUSH0 DUP2 SWAP1 POP SWAP2 SWAP1 POP JUMP JUMPDEST PUSH2 0xF66 DUP2 PUSH2 0xF54 JUMP JUMPDEST DUP3 MSTORE POP POP JUMP JUMPDEST PUSH0 PUSH1 0x60 DUP3 ADD SWAP1 POP PUSH2 0xF7F PUSH0 DUP4 ADD DUP7 PUSH2 0xF5D JUMP JUMPDEST PUSH2 0xF8C PUSH1 0x20 DUP4 ADD DUP6 PUSH2 0xF5D JUMP JUMPDEST PUSH2 0xF99 PUSH1 0x40 DUP4 ADD DUP5 PUSH2 0xF5D JUMP JUMPDEST SWAP5 SWAP4 POP POP POP POP JUMP JUMPDEST PUSH0 PUSH1 0x20 DUP3 ADD SWAP1 POP PUSH2 0xFB4 PUSH0 DUP4 ADD DUP5 PUSH2 0xF5D JUMP JUMPDEST SWAP3 SWAP2 POP POP JUMP JUMPDEST PUSH0 PUSH0 REVERT JUMPDEST PUSH2 0xFC7 DUP2 PUSH2 0xF54 JUMP JUMPDEST DUP2 EQ PUSH2 0xFD1 JUMPI PUSH0 PUSH0 REVERT JUMPDEST POP JUMP JUMPDEST PUSH0 DUP2 CALLDATALOAD SWAP1 POP PUSH2 0xFE2 DUP2 PUSH2 0xFBE JUMP JUMPDEST SWAP3 SWAP2 POP POP JUMP JUMPDEST PUSH0 PUSH1 0x20 DUP3 DUP5 SUB SLT ISZERO PUSH2 0xFFD JUMPI PUSH2 0xFFC PUSH2 0xFBA JUMP JUMPDEST JUMPDEST PUSH0 PUSH2 0x100A DUP5 DUP3 DUP6 ADD PUSH2 0xFD4 JUMP JUMPDEST SWAP2 POP POP SWAP3 SWAP2 POP POP JUMP JUMPDEST PUSH0 DUP2 SWAP1 POP SWAP2 SWAP1 POP JUMP JUMPDEST PUSH0 PUSH2 0x1036 PUSH2 0x1031 PUSH2 0x102C DUP5 PUSH2 0xEC9 JUMP JUMPDEST PUSH2 0x1013 JUMP JUMPDEST PUSH2 0xEC9 JUMP JUMPDEST SWAP1 POP SWAP2 SWAP1 POP JUMP JUMPDEST PUSH0 PUSH2 0x1047 DUP3 PUSH2 0x101C JUMP JUMPDEST SWAP1 POP SWAP2 SWAP1 POP JUMP JUMPDEST PUSH0 PUSH2 0x1058 DUP3 PUSH2 0x103D JUMP JUMPDEST SWAP1 POP SWAP2 SWAP1 POP JUMP JUMPDEST PUSH2 0x1068 DUP2 PUSH2 0x104E JUMP JUMPDEST DUP3 MSTORE POP POP JUMP JUMPDEST PUSH0 PUSH1 0x20 DUP3 ADD SWAP1 POP PUSH2 0x1081 PUSH0 DUP4 ADD DUP5 PUSH2 0x105F JUMP JUMPDEST SWAP3 SWAP2 POP POP JUMP JUMPDEST PUSH0 DUP3 DUP3 MSTORE PUSH1 0x20 DUP3 ADD SWAP1 POP SWAP3 SWAP2 POP POP JUMP JUMPDEST PUSH32 0x4F6E6C792062757965722063616E20726566756E640000000000000000000000 PUSH0 DUP3 ADD MSTORE POP JUMP JUMPDEST PUSH0 PUSH2 0x10CB PUSH1 0x15 DUP4 PUSH2 0x1087 JUMP JUMPDEST SWAP2 POP PUSH2 0x10D6 DUP3 PUSH2 0x1097 JUMP JUMPDEST PUSH1 0x20 DUP3 ADD SWAP1 POP SWAP2 SWAP1 POP JUMP JUMPDEST PUSH0 PUSH1 0x20 DUP3 ADD SWAP1 POP DUP2 DUP2 SUB PUSH0 DUP4 ADD MSTORE PUSH2 0x10F8 DUP2 PUSH2 0x10BF JUMP JUMPDEST SWAP1 POP SWAP2 SWAP1 POP JUMP JUMPDEST PUSH32 0x5472616E73616374696F6E20616C726561647920636F6D706C65746564000000 PUSH0 DUP3 ADD MSTORE POP JUMP JUMPDEST PUSH0 PUSH2 0x1133 PUSH1 0x1D DUP4 PUSH2 0x1087 JUMP JUMPDEST SWAP2 POP PUSH2 0x113E DUP3 PUSH2 0x10FF JUMP JUMPDEST PUSH1 0x20 DUP3 ADD SWAP1 POP SWAP2 SWAP1 POP JUMP JUMPDEST PUSH0 PUSH1 0x20 DUP3 ADD SWAP1 POP DUP2 DUP2 SUB PUSH0 DUP4 ADD MSTORE PUSH2 0x1160 DUP2 PUSH2 0x1127 JUMP JUMPDEST SWAP1 POP SWAP2 SWAP1 POP JUMP JUMPDEST PUSH0 DUP2 MLOAD SWAP1 POP PUSH2 0x1175 DUP2 PUSH2 0xFBE JUMP JUMPDEST SWAP3 SWAP2 POP POP JUMP JUMPDEST PUSH0 PUSH1 0x20 DUP3 DUP5 SUB SLT ISZERO PUSH2 0x1190 JUMPI PUSH2 0x118F PUSH2 0xFBA JUMP JUMPDEST JUMPDEST PUSH0 PUSH2 0x119D DUP5 DUP3 DUP6 ADD PUSH2 0x1167 JUMP JUMPDEST SWAP2 POP POP SWAP3 SWAP2 POP POP JUMP JUMPDEST PUSH32 0x496E73756666696369656E742062616C616E6365000000000000000000000000 PUSH0 DUP3 ADD MSTORE POP JUMP JUMPDEST PUSH0 PUSH2 0x11DA PUSH1 0x14 DUP4 PUSH2 0x1087 JUMP JUMPDEST SWAP2 POP PUSH2 0x11E5 DUP3 PUSH2 0x11A6 JUMP JUMPDEST PUSH1 0x20 DUP3 ADD SWAP1 POP SWAP2 SWAP1 POP JUMP JUMPDEST PUSH0 PUSH1 0x20 DUP3 ADD SWAP1 POP DUP2 DUP2 SUB PUSH0 DUP4 ADD MSTORE PUSH2 0x1207 DUP2 PUSH2 0x11CE JUMP JUMPDEST SWAP1 POP SWAP2 SWAP1 POP JUMP JUMPDEST PUSH32 0x46756C66696C6C6D656E74206E6F7420636F6E6669726D656400000000000000 PUSH0 DUP3 ADD MSTORE POP JUMP JUMPDEST PUSH0 PUSH2 0x1242 PUSH1 0x19 DUP4 PUSH2 0x1087 JUMP JUMPDEST SWAP2 POP PUSH2 0x124D DUP3 PUSH2 0x120E JUMP JUMPDEST PUSH1 0x20 DUP3 ADD SWAP1 POP SWAP2 SWAP1 POP JUMP JUMPDEST PUSH0 PUSH1 0x20 DUP3 ADD SWAP1 POP DUP2 DUP2 SUB PUSH0 DUP4 ADD MSTORE PUSH2 0x126F DUP2 PUSH2 0x1236 JUMP JUMPDEST SWAP1 POP SWAP2 SWAP1 POP JUMP JUMPDEST PUSH32 0x46756E647320616C726561647920726566756E64656400000000000000000000 PUSH0 DUP3 ADD MSTORE POP JUMP JUMPDEST PUSH0 PUSH2 0x12AA PUSH1 0x16 DUP4 PUSH2 0x1087 JUMP JUMPDEST SWAP2 POP PUSH2 0x12B5 DUP3 PUSH2 0x1276 JUMP JUMPDEST PUSH1 0x20 DUP3 ADD SWAP1 POP SWAP2 SWAP1 POP JUMP JUMPDEST PUSH0 PUSH1 0x20 DUP3 ADD SWAP1 POP DUP2 DUP2 SUB PUSH0 DUP4 ADD MSTORE PUSH2 0x12D7 DUP2 PUSH2 0x129E JUMP JUMPDEST SWAP1 POP SWAP2 SWAP1 POP JUMP JUMPDEST PUSH32 0x416D6F756E74206D757374206265203E20300000000000000000000000000000 PUSH0 DUP3 ADD MSTORE POP JUMP JUMPDEST PUSH0 PUSH2 0x1312 PUSH1 0x12 DUP4 PUSH2 0x1087 JUMP JUMPDEST SWAP2 POP PUSH2 0x131D DUP3 PUSH2 0x12DE JUMP JUMPDEST PUSH1 0x20 DUP3 ADD SWAP1 POP SWAP2 SWAP1 POP JUMP JUMPDEST PUSH0 PUSH1 0x20 DUP3 ADD SWAP1 POP DUP2 DUP2 SUB PUSH0 DUP4 ADD MSTORE PUSH2 0x133F DUP2 PUSH2 0x1306 JUMP JUMPDEST SWAP1 POP SWAP2 SWAP1 POP JUMP JUMPDEST PUSH32 0x427579657220616C726561647920736574000000000000000000000000000000 PUSH0 DUP3 ADD MSTORE POP JUMP JUMPDEST PUSH0 PUSH2 0x137A PUSH1 0x11 DUP4 PUSH2 0x1087 JUMP JUMPDEST SWAP2 POP PUSH2 0x1385 DUP3 PUSH2 0x1346 JUMP JUMPDEST PUSH1 0x20 DUP3 ADD SWAP1 POP SWAP2 SWAP1 POP JUMP JUMPDEST PUSH0 PUSH1 0x20 DUP3 ADD SWAP1 POP DUP2 DUP2 SUB PUSH0 DUP4 ADD MSTORE PUSH2 0x13A7 DUP2 PUSH2 0x136E JUMP JUMPDEST SWAP1 POP SWAP2 SWAP1 POP JUMP JUMPDEST PUSH32 0x4F6E6C792073656C6C65722063616E20636F6E6669726D000000000000000000 PUSH0 DUP3 ADD MSTORE POP JUMP JUMPDEST PUSH0 PUSH2 0x13E2 PUSH1 0x17 DUP4 PUSH2 0x1087 JUMP JUMPDEST SWAP2 POP PUSH2 0x13ED DUP3 PUSH2 0x13AE JUMP JUMPDEST PUSH1 0x20 DUP3 ADD SWAP1 POP SWAP2 SWAP1 POP JUMP JUMPDEST PUSH0 PUSH1 0x20 DUP3 ADD SWAP1 POP DUP2 DUP2 SUB PUSH0 DUP4 ADD MSTORE PUSH2 0x140F DUP2 PUSH2 0x13D6 JUMP JUMPDEST SWAP1 POP SWAP2 SWAP1 POP JUMP JUMPDEST PUSH0 PUSH1 0x40 DUP3 ADD SWAP1 POP PUSH2 0x1429 PUSH0 DUP4 ADD DUP6 PUSH2 0xEF9 JUMP JUMPDEST PUSH2 0x1436 PUSH1 0x20 DUP4 ADD DUP5 PUSH2 0xF5D JUMP JUMPDEST SWAP4 SWAP3 POP POP POP JUMP JUMPDEST PUSH0 PUSH1 0x60 DUP3 ADD SWAP1 POP PUSH2 0x1450 PUSH0 DUP4 ADD DUP7 PUSH2 0xEF9 JUMP JUMPDEST PUSH2 0x145D PUSH1 0x20 DUP4 ADD DUP6 PUSH2 0xEF9 JUMP JUMPDEST PUSH2 0x146A PUSH1 0x40 DUP4 ADD DUP5 PUSH2 0xF5D JUMP JUMPDEST SWAP5 SWAP4 POP POP POP POP JUMP INVALID LOG2 PUSH5 0x6970667358 0x22 SLT KECCAK256 0xD2 PUSH4 0xA806EF05 CREATE SWAP5 DUPN 0xC RETURNDATASIZE PUSH4 0x8706F1E1 0xED PUSH24 0xC1663406EB6F39E39EC16D978C6564736F6C634300081F00 CALLER "
				},
				"gasEstimates": {
					"creation": {
						"codeDepositCost": "1057600",
						"executionCost": "infinite",
						"totalCost": "infinite"
					},
					"external": {
						"amount()": "2469",
						"buyer()": "2597",
						"confirmFulfillment()": "34329",
						"deposit(uint256)": "infinite",
						"eHKD()": "infinite",
						"isFulfilled()": "2489",
						"isRefunded()": "2517",
						"refund()": "infinite",
						"releaseFunds()": "infinite",
						"seller()": "2508",
						"verifyBalances()": "infinite"
					}
				},
				"methodIdentifiers": {
					"amount()": "aa8c217c",
					"buyer()": "7150d8ae",
					"confirmFulfillment()": "d2c9ea03",
					"deposit(uint256)": "b6b55f25",
					"eHKD()": "d41b053f",
					"isFulfilled()": "385a9c37",
					"isRefunded()": "779cd083",
					"refund()": "590e1ae3",
					"releaseFunds()": "69d89575",
					"seller()": "08551a53",
					"verifyBalances()": "7c0840d1"
				}
			},
			"storageLayout": {
				"storage": [
					{
						"astId": 1364,
						"contract": "contracts/EHKDscrow.sol:EHKDEscrow",
						"label": "seller",
						"offset": 0,
						"slot": "0",
						"type": "t_address"
					},
					{
						"astId": 1366,
						"contract": "contracts/EHKDscrow.sol:EHKDEscrow",
						"label": "buyer",
						"offset": 0,
						"slot": "1",
						"type": "t_address"
					},
					{
						"astId": 1368,
						"contract": "contracts/EHKDscrow.sol:EHKDEscrow",
						"label": "amount",
						"offset": 0,
						"slot": "2",
						"type": "t_uint256"
					},
					{
						"astId": 1370,
						"contract": "contracts/EHKDscrow.sol:EHKDEscrow",
						"label": "isFulfilled",
						"offset": 0,
						"slot": "3",
						"type": "t_bool"
					},
					{
						"astId": 1372,
						"contract": "contracts/EHKDscrow.sol:EHKDEscrow",
						"label": "isRefunded",
						"offset": 1,
						"slot": "3",
						"type": "t_bool"
					}
				],
				"types": {
					"t_address": {
						"encoding": "inplace",
						"label": "address",
						"numberOfBytes": "20"
					},
					"t_bool": {
						"encoding": "inplace",
						"label": "bool",
						"numberOfBytes": "1"
					},
					"t_uint256": {
						"encoding": "inplace",
						"label": "uint256",
						"numberOfBytes": "32"
					}
				}
			},
			"userdoc": {
				"kind": "user",
				"methods": {},
				"version": 1
			}
		}
	}
}