{
	"contracts/EHKD.sol": {
		"ProxyAdmin": {
			"abi": [
				{
					"inputs": [
						{
							"internalType": "address",
							"name": "initialOwner",
							"type": "address"
						}
					],
					"stateMutability": "nonpayable",
					"type": "constructor"
				},
				{
					"inputs": [
						{
							"internalType": "address",
							"name": "owner",
							"type": "address"
						}
					],
					"name": "OwnableInvalidOwner",
					"type": "error"
				},
				{
					"inputs": [
						{
							"internalType": "address",
							"name": "account",
							"type": "address"
						}
					],
					"name": "OwnableUnauthorizedAccount",
					"type": "error"
				},
				{
					"anonymous": false,
					"inputs": [
						{
							"indexed": true,
							"internalType": "address",
							"name": "previousOwner",
							"type": "address"
						},
						{
							"indexed": true,
							"internalType": "address",
							"name": "newOwner",
							"type": "address"
						}
					],
					"name": "OwnershipTransferred",
					"type": "event"
				},
				{
					"inputs": [],
					"name": "UPGRADE_INTERFACE_VERSION",
					"outputs": [
						{
							"internalType": "string",
							"name": "",
							"type": "string"
						}
					],
					"stateMutability": "view",
					"type": "function"
				},
				{
					"inputs": [],
					"name": "owner",
					"outputs": [
						{
							"internalType": "address",
							"name": "",
							"type": "address"
						}
					],
					"stateMutability": "view",
					"type": "function"
				},
				{
					"inputs": [],
					"name": "renounceOwnership",
					"outputs": [],
					"stateMutability": "nonpayable",
					"type": "function"
				},
				{
					"inputs": [
						{
							"internalType": "address",
							"name": "newOwner",
							"type": "address"
						}
					],
					"name": "transferOwnership",
					"outputs": [],
					"stateMutability": "nonpayable",
					"type": "function"
				},
				{
					"inputs": [
						{
							"internalType": "contract ITransparentUpgradeableProxy",
							"name": "proxy",
							"type": "address"
						},
						{
							"internalType": "address",
							"name": "implementation",
							"type": "address"
						},
						{
							"internalType": "bytes",
							"name": "data",
							"type": "bytes"
						}
					],
					"name": "upgradeAndCall",
					"outputs": [],
					"stateMutability": "payable",
					"type": "function"
				}
			],
			"devdoc": {
				"details": "This is an auxiliary contract meant to be assigned as the admin of a {TransparentUpgradeableProxy}. For an explanation of why you would want to use this see the documentation for {TransparentUpgradeableProxy}.",
				"errors": {
					"OwnableInvalidOwner(address)": [
						{
							"details": "The owner is not a valid owner account. (eg. `address(0)`)"
						}
					],
					"OwnableUnauthorizedAccount(address)": [
						{
							"details": "The caller account is not authorized to perform an operation."
						}
					]
				},
				"kind": "dev",
				"methods": {
					"constructor": {
						"details": "Sets the initial owner who can perform upgrades."
					},
					"owner()": {
						"details": "Returns the address of the current owner."
					},
					"renounceOwnership()": {
						"details": "Leaves the contract without owner. It will not be possible to call `onlyOwner` functions. Can only be called by the current owner. NOTE: Renouncing ownership will leave the contract without an owner, thereby disabling any functionality that is only available to the owner."
					},
					"transferOwnership(address)": {
						"details": "Transfers ownership of the contract to a new account (`newOwner`). Can only be called by the current owner."
					},
					"upgradeAndCall(address,address,bytes)": {
						"details": "Upgrades `proxy` to `implementation` and calls a function on the new implementation. See {TransparentUpgradeableProxy-_dispatchUpgradeToAndCall}. Requirements: - This contract must be the admin of `proxy`. - If `data` is empty, `msg.value` must be zero."
					}
				},
				"stateVariables": {
					"UPGRADE_INTERFACE_VERSION": {
						"details": "The version of the upgrade interface of the contract. If this getter is missing, both `upgrade(address)` and `upgradeAndCall(address,bytes)` are present, and `upgradeTo` must be used if no function should be called, while `upgradeAndCall` will invoke the `receive` function if the second argument is the empty byte string. If the getter returns `\"5.0.0\"`, only `upgradeAndCall(address,bytes)` is present, and the second argument must be the empty byte string if no function should be called, making it impossible to invoke the `receive` function during an upgrade."
					}
				},
				"version": 1
			},
			"evm": {
				"assembly": "    /* \"contracts/EHKD.sol\":27040:28482  contract ProxyAdmin is Ownable {... */\n  mstore(0x40, 0x80)\n    /* \"contracts/EHKD.sol\":27847:27905  constructor(address initialOwner) Ownable(initialOwner) {} */\n  callvalue\n  dup1\n  iszero\n  tag_1\n  jumpi\n  revert(0x00, 0x00)\ntag_1:\n  pop\n  mload(0x40)\n  sub(codesize, bytecodeSize)\n  dup1\n  bytecodeSize\n  dup4\n  codecopy\n  dup2\n  dup2\n  add\n  0x40\n  mstore\n  dup2\n  add\n  swap1\n  tag_2\n  swap2\n  swap1\n  tag_3\n  jump\t// in\ntag_2:\n    /* \"contracts/EHKD.sol\":27889:27901  initialOwner */\n  dup1\n    /* \"contracts/EHKD.sol\":24812:24813  0 */\n  0x00\n    /* \"contracts/EHKD.sol\":24788:24814  initialOwner == address(0) */\n  0xffffffffffffffffffffffffffffffffffffffff\n  and\n    /* \"contracts/EHKD.sol\":24788:24800  initialOwner */\n  dup2\n    /* \"contracts/EHKD.sol\":24788:24814  initialOwner == address(0) */\n  0xffffffffffffffffffffffffffffffffffffffff\n  and\n  sub\n    /* \"contracts/EHKD.sol\":24784:24879  if (initialOwner == address(0)) {... */\n  tag_7\n  jumpi\n    /* \"contracts/EHKD.sol\":24865:24866  0 */\n  0x00\n    /* \"contracts/EHKD.sol\":24837:24868  OwnableInvalidOwner(address(0)) */\n  mload(0x40)\n  0x1e4fbdf700000000000000000000000000000000000000000000000000000000\n  dup2\n  mstore\n  0x04\n  add\n  tag_8\n  swap2\n  swap1\n  tag_9\n  jump\t// in\ntag_8:\n  mload(0x40)\n  dup1\n  swap2\n  sub\n  swap1\n  revert\n    /* \"contracts/EHKD.sol\":24784:24879  if (initialOwner == address(0)) {... */\ntag_7:\n    /* \"contracts/EHKD.sol\":24888:24920  _transferOwnership(initialOwner) */\n  tag_10\n    /* \"contracts/EHKD.sol\":24907:24919  initialOwner */\n  dup2\n    /* \"contracts/EHKD.sol\":24888:24906  _transferOwnership */\n  shl(0x20, tag_11)\n    /* \"contracts/EHKD.sol\":24888:24920  _transferOwnership(initialOwner) */\n  0x20\n  shr\n  jump\t// in\ntag_10:\n    /* \"contracts/EHKD.sol\":24740:24927  constructor(address initialOwner) {... */\n  pop\n    /* \"contracts/EHKD.sol\":27847:27905  constructor(address initialOwner) Ownable(initialOwner) {} */\n  pop\n    /* \"contracts/EHKD.sol\":27040:28482  contract ProxyAdmin is Ownable {... */\n  jump(tag_13)\n    /* \"contracts/EHKD.sol\":26427:26614  function _transferOwnership(address newOwner) internal virtual {... */\ntag_11:\n    /* \"contracts/EHKD.sol\":26500:26516  address oldOwner */\n  0x00\n    /* \"contracts/EHKD.sol\":26519:26525  _owner */\n  0x00\n  0x00\n  swap1\n  sload\n  swap1\n  0x0100\n  exp\n  swap1\n  div\n  0xffffffffffffffffffffffffffffffffffffffff\n  and\n    /* \"contracts/EHKD.sol\":26500:26525  address oldOwner = _owner */\n  swap1\n  pop\n    /* \"contracts/EHKD.sol\":26544:26552  newOwner */\n  dup2\n    /* \"contracts/EHKD.sol\":26535:26541  _owner */\n  0x00\n  0x00\n    /* \"contracts/EHKD.sol\":26535:26552  _owner = newOwner */\n  0x0100\n  exp\n  dup2\n  sload\n  dup2\n  0xffffffffffffffffffffffffffffffffffffffff\n  mul\n  not\n  and\n  swap1\n  dup4\n  0xffffffffffffffffffffffffffffffffffffffff\n  and\n  mul\n  or\n  swap1\n  sstore\n  pop\n    /* \"contracts/EHKD.sol\":26598:26606  newOwner */\n  dup2\n    /* \"contracts/EHKD.sol\":26567:26607  OwnershipTransferred(oldOwner, newOwner) */\n  0xffffffffffffffffffffffffffffffffffffffff\n  and\n    /* \"contracts/EHKD.sol\":26588:26596  oldOwner */\n  dup2\n    /* \"contracts/EHKD.sol\":26567:26607  OwnershipTransferred(oldOwner, newOwner) */\n  0xffffffffffffffffffffffffffffffffffffffff\n  and\n  0x8be0079c531659141344cd1fd0a4f28419497f9722a3daafe3b4186f6b6457e0\n  mload(0x40)\n  mload(0x40)\n  dup1\n  swap2\n  sub\n  swap1\n  log3\n    /* \"contracts/EHKD.sol\":26490:26614  {... */\n  pop\n    /* \"contracts/EHKD.sol\":26427:26614  function _transferOwnership(address newOwner) internal virtual {... */\n  pop\n  jump\t// out\n    /* \"#utility.yul\":88:205   */\ntag_16:\n    /* \"#utility.yul\":197:198   */\n  0x00\n    /* \"#utility.yul\":194:195   */\n  0x00\n    /* \"#utility.yul\":187:199   */\n  revert\n    /* \"#utility.yul\":334:460   */\ntag_18:\n    /* \"#utility.yul\":371:378   */\n  0x00\n    /* \"#utility.yul\":411:453   */\n  0xffffffffffffffffffffffffffffffffffffffff\n    /* \"#utility.yul\":404:409   */\n  dup3\n    /* \"#utility.yul\":400:454   */\n  and\n    /* \"#utility.yul\":389:454   */\n  swap1\n  pop\n    /* \"#utility.yul\":334:460   */\n  swap2\n  swap1\n  pop\n  jump\t// out\n    /* \"#utility.yul\":466:562   */\ntag_19:\n    /* \"#utility.yul\":503:510   */\n  0x00\n    /* \"#utility.yul\":532:556   */\n  tag_29\n    /* \"#utility.yul\":550:555   */\n  dup3\n    /* \"#utility.yul\":532:556   */\n  tag_18\n  jump\t// in\ntag_29:\n    /* \"#utility.yul\":521:556   */\n  swap1\n  pop\n    /* \"#utility.yul\":466:562   */\n  swap2\n  swap1\n  pop\n  jump\t// out\n    /* \"#utility.yul\":568:690   */\ntag_20:\n    /* \"#utility.yul\":641:665   */\n  tag_31\n    /* \"#utility.yul\":659:664   */\n  dup2\n    /* \"#utility.yul\":641:665   */\n  tag_19\n  jump\t// in\ntag_31:\n    /* \"#utility.yul\":634:639   */\n  dup2\n    /* \"#utility.yul\":631:666   */\n  eq\n    /* \"#utility.yul\":621:684   */\n  tag_32\n  jumpi\n    /* \"#utility.yul\":680:681   */\n  0x00\n    /* \"#utility.yul\":677:678   */\n  0x00\n    /* \"#utility.yul\":670:682   */\n  revert\n    /* \"#utility.yul\":621:684   */\ntag_32:\n    /* \"#utility.yul\":568:690   */\n  pop\n  jump\t// out\n    /* \"#utility.yul\":696:839   */\ntag_21:\n    /* \"#utility.yul\":753:758   */\n  0x00\n    /* \"#utility.yul\":784:790   */\n  dup2\n    /* \"#utility.yul\":778:791   */\n  mload\n    /* \"#utility.yul\":769:791   */\n  swap1\n  pop\n    /* \"#utility.yul\":800:833   */\n  tag_34\n    /* \"#utility.yul\":827:832   */\n  dup2\n    /* \"#utility.yul\":800:833   */\n  tag_20\n  jump\t// in\ntag_34:\n    /* \"#utility.yul\":696:839   */\n  swap3\n  swap2\n  pop\n  pop\n  jump\t// out\n    /* \"#utility.yul\":845:1196   */\ntag_3:\n    /* \"#utility.yul\":915:921   */\n  0x00\n    /* \"#utility.yul\":964:966   */\n  0x20\n    /* \"#utility.yul\":952:961   */\n  dup3\n    /* \"#utility.yul\":943:950   */\n  dup5\n    /* \"#utility.yul\":939:962   */\n  sub\n    /* \"#utility.yul\":935:967   */\n  slt\n    /* \"#utility.yul\":932:1051   */\n  iszero\n  tag_36\n  jumpi\n    /* \"#utility.yul\":970:1049   */\n  tag_37\n  tag_16\n  jump\t// in\ntag_37:\n    /* \"#utility.yul\":932:1051   */\ntag_36:\n    /* \"#utility.yul\":1090:1091   */\n  0x00\n    /* \"#utility.yul\":1115:1179   */\n  tag_38\n    /* \"#utility.yul\":1171:1178   */\n  dup5\n    /* \"#utility.yul\":1162:1168   */\n  dup3\n    /* \"#utility.yul\":1151:1160   */\n  dup6\n    /* \"#utility.yul\":1147:1169   */\n  add\n    /* \"#utility.yul\":1115:1179   */\n  tag_21\n  jump\t// in\ntag_38:\n    /* \"#utility.yul\":1105:1179   */\n  swap2\n  pop\n    /* \"#utility.yul\":1061:1189   */\n  pop\n    /* \"#utility.yul\":845:1196   */\n  swap3\n  swap2\n  pop\n  pop\n  jump\t// out\n    /* \"#utility.yul\":1202:1320   */\ntag_22:\n    /* \"#utility.yul\":1289:1313   */\n  tag_40\n    /* \"#utility.yul\":1307:1312   */\n  dup2\n    /* \"#utility.yul\":1289:1313   */\n  tag_19\n  jump\t// in\ntag_40:\n    /* \"#utility.yul\":1284:1287   */\n  dup3\n    /* \"#utility.yul\":1277:1314   */\n  mstore\n    /* \"#utility.yul\":1202:1320   */\n  pop\n  pop\n  jump\t// out\n    /* \"#utility.yul\":1326:1548   */\ntag_9:\n    /* \"#utility.yul\":1419:1423   */\n  0x00\n    /* \"#utility.yul\":1457:1459   */\n  0x20\n    /* \"#utility.yul\":1446:1455   */\n  dup3\n    /* \"#utility.yul\":1442:1460   */\n  add\n    /* \"#utility.yul\":1434:1460   */\n  swap1\n  pop\n    /* \"#utility.yul\":1470:1541   */\n  tag_42\n    /* \"#utility.yul\":1538:1539   */\n  0x00\n    /* \"#utility.yul\":1527:1536   */\n  dup4\n    /* \"#utility.yul\":1523:1540   */\n  add\n    /* \"#utility.yul\":1514:1520   */\n  dup5\n    /* \"#utility.yul\":1470:1541   */\n  tag_22\n  jump\t// in\ntag_42:\n    /* \"#utility.yul\":1326:1548   */\n  swap3\n  swap2\n  pop\n  pop\n  jump\t// out\n    /* \"contracts/EHKD.sol\":27040:28482  contract ProxyAdmin is Ownable {... */\ntag_13:\n  dataSize(sub_0)\n  dup1\n  dataOffset(sub_0)\n  0x00\n  codecopy\n  0x00\n  return\nstop\n\nsub_0: assembly {\n        /* \"contracts/EHKD.sol\":27040:28482  contract ProxyAdmin is Ownable {... */\n      mstore(0x40, 0x80)\n      jumpi(tag_1, lt(calldatasize, 0x04))\n      shr(0xe0, calldataload(0x00))\n      dup1\n      0x715018a6\n      eq\n      tag_2\n      jumpi\n      dup1\n      0x8da5cb5b\n      eq\n      tag_3\n      jumpi\n      dup1\n      0x9623609d\n      eq\n      tag_4\n      jumpi\n      dup1\n      0xad3cb1cc\n      eq\n      tag_5\n      jumpi\n      dup1\n      0xf2fde38b\n      eq\n      tag_6\n      jumpi\n    tag_1:\n      revert(0x00, 0x00)\n        /* \"contracts/EHKD.sol\":25808:25909  function renounceOwnership() public virtual onlyOwner {... */\n    tag_2:\n      callvalue\n      dup1\n      iszero\n      tag_7\n      jumpi\n      revert(0x00, 0x00)\n    tag_7:\n      pop\n      tag_8\n      tag_9\n      jump\t// in\n    tag_8:\n      stop\n        /* \"contracts/EHKD.sol\":25153:25238  function owner() public view virtual returns (address) {... */\n    tag_3:\n      callvalue\n      dup1\n      iszero\n      tag_10\n      jumpi\n      revert(0x00, 0x00)\n    tag_10:\n      pop\n      tag_11\n      tag_12\n      jump\t// in\n    tag_11:\n      mload(0x40)\n      tag_13\n      swap2\n      swap1\n      tag_14\n      jump\t// in\n    tag_13:\n      mload(0x40)\n      dup1\n      swap2\n      sub\n      swap1\n      return\n        /* \"contracts/EHKD.sol\":28235:28480  function upgradeAndCall(... */\n    tag_4:\n      tag_15\n      0x04\n      dup1\n      calldatasize\n      sub\n      dup2\n      add\n      swap1\n      tag_16\n      swap2\n      swap1\n      tag_17\n      jump\t// in\n    tag_16:\n      tag_18\n      jump\t// in\n    tag_15:\n      stop\n        /* \"contracts/EHKD.sol\":27705:27763  string public constant UPGRADE_INTERFACE_VERSION = \"5.0.0\" */\n    tag_5:\n      callvalue\n      dup1\n      iszero\n      tag_19\n      jumpi\n      revert(0x00, 0x00)\n    tag_19:\n      pop\n      tag_20\n      tag_21\n      jump\t// in\n    tag_20:\n      mload(0x40)\n      tag_22\n      swap2\n      swap1\n      tag_23\n      jump\t// in\n    tag_22:\n      mload(0x40)\n      dup1\n      swap2\n      sub\n      swap1\n      return\n        /* \"contracts/EHKD.sol\":26058:26273  function transferOwnership(address newOwner) public virtual onlyOwner {... */\n    tag_6:\n      callvalue\n      dup1\n      iszero\n      tag_24\n      jumpi\n      revert(0x00, 0x00)\n    tag_24:\n      pop\n      tag_25\n      0x04\n      dup1\n      calldatasize\n      sub\n      dup2\n      add\n      swap1\n      tag_26\n      swap2\n      swap1\n      tag_27\n      jump\t// in\n    tag_26:\n      tag_28\n      jump\t// in\n    tag_25:\n      stop\n        /* \"contracts/EHKD.sol\":25808:25909  function renounceOwnership() public virtual onlyOwner {... */\n    tag_9:\n        /* \"contracts/EHKD.sol\":25046:25059  _checkOwner() */\n      tag_30\n        /* \"contracts/EHKD.sol\":25046:25057  _checkOwner */\n      tag_31\n        /* \"contracts/EHKD.sol\":25046:25059  _checkOwner() */\n      jump\t// in\n    tag_30:\n        /* \"contracts/EHKD.sol\":25872:25902  _transferOwnership(address(0)) */\n      tag_33\n        /* \"contracts/EHKD.sol\":25899:25900  0 */\n      0x00\n        /* \"contracts/EHKD.sol\":25872:25890  _transferOwnership */\n      tag_34\n        /* \"contracts/EHKD.sol\":25872:25902  _transferOwnership(address(0)) */\n      jump\t// in\n    tag_33:\n        /* \"contracts/EHKD.sol\":25808:25909  function renounceOwnership() public virtual onlyOwner {... */\n      jump\t// out\n        /* \"contracts/EHKD.sol\":25153:25238  function owner() public view virtual returns (address) {... */\n    tag_12:\n        /* \"contracts/EHKD.sol\":25199:25206  address */\n      0x00\n        /* \"contracts/EHKD.sol\":25225:25231  _owner */\n      0x00\n      0x00\n      swap1\n      sload\n      swap1\n      0x0100\n      exp\n      swap1\n      div\n      0xffffffffffffffffffffffffffffffffffffffff\n      and\n        /* \"contracts/EHKD.sol\":25218:25231  return _owner */\n      swap1\n      pop\n        /* \"contracts/EHKD.sol\":25153:25238  function owner() public view virtual returns (address) {... */\n      swap1\n      jump\t// out\n        /* \"contracts/EHKD.sol\":28235:28480  function upgradeAndCall(... */\n    tag_18:\n        /* \"contracts/EHKD.sol\":25046:25059  _checkOwner() */\n      tag_37\n        /* \"contracts/EHKD.sol\":25046:25057  _checkOwner */\n      tag_31\n        /* \"contracts/EHKD.sol\":25046:25059  _checkOwner() */\n      jump\t// in\n    tag_37:\n        /* \"contracts/EHKD.sol\":28411:28416  proxy */\n      dup3\n        /* \"contracts/EHKD.sol\":28411:28433  proxy.upgradeToAndCall */\n      0xffffffffffffffffffffffffffffffffffffffff\n      and\n      0x4f1ef286\n        /* \"contracts/EHKD.sol\":28441:28450  msg.value */\n      callvalue\n        /* \"contracts/EHKD.sol\":28452:28466  implementation */\n      dup5\n        /* \"contracts/EHKD.sol\":28468:28472  data */\n      dup5\n        /* \"contracts/EHKD.sol\":28411:28473  proxy.upgradeToAndCall{value: msg.value}(implementation, data) */\n      mload(0x40)\n      dup5\n      0xffffffff\n      and\n      0xe0\n      shl\n      dup2\n      mstore\n      0x04\n      add\n      tag_39\n      swap3\n      swap2\n      swap1\n      tag_40\n      jump\t// in\n    tag_39:\n      0x00\n      mload(0x40)\n      dup1\n      dup4\n      sub\n      dup2\n      dup6\n      dup9\n      dup1\n      extcodesize\n      iszero\n      dup1\n      iszero\n      tag_41\n      jumpi\n      revert(0x00, 0x00)\n    tag_41:\n      pop\n      gas\n      call\n      iszero\n      dup1\n      iszero\n      tag_43\n      jumpi\n      returndatacopy(0x00, 0x00, returndatasize)\n      revert(0x00, returndatasize)\n    tag_43:\n      pop\n      pop\n      pop\n      pop\n      pop\n        /* \"contracts/EHKD.sol\":28235:28480  function upgradeAndCall(... */\n      pop\n      pop\n      pop\n      jump\t// out\n        /* \"contracts/EHKD.sol\":27705:27763  string public constant UPGRADE_INTERFACE_VERSION = \"5.0.0\" */\n    tag_21:\n      mload(0x40)\n      dup1\n      0x40\n      add\n      0x40\n      mstore\n      dup1\n      0x05\n      dup2\n      mstore\n      0x20\n      add\n      0x352e302e30000000000000000000000000000000000000000000000000000000\n      dup2\n      mstore\n      pop\n      dup2\n      jump\t// out\n        /* \"contracts/EHKD.sol\":26058:26273  function transferOwnership(address newOwner) public virtual onlyOwner {... */\n    tag_28:\n        /* \"contracts/EHKD.sol\":25046:25059  _checkOwner() */\n      tag_45\n        /* \"contracts/EHKD.sol\":25046:25057  _checkOwner */\n      tag_31\n        /* \"contracts/EHKD.sol\":25046:25059  _checkOwner() */\n      jump\t// in\n    tag_45:\n        /* \"contracts/EHKD.sol\":26162:26163  0 */\n      0x00\n        /* \"contracts/EHKD.sol\":26142:26164  newOwner == address(0) */\n      0xffffffffffffffffffffffffffffffffffffffff\n      and\n        /* \"contracts/EHKD.sol\":26142:26150  newOwner */\n      dup2\n        /* \"contracts/EHKD.sol\":26142:26164  newOwner == address(0) */\n      0xffffffffffffffffffffffffffffffffffffffff\n      and\n      sub\n        /* \"contracts/EHKD.sol\":26138:26229  if (newOwner == address(0)) {... */\n      tag_47\n      jumpi\n        /* \"contracts/EHKD.sol\":26215:26216  0 */\n      0x00\n        /* \"contracts/EHKD.sol\":26187:26218  OwnableInvalidOwner(address(0)) */\n      mload(0x40)\n      0x1e4fbdf700000000000000000000000000000000000000000000000000000000\n      dup2\n      mstore\n      0x04\n      add\n      tag_48\n      swap2\n      swap1\n      tag_14\n      jump\t// in\n    tag_48:\n      mload(0x40)\n      dup1\n      swap2\n      sub\n      swap1\n      revert\n        /* \"contracts/EHKD.sol\":26138:26229  if (newOwner == address(0)) {... */\n    tag_47:\n        /* \"contracts/EHKD.sol\":26238:26266  _transferOwnership(newOwner) */\n      tag_49\n        /* \"contracts/EHKD.sol\":26257:26265  newOwner */\n      dup2\n        /* \"contracts/EHKD.sol\":26238:26256  _transferOwnership */\n      tag_34\n        /* \"contracts/EHKD.sol\":26238:26266  _transferOwnership(newOwner) */\n      jump\t// in\n    tag_49:\n        /* \"contracts/EHKD.sol\":26058:26273  function transferOwnership(address newOwner) public virtual onlyOwner {... */\n      pop\n      jump\t// out\n        /* \"contracts/EHKD.sol\":25311:25473  function _checkOwner() internal view virtual {... */\n    tag_31:\n        /* \"contracts/EHKD.sol\":25381:25393  _msgSender() */\n      tag_51\n        /* \"contracts/EHKD.sol\":25381:25391  _msgSender */\n      tag_52\n        /* \"contracts/EHKD.sol\":25381:25393  _msgSender() */\n      jump\t// in\n    tag_51:\n        /* \"contracts/EHKD.sol\":25370:25393  owner() != _msgSender() */\n      0xffffffffffffffffffffffffffffffffffffffff\n      and\n        /* \"contracts/EHKD.sol\":25370:25377  owner() */\n      tag_53\n        /* \"contracts/EHKD.sol\":25370:25375  owner */\n      tag_12\n        /* \"contracts/EHKD.sol\":25370:25377  owner() */\n      jump\t// in\n    tag_53:\n        /* \"contracts/EHKD.sol\":25370:25393  owner() != _msgSender() */\n      0xffffffffffffffffffffffffffffffffffffffff\n      and\n      eq\n        /* \"contracts/EHKD.sol\":25366:25467  if (owner() != _msgSender()) {... */\n      tag_54\n      jumpi\n        /* \"contracts/EHKD.sol\":25443:25455  _msgSender() */\n      tag_55\n        /* \"contracts/EHKD.sol\":25443:25453  _msgSender */\n      tag_52\n        /* \"contracts/EHKD.sol\":25443:25455  _msgSender() */\n      jump\t// in\n    tag_55:\n        /* \"contracts/EHKD.sol\":25416:25456  OwnableUnauthorizedAccount(_msgSender()) */\n      mload(0x40)\n      0x118cdaa700000000000000000000000000000000000000000000000000000000\n      dup2\n      mstore\n      0x04\n      add\n      tag_56\n      swap2\n      swap1\n      tag_14\n      jump\t// in\n    tag_56:\n      mload(0x40)\n      dup1\n      swap2\n      sub\n      swap1\n      revert\n        /* \"contracts/EHKD.sol\":25366:25467  if (owner() != _msgSender()) {... */\n    tag_54:\n        /* \"contracts/EHKD.sol\":25311:25473  function _checkOwner() internal view virtual {... */\n      jump\t// out\n        /* \"contracts/EHKD.sol\":26427:26614  function _transferOwnership(address newOwner) internal virtual {... */\n    tag_34:\n        /* \"contracts/EHKD.sol\":26500:26516  address oldOwner */\n      0x00\n        /* \"contracts/EHKD.sol\":26519:26525  _owner */\n      0x00\n      0x00\n      swap1\n      sload\n      swap1\n      0x0100\n      exp\n      swap1\n      div\n      0xffffffffffffffffffffffffffffffffffffffff\n      and\n        /* \"contracts/EHKD.sol\":26500:26525  address oldOwner = _owner */\n      swap1\n      pop\n        /* \"contracts/EHKD.sol\":26544:26552  newOwner */\n      dup2\n        /* \"contracts/EHKD.sol\":26535:26541  _owner */\n      0x00\n      0x00\n        /* \"contracts/EHKD.sol\":26535:26552  _owner = newOwner */\n      0x0100\n      exp\n      dup2\n      sload\n      dup2\n      0xffffffffffffffffffffffffffffffffffffffff\n      mul\n      not\n      and\n      swap1\n      dup4\n      0xffffffffffffffffffffffffffffffffffffffff\n      and\n      mul\n      or\n      swap1\n      sstore\n      pop\n        /* \"contracts/EHKD.sol\":26598:26606  newOwner */\n      dup2\n        /* \"contracts/EHKD.sol\":26567:26607  OwnershipTransferred(oldOwner, newOwner) */\n      0xffffffffffffffffffffffffffffffffffffffff\n      and\n        /* \"contracts/EHKD.sol\":26588:26596  oldOwner */\n      dup2\n        /* \"contracts/EHKD.sol\":26567:26607  OwnershipTransferred(oldOwner, newOwner) */\n      0xffffffffffffffffffffffffffffffffffffffff\n      and\n      0x8be0079c531659141344cd1fd0a4f28419497f9722a3daafe3b4186f6b6457e0\n      mload(0x40)\n      mload(0x40)\n      dup1\n      swap2\n      sub\n      swap1\n      log3\n        /* \"contracts/EHKD.sol\":26490:26614  {... */\n      pop\n        /* \"contracts/EHKD.sol\":26427:26614  function _transferOwnership(address newOwner) internal virtual {... */\n      pop\n      jump\t// out\n        /* \"contracts/EHKD.sol\":23218:23314  function _msgSender() internal view virtual returns (address) {... */\n    tag_52:\n        /* \"contracts/EHKD.sol\":23271:23278  address */\n      0x00\n        /* \"contracts/EHKD.sol\":23297:23307  msg.sender */\n      caller\n        /* \"contracts/EHKD.sol\":23290:23307  return msg.sender */\n      swap1\n      pop\n        /* \"contracts/EHKD.sol\":23218:23314  function _msgSender() internal view virtual returns (address) {... */\n      swap1\n      jump\t// out\n        /* \"#utility.yul\":7:133   */\n    tag_59:\n        /* \"#utility.yul\":44:51   */\n      0x00\n        /* \"#utility.yul\":84:126   */\n      0xffffffffffffffffffffffffffffffffffffffff\n        /* \"#utility.yul\":77:82   */\n      dup3\n        /* \"#utility.yul\":73:127   */\n      and\n        /* \"#utility.yul\":62:127   */\n      swap1\n      pop\n        /* \"#utility.yul\":7:133   */\n      swap2\n      swap1\n      pop\n      jump\t// out\n        /* \"#utility.yul\":139:235   */\n    tag_60:\n        /* \"#utility.yul\":176:183   */\n      0x00\n        /* \"#utility.yul\":205:229   */\n      tag_90\n        /* \"#utility.yul\":223:228   */\n      dup3\n        /* \"#utility.yul\":205:229   */\n      tag_59\n      jump\t// in\n    tag_90:\n        /* \"#utility.yul\":194:229   */\n      swap1\n      pop\n        /* \"#utility.yul\":139:235   */\n      swap2\n      swap1\n      pop\n      jump\t// out\n        /* \"#utility.yul\":241:359   */\n    tag_61:\n        /* \"#utility.yul\":328:352   */\n      tag_92\n        /* \"#utility.yul\":346:351   */\n      dup2\n        /* \"#utility.yul\":328:352   */\n      tag_60\n      jump\t// in\n    tag_92:\n        /* \"#utility.yul\":323:326   */\n      dup3\n        /* \"#utility.yul\":316:353   */\n      mstore\n        /* \"#utility.yul\":241:359   */\n      pop\n      pop\n      jump\t// out\n        /* \"#utility.yul\":365:587   */\n    tag_14:\n        /* \"#utility.yul\":458:462   */\n      0x00\n        /* \"#utility.yul\":496:498   */\n      0x20\n        /* \"#utility.yul\":485:494   */\n      dup3\n        /* \"#utility.yul\":481:499   */\n      add\n        /* \"#utility.yul\":473:499   */\n      swap1\n      pop\n        /* \"#utility.yul\":509:580   */\n      tag_94\n        /* \"#utility.yul\":577:578   */\n      0x00\n        /* \"#utility.yul\":566:575   */\n      dup4\n        /* \"#utility.yul\":562:579   */\n      add\n        /* \"#utility.yul\":553:559   */\n      dup5\n        /* \"#utility.yul\":509:580   */\n      tag_61\n      jump\t// in\n    tag_94:\n        /* \"#utility.yul\":365:587   */\n      swap3\n      swap2\n      pop\n      pop\n      jump\t// out\n        /* \"#utility.yul\":593:668   */\n    tag_62:\n        /* \"#utility.yul\":626:632   */\n      0x00\n        /* \"#utility.yul\":659:661   */\n      0x40\n        /* \"#utility.yul\":653:662   */\n      mload\n        /* \"#utility.yul\":643:662   */\n      swap1\n      pop\n        /* \"#utility.yul\":593:668   */\n      swap1\n      jump\t// out\n        /* \"#utility.yul\":674:791   */\n    tag_63:\n        /* \"#utility.yul\":783:784   */\n      0x00\n        /* \"#utility.yul\":780:781   */\n      0x00\n        /* \"#utility.yul\":773:785   */\n      revert\n        /* \"#utility.yul\":797:914   */\n    tag_64:\n        /* \"#utility.yul\":906:907   */\n      0x00\n        /* \"#utility.yul\":903:904   */\n      0x00\n        /* \"#utility.yul\":896:908   */\n      revert\n        /* \"#utility.yul\":920:1052   */\n    tag_65:\n        /* \"#utility.yul\":993:1000   */\n      0x00\n        /* \"#utility.yul\":1022:1046   */\n      tag_99\n        /* \"#utility.yul\":1040:1045   */\n      dup3\n        /* \"#utility.yul\":1022:1046   */\n      tag_60\n      jump\t// in\n    tag_99:\n        /* \"#utility.yul\":1011:1046   */\n      swap1\n      pop\n        /* \"#utility.yul\":920:1052   */\n      swap2\n      swap1\n      pop\n      jump\t// out\n        /* \"#utility.yul\":1058:1252   */\n    tag_66:\n        /* \"#utility.yul\":1167:1227   */\n      tag_101\n        /* \"#utility.yul\":1221:1226   */\n      dup2\n        /* \"#utility.yul\":1167:1227   */\n      tag_65\n      jump\t// in\n    tag_101:\n        /* \"#utility.yul\":1160:1165   */\n      dup2\n        /* \"#utility.yul\":1157:1228   */\n      eq\n        /* \"#utility.yul\":1147:1246   */\n      tag_102\n      jumpi\n        /* \"#utility.yul\":1242:1243   */\n      0x00\n        /* \"#utility.yul\":1239:1240   */\n      0x00\n        /* \"#utility.yul\":1232:1244   */\n      revert\n        /* \"#utility.yul\":1147:1246   */\n    tag_102:\n        /* \"#utility.yul\":1058:1252   */\n      pop\n      jump\t// out\n        /* \"#utility.yul\":1258:1469   */\n    tag_67:\n        /* \"#utility.yul\":1340:1345   */\n      0x00\n        /* \"#utility.yul\":1378:1384   */\n      dup2\n        /* \"#utility.yul\":1365:1385   */\n      calldataload\n        /* \"#utility.yul\":1356:1385   */\n      swap1\n      pop\n        /* \"#utility.yul\":1394:1463   */\n      tag_104\n        /* \"#utility.yul\":1457:1462   */\n      dup2\n        /* \"#utility.yul\":1394:1463   */\n      tag_66\n      jump\t// in\n    tag_104:\n        /* \"#utility.yul\":1258:1469   */\n      swap3\n      swap2\n      pop\n      pop\n      jump\t// out\n        /* \"#utility.yul\":1475:1597   */\n    tag_68:\n        /* \"#utility.yul\":1548:1572   */\n      tag_106\n        /* \"#utility.yul\":1566:1571   */\n      dup2\n        /* \"#utility.yul\":1548:1572   */\n      tag_60\n      jump\t// in\n    tag_106:\n        /* \"#utility.yul\":1541:1546   */\n      dup2\n        /* \"#utility.yul\":1538:1573   */\n      eq\n        /* \"#utility.yul\":1528:1591   */\n      tag_107\n      jumpi\n        /* \"#utility.yul\":1587:1588   */\n      0x00\n        /* \"#utility.yul\":1584:1585   */\n      0x00\n        /* \"#utility.yul\":1577:1589   */\n      revert\n        /* \"#utility.yul\":1528:1591   */\n    tag_107:\n        /* \"#utility.yul\":1475:1597   */\n      pop\n      jump\t// out\n        /* \"#utility.yul\":1603:1742   */\n    tag_69:\n        /* \"#utility.yul\":1649:1654   */\n      0x00\n        /* \"#utility.yul\":1687:1693   */\n      dup2\n        /* \"#utility.yul\":1674:1694   */\n      calldataload\n        /* \"#utility.yul\":1665:1694   */\n      swap1\n      pop\n        /* \"#utility.yul\":1703:1736   */\n      tag_109\n        /* \"#utility.yul\":1730:1735   */\n      dup2\n        /* \"#utility.yul\":1703:1736   */\n      tag_68\n      jump\t// in\n    tag_109:\n        /* \"#utility.yul\":1603:1742   */\n      swap3\n      swap2\n      pop\n      pop\n      jump\t// out\n        /* \"#utility.yul\":1748:1865   */\n    tag_70:\n        /* \"#utility.yul\":1857:1858   */\n      0x00\n        /* \"#utility.yul\":1854:1855   */\n      0x00\n        /* \"#utility.yul\":1847:1859   */\n      revert\n        /* \"#utility.yul\":1871:1988   */\n    tag_71:\n        /* \"#utility.yul\":1980:1981   */\n      0x00\n        /* \"#utility.yul\":1977:1978   */\n      0x00\n        /* \"#utility.yul\":1970:1982   */\n      revert\n        /* \"#utility.yul\":1994:2096   */\n    tag_72:\n        /* \"#utility.yul\":2035:2041   */\n      0x00\n        /* \"#utility.yul\":2086:2088   */\n      0x1f\n        /* \"#utility.yul\":2082:2089   */\n      not\n        /* \"#utility.yul\":2077:2079   */\n      0x1f\n        /* \"#utility.yul\":2070:2075   */\n      dup4\n        /* \"#utility.yul\":2066:2080   */\n      add\n        /* \"#utility.yul\":2062:2090   */\n      and\n        /* \"#utility.yul\":2052:2090   */\n      swap1\n      pop\n        /* \"#utility.yul\":1994:2096   */\n      swap2\n      swap1\n      pop\n      jump\t// out\n        /* \"#utility.yul\":2102:2282   */\n    tag_73:\n        /* \"#utility.yul\":2150:2227   */\n      0x4e487b7100000000000000000000000000000000000000000000000000000000\n        /* \"#utility.yul\":2147:2148   */\n      0x00\n        /* \"#utility.yul\":2140:2228   */\n      mstore\n        /* \"#utility.yul\":2247:2251   */\n      0x41\n        /* \"#utility.yul\":2244:2245   */\n      0x04\n        /* \"#utility.yul\":2237:2252   */\n      mstore\n        /* \"#utility.yul\":2271:2275   */\n      0x24\n        /* \"#utility.yul\":2268:2269   */\n      0x00\n        /* \"#utility.yul\":2261:2276   */\n      revert\n        /* \"#utility.yul\":2288:2569   */\n    tag_74:\n        /* \"#utility.yul\":2371:2398   */\n      tag_115\n        /* \"#utility.yul\":2393:2397   */\n      dup3\n        /* \"#utility.yul\":2371:2398   */\n      tag_72\n      jump\t// in\n    tag_115:\n        /* \"#utility.yul\":2363:2369   */\n      dup2\n        /* \"#utility.yul\":2359:2399   */\n      add\n        /* \"#utility.yul\":2501:2507   */\n      dup2\n        /* \"#utility.yul\":2489:2499   */\n      dup2\n        /* \"#utility.yul\":2486:2508   */\n      lt\n        /* \"#utility.yul\":2465:2483   */\n      0xffffffffffffffff\n        /* \"#utility.yul\":2453:2463   */\n      dup3\n        /* \"#utility.yul\":2450:2484   */\n      gt\n        /* \"#utility.yul\":2447:2509   */\n      or\n        /* \"#utility.yul\":2444:2532   */\n      iszero\n      tag_116\n      jumpi\n        /* \"#utility.yul\":2512:2530   */\n      tag_117\n      tag_73\n      jump\t// in\n    tag_117:\n        /* \"#utility.yul\":2444:2532   */\n    tag_116:\n        /* \"#utility.yul\":2552:2562   */\n      dup1\n        /* \"#utility.yul\":2548:2550   */\n      0x40\n        /* \"#utility.yul\":2541:2563   */\n      mstore\n        /* \"#utility.yul\":2331:2569   */\n      pop\n        /* \"#utility.yul\":2288:2569   */\n      pop\n      pop\n      jump\t// out\n        /* \"#utility.yul\":2575:2704   */\n    tag_75:\n        /* \"#utility.yul\":2609:2615   */\n      0x00\n        /* \"#utility.yul\":2636:2656   */\n      tag_119\n      tag_62\n      jump\t// in\n    tag_119:\n        /* \"#utility.yul\":2626:2656   */\n      swap1\n      pop\n        /* \"#utility.yul\":2665:2698   */\n      tag_120\n        /* \"#utility.yul\":2693:2697   */\n      dup3\n        /* \"#utility.yul\":2685:2691   */\n      dup3\n        /* \"#utility.yul\":2665:2698   */\n      tag_74\n      jump\t// in\n    tag_120:\n        /* \"#utility.yul\":2575:2704   */\n      swap2\n      swap1\n      pop\n      jump\t// out\n        /* \"#utility.yul\":2710:3017   */\n    tag_76:\n        /* \"#utility.yul\":2771:2775   */\n      0x00\n        /* \"#utility.yul\":2861:2879   */\n      0xffffffffffffffff\n        /* \"#utility.yul\":2853:2859   */\n      dup3\n        /* \"#utility.yul\":2850:2880   */\n      gt\n        /* \"#utility.yul\":2847:2903   */\n      iszero\n      tag_122\n      jumpi\n        /* \"#utility.yul\":2883:2901   */\n      tag_123\n      tag_73\n      jump\t// in\n    tag_123:\n        /* \"#utility.yul\":2847:2903   */\n    tag_122:\n        /* \"#utility.yul\":2921:2950   */\n      tag_124\n        /* \"#utility.yul\":2943:2949   */\n      dup3\n        /* \"#utility.yul\":2921:2950   */\n      tag_72\n      jump\t// in\n    tag_124:\n        /* \"#utility.yul\":2913:2950   */\n      swap1\n      pop\n        /* \"#utility.yul\":3005:3009   */\n      0x20\n        /* \"#utility.yul\":2999:3003   */\n      dup2\n        /* \"#utility.yul\":2995:3010   */\n      add\n        /* \"#utility.yul\":2987:3010   */\n      swap1\n      pop\n        /* \"#utility.yul\":2710:3017   */\n      swap2\n      swap1\n      pop\n      jump\t// out\n        /* \"#utility.yul\":3023:3171   */\n    tag_77:\n        /* \"#utility.yul\":3121:3127   */\n      dup3\n        /* \"#utility.yul\":3116:3119   */\n      dup2\n        /* \"#utility.yul\":3111:3114   */\n      dup4\n        /* \"#utility.yul\":3098:3128   */\n      calldatacopy\n        /* \"#utility.yul\":3162:3163   */\n      0x00\n        /* \"#utility.yul\":3153:3159   */\n      dup4\n        /* \"#utility.yul\":3148:3151   */\n      dup4\n        /* \"#utility.yul\":3144:3160   */\n      add\n        /* \"#utility.yul\":3137:3164   */\n      mstore\n        /* \"#utility.yul\":3023:3171   */\n      pop\n      pop\n      pop\n      jump\t// out\n        /* \"#utility.yul\":3177:3600   */\n    tag_78:\n        /* \"#utility.yul\":3254:3259   */\n      0x00\n        /* \"#utility.yul\":3279:3344   */\n      tag_127\n        /* \"#utility.yul\":3295:3343   */\n      tag_128\n        /* \"#utility.yul\":3336:3342   */\n      dup5\n        /* \"#utility.yul\":3295:3343   */\n      tag_76\n      jump\t// in\n    tag_128:\n        /* \"#utility.yul\":3279:3344   */\n      tag_75\n      jump\t// in\n    tag_127:\n        /* \"#utility.yul\":3270:3344   */\n      swap1\n      pop\n        /* \"#utility.yul\":3367:3373   */\n      dup3\n        /* \"#utility.yul\":3360:3365   */\n      dup2\n        /* \"#utility.yul\":3353:3374   */\n      mstore\n        /* \"#utility.yul\":3405:3409   */\n      0x20\n        /* \"#utility.yul\":3398:3403   */\n      dup2\n        /* \"#utility.yul\":3394:3410   */\n      add\n        /* \"#utility.yul\":3443:3446   */\n      dup5\n        /* \"#utility.yul\":3434:3440   */\n      dup5\n        /* \"#utility.yul\":3429:3432   */\n      dup5\n        /* \"#utility.yul\":3425:3441   */\n      add\n        /* \"#utility.yul\":3422:3447   */\n      gt\n        /* \"#utility.yul\":3419:3531   */\n      iszero\n      tag_129\n      jumpi\n        /* \"#utility.yul\":3450:3529   */\n      tag_130\n      tag_71\n      jump\t// in\n    tag_130:\n        /* \"#utility.yul\":3419:3531   */\n    tag_129:\n        /* \"#utility.yul\":3540:3594   */\n      tag_131\n        /* \"#utility.yul\":3587:3593   */\n      dup5\n        /* \"#utility.yul\":3582:3585   */\n      dup3\n        /* \"#utility.yul\":3577:3580   */\n      dup6\n        /* \"#utility.yul\":3540:3594   */\n      tag_77\n      jump\t// in\n    tag_131:\n        /* \"#utility.yul\":3260:3600   */\n      pop\n        /* \"#utility.yul\":3177:3600   */\n      swap4\n      swap3\n      pop\n      pop\n      pop\n      jump\t// out\n        /* \"#utility.yul\":3619:3957   */\n    tag_79:\n        /* \"#utility.yul\":3674:3679   */\n      0x00\n        /* \"#utility.yul\":3723:3726   */\n      dup3\n        /* \"#utility.yul\":3716:3720   */\n      0x1f\n        /* \"#utility.yul\":3708:3714   */\n      dup4\n        /* \"#utility.yul\":3704:3721   */\n      add\n        /* \"#utility.yul\":3700:3727   */\n      slt\n        /* \"#utility.yul\":3690:3812   */\n      tag_133\n      jumpi\n        /* \"#utility.yul\":3731:3810   */\n      tag_134\n      tag_70\n      jump\t// in\n    tag_134:\n        /* \"#utility.yul\":3690:3812   */\n    tag_133:\n        /* \"#utility.yul\":3848:3854   */\n      dup2\n        /* \"#utility.yul\":3835:3855   */\n      calldataload\n        /* \"#utility.yul\":3873:3951   */\n      tag_135\n        /* \"#utility.yul\":3947:3950   */\n      dup5\n        /* \"#utility.yul\":3939:3945   */\n      dup3\n        /* \"#utility.yul\":3932:3936   */\n      0x20\n        /* \"#utility.yul\":3924:3930   */\n      dup7\n        /* \"#utility.yul\":3920:3937   */\n      add\n        /* \"#utility.yul\":3873:3951   */\n      tag_78\n      jump\t// in\n    tag_135:\n        /* \"#utility.yul\":3864:3951   */\n      swap2\n      pop\n        /* \"#utility.yul\":3680:3957   */\n      pop\n        /* \"#utility.yul\":3619:3957   */\n      swap3\n      swap2\n      pop\n      pop\n      jump\t// out\n        /* \"#utility.yul\":3963:4832   */\n    tag_17:\n        /* \"#utility.yul\":4085:4091   */\n      0x00\n        /* \"#utility.yul\":4093:4099   */\n      0x00\n        /* \"#utility.yul\":4101:4107   */\n      0x00\n        /* \"#utility.yul\":4150:4152   */\n      0x60\n        /* \"#utility.yul\":4138:4147   */\n      dup5\n        /* \"#utility.yul\":4129:4136   */\n      dup7\n        /* \"#utility.yul\":4125:4148   */\n      sub\n        /* \"#utility.yul\":4121:4153   */\n      slt\n        /* \"#utility.yul\":4118:4237   */\n      iszero\n      tag_137\n      jumpi\n        /* \"#utility.yul\":4156:4235   */\n      tag_138\n      tag_63\n      jump\t// in\n    tag_138:\n        /* \"#utility.yul\":4118:4237   */\n    tag_137:\n        /* \"#utility.yul\":4276:4277   */\n      0x00\n        /* \"#utility.yul\":4301:4390   */\n      tag_139\n        /* \"#utility.yul\":4382:4389   */\n      dup7\n        /* \"#utility.yul\":4373:4379   */\n      dup3\n        /* \"#utility.yul\":4362:4371   */\n      dup8\n        /* \"#utility.yul\":4358:4380   */\n      add\n        /* \"#utility.yul\":4301:4390   */\n      tag_67\n      jump\t// in\n    tag_139:\n        /* \"#utility.yul\":4291:4390   */\n      swap4\n      pop\n        /* \"#utility.yul\":4247:4400   */\n      pop\n        /* \"#utility.yul\":4439:4441   */\n      0x20\n        /* \"#utility.yul\":4465:4518   */\n      tag_140\n        /* \"#utility.yul\":4510:4517   */\n      dup7\n        /* \"#utility.yul\":4501:4507   */\n      dup3\n        /* \"#utility.yul\":4490:4499   */\n      dup8\n        /* \"#utility.yul\":4486:4508   */\n      add\n        /* \"#utility.yul\":4465:4518   */\n      tag_69\n      jump\t// in\n    tag_140:\n        /* \"#utility.yul\":4455:4518   */\n      swap3\n      pop\n        /* \"#utility.yul\":4410:4528   */\n      pop\n        /* \"#utility.yul\":4595:4597   */\n      0x40\n        /* \"#utility.yul\":4584:4593   */\n      dup5\n        /* \"#utility.yul\":4580:4598   */\n      add\n        /* \"#utility.yul\":4567:4599   */\n      calldataload\n        /* \"#utility.yul\":4626:4644   */\n      0xffffffffffffffff\n        /* \"#utility.yul\":4618:4624   */\n      dup2\n        /* \"#utility.yul\":4615:4645   */\n      gt\n        /* \"#utility.yul\":4612:4729   */\n      iszero\n      tag_141\n      jumpi\n        /* \"#utility.yul\":4648:4727   */\n      tag_142\n      tag_64\n      jump\t// in\n    tag_142:\n        /* \"#utility.yul\":4612:4729   */\n    tag_141:\n        /* \"#utility.yul\":4753:4815   */\n      tag_143\n        /* \"#utility.yul\":4807:4814   */\n      dup7\n        /* \"#utility.yul\":4798:4804   */\n      dup3\n        /* \"#utility.yul\":4787:4796   */\n      dup8\n        /* \"#utility.yul\":4783:4805   */\n      add\n        /* \"#utility.yul\":4753:4815   */\n      tag_79\n      jump\t// in\n    tag_143:\n        /* \"#utility.yul\":4743:4815   */\n      swap2\n      pop\n        /* \"#utility.yul\":4538:4825   */\n      pop\n        /* \"#utility.yul\":3963:4832   */\n      swap3\n      pop\n      swap3\n      pop\n      swap3\n      jump\t// out\n        /* \"#utility.yul\":4838:4937   */\n    tag_80:\n        /* \"#utility.yul\":4890:4896   */\n      0x00\n        /* \"#utility.yul\":4924:4929   */\n      dup2\n        /* \"#utility.yul\":4918:4930   */\n      mload\n        /* \"#utility.yul\":4908:4930   */\n      swap1\n      pop\n        /* \"#utility.yul\":4838:4937   */\n      swap2\n      swap1\n      pop\n      jump\t// out\n        /* \"#utility.yul\":4943:5112   */\n    tag_81:\n        /* \"#utility.yul\":5027:5038   */\n      0x00\n        /* \"#utility.yul\":5061:5067   */\n      dup3\n        /* \"#utility.yul\":5056:5059   */\n      dup3\n        /* \"#utility.yul\":5049:5068   */\n      mstore\n        /* \"#utility.yul\":5101:5105   */\n      0x20\n        /* \"#utility.yul\":5096:5099   */\n      dup3\n        /* \"#utility.yul\":5092:5106   */\n      add\n        /* \"#utility.yul\":5077:5106   */\n      swap1\n      pop\n        /* \"#utility.yul\":4943:5112   */\n      swap3\n      swap2\n      pop\n      pop\n      jump\t// out\n        /* \"#utility.yul\":5118:5257   */\n    tag_82:\n        /* \"#utility.yul\":5207:5213   */\n      dup3\n        /* \"#utility.yul\":5202:5205   */\n      dup2\n        /* \"#utility.yul\":5197:5200   */\n      dup4\n        /* \"#utility.yul\":5191:5214   */\n      mcopy\n        /* \"#utility.yul\":5248:5249   */\n      0x00\n        /* \"#utility.yul\":5239:5245   */\n      dup4\n        /* \"#utility.yul\":5234:5237   */\n      dup4\n        /* \"#utility.yul\":5230:5246   */\n      add\n        /* \"#utility.yul\":5223:5250   */\n      mstore\n        /* \"#utility.yul\":5118:5257   */\n      pop\n      pop\n      pop\n      jump\t// out\n        /* \"#utility.yul\":5263:5640   */\n    tag_83:\n        /* \"#utility.yul\":5351:5354   */\n      0x00\n        /* \"#utility.yul\":5379:5418   */\n      tag_148\n        /* \"#utility.yul\":5412:5417   */\n      dup3\n        /* \"#utility.yul\":5379:5418   */\n      tag_80\n      jump\t// in\n    tag_148:\n        /* \"#utility.yul\":5434:5505   */\n      tag_149\n        /* \"#utility.yul\":5498:5504   */\n      dup2\n        /* \"#utility.yul\":5493:5496   */\n      dup6\n        /* \"#utility.yul\":5434:5505   */\n      tag_81\n      jump\t// in\n    tag_149:\n        /* \"#utility.yul\":5427:5505   */\n      swap4\n      pop\n        /* \"#utility.yul\":5514:5579   */\n      tag_150\n        /* \"#utility.yul\":5572:5578   */\n      dup2\n        /* \"#utility.yul\":5567:5570   */\n      dup6\n        /* \"#utility.yul\":5560:5564   */\n      0x20\n        /* \"#utility.yul\":5553:5558   */\n      dup7\n        /* \"#utility.yul\":5549:5565   */\n      add\n        /* \"#utility.yul\":5514:5579   */\n      tag_82\n      jump\t// in\n    tag_150:\n        /* \"#utility.yul\":5604:5633   */\n      tag_151\n        /* \"#utility.yul\":5626:5632   */\n      dup2\n        /* \"#utility.yul\":5604:5633   */\n      tag_72\n      jump\t// in\n    tag_151:\n        /* \"#utility.yul\":5599:5602   */\n      dup5\n        /* \"#utility.yul\":5595:5634   */\n      add\n        /* \"#utility.yul\":5588:5634   */\n      swap2\n      pop\n        /* \"#utility.yul\":5355:5640   */\n      pop\n        /* \"#utility.yul\":5263:5640   */\n      swap3\n      swap2\n      pop\n      pop\n      jump\t// out\n        /* \"#utility.yul\":5646:5959   */\n    tag_23:\n        /* \"#utility.yul\":5759:5763   */\n      0x00\n        /* \"#utility.yul\":5797:5799   */\n      0x20\n        /* \"#utility.yul\":5786:5795   */\n      dup3\n        /* \"#utility.yul\":5782:5800   */\n      add\n        /* \"#utility.yul\":5774:5800   */\n      swap1\n      pop\n        /* \"#utility.yul\":5846:5855   */\n      dup2\n        /* \"#utility.yul\":5840:5844   */\n      dup2\n        /* \"#utility.yul\":5836:5856   */\n      sub\n        /* \"#utility.yul\":5832:5833   */\n      0x00\n        /* \"#utility.yul\":5821:5830   */\n      dup4\n        /* \"#utility.yul\":5817:5834   */\n      add\n        /* \"#utility.yul\":5810:5857   */\n      mstore\n        /* \"#utility.yul\":5874:5952   */\n      tag_153\n        /* \"#utility.yul\":5947:5951   */\n      dup2\n        /* \"#utility.yul\":5938:5944   */\n      dup5\n        /* \"#utility.yul\":5874:5952   */\n      tag_83\n      jump\t// in\n    tag_153:\n        /* \"#utility.yul\":5866:5952   */\n      swap1\n      pop\n        /* \"#utility.yul\":5646:5959   */\n      swap3\n      swap2\n      pop\n      pop\n      jump\t// out\n        /* \"#utility.yul\":5965:6294   */\n    tag_27:\n        /* \"#utility.yul\":6024:6030   */\n      0x00\n        /* \"#utility.yul\":6073:6075   */\n      0x20\n        /* \"#utility.yul\":6061:6070   */\n      dup3\n        /* \"#utility.yul\":6052:6059   */\n      dup5\n        /* \"#utility.yul\":6048:6071   */\n      sub\n        /* \"#utility.yul\":6044:6076   */\n      slt\n        /* \"#utility.yul\":6041:6160   */\n      iszero\n      tag_155\n      jumpi\n        /* \"#utility.yul\":6079:6158   */\n      tag_156\n      tag_63\n      jump\t// in\n    tag_156:\n        /* \"#utility.yul\":6041:6160   */\n    tag_155:\n        /* \"#utility.yul\":6199:6200   */\n      0x00\n        /* \"#utility.yul\":6224:6277   */\n      tag_157\n        /* \"#utility.yul\":6269:6276   */\n      dup5\n        /* \"#utility.yul\":6260:6266   */\n      dup3\n        /* \"#utility.yul\":6249:6258   */\n      dup6\n        /* \"#utility.yul\":6245:6267   */\n      add\n        /* \"#utility.yul\":6224:6277   */\n      tag_69\n      jump\t// in\n    tag_157:\n        /* \"#utility.yul\":6214:6277   */\n      swap2\n      pop\n        /* \"#utility.yul\":6170:6287   */\n      pop\n        /* \"#utility.yul\":5965:6294   */\n      swap3\n      swap2\n      pop\n      pop\n      jump\t// out\n        /* \"#utility.yul\":6300:6398   */\n    tag_84:\n        /* \"#utility.yul\":6351:6357   */\n      0x00\n        /* \"#utility.yul\":6385:6390   */\n      dup2\n        /* \"#utility.yul\":6379:6391   */\n      mload\n        /* \"#utility.yul\":6369:6391   */\n      swap1\n      pop\n        /* \"#utility.yul\":6300:6398   */\n      swap2\n      swap1\n      pop\n      jump\t// out\n        /* \"#utility.yul\":6404:6572   */\n    tag_85:\n        /* \"#utility.yul\":6487:6498   */\n      0x00\n        /* \"#utility.yul\":6521:6527   */\n      dup3\n        /* \"#utility.yul\":6516:6519   */\n      dup3\n        /* \"#utility.yul\":6509:6528   */\n      mstore\n        /* \"#utility.yul\":6561:6565   */\n      0x20\n        /* \"#utility.yul\":6556:6559   */\n      dup3\n        /* \"#utility.yul\":6552:6566   */\n      add\n        /* \"#utility.yul\":6537:6566   */\n      swap1\n      pop\n        /* \"#utility.yul\":6404:6572   */\n      swap3\n      swap2\n      pop\n      pop\n      jump\t// out\n        /* \"#utility.yul\":6578:6951   */\n    tag_86:\n        /* \"#utility.yul\":6664:6667   */\n      0x00\n        /* \"#utility.yul\":6692:6730   */\n      tag_161\n        /* \"#utility.yul\":6724:6729   */\n      dup3\n        /* \"#utility.yul\":6692:6730   */\n      tag_84\n      jump\t// in\n    tag_161:\n        /* \"#utility.yul\":6746:6816   */\n      tag_162\n        /* \"#utility.yul\":6809:6815   */\n      dup2\n        /* \"#utility.yul\":6804:6807   */\n      dup6\n        /* \"#utility.yul\":6746:6816   */\n      tag_85\n      jump\t// in\n    tag_162:\n        /* \"#utility.yul\":6739:6816   */\n      swap4\n      pop\n        /* \"#utility.yul\":6825:6890   */\n      tag_163\n        /* \"#utility.yul\":6883:6889   */\n      dup2\n        /* \"#utility.yul\":6878:6881   */\n      dup6\n        /* \"#utility.yul\":6871:6875   */\n      0x20\n        /* \"#utility.yul\":6864:6869   */\n      dup7\n        /* \"#utility.yul\":6860:6876   */\n      add\n        /* \"#utility.yul\":6825:6890   */\n      tag_82\n      jump\t// in\n    tag_163:\n        /* \"#utility.yul\":6915:6944   */\n      tag_164\n        /* \"#utility.yul\":6937:6943   */\n      dup2\n        /* \"#utility.yul\":6915:6944   */\n      tag_72\n      jump\t// in\n    tag_164:\n        /* \"#utility.yul\":6910:6913   */\n      dup5\n        /* \"#utility.yul\":6906:6945   */\n      add\n        /* \"#utility.yul\":6899:6945   */\n      swap2\n      pop\n        /* \"#utility.yul\":6668:6951   */\n      pop\n        /* \"#utility.yul\":6578:6951   */\n      swap3\n      swap2\n      pop\n      pop\n      jump\t// out\n        /* \"#utility.yul\":6957:7376   */\n    tag_40:\n        /* \"#utility.yul\":7096:7100   */\n      0x00\n        /* \"#utility.yul\":7134:7136   */\n      0x40\n        /* \"#utility.yul\":7123:7132   */\n      dup3\n        /* \"#utility.yul\":7119:7137   */\n      add\n        /* \"#utility.yul\":7111:7137   */\n      swap1\n      pop\n        /* \"#utility.yul\":7147:7218   */\n      tag_166\n        /* \"#utility.yul\":7215:7216   */\n      0x00\n        /* \"#utility.yul\":7204:7213   */\n      dup4\n        /* \"#utility.yul\":7200:7217   */\n      add\n        /* \"#utility.yul\":7191:7197   */\n      dup6\n        /* \"#utility.yul\":7147:7218   */\n      tag_61\n      jump\t// in\n    tag_166:\n        /* \"#utility.yul\":7265:7274   */\n      dup2\n        /* \"#utility.yul\":7259:7263   */\n      dup2\n        /* \"#utility.yul\":7255:7275   */\n      sub\n        /* \"#utility.yul\":7250:7252   */\n      0x20\n        /* \"#utility.yul\":7239:7248   */\n      dup4\n        /* \"#utility.yul\":7235:7253   */\n      add\n        /* \"#utility.yul\":7228:7276   */\n      mstore\n        /* \"#utility.yul\":7293:7369   */\n      tag_167\n        /* \"#utility.yul\":7364:7368   */\n      dup2\n        /* \"#utility.yul\":7355:7361   */\n      dup5\n        /* \"#utility.yul\":7293:7369   */\n      tag_86\n      jump\t// in\n    tag_167:\n        /* \"#utility.yul\":7285:7369   */\n      swap1\n      pop\n        /* \"#utility.yul\":6957:7376   */\n      swap4\n      swap3\n      pop\n      pop\n      pop\n      jump\t// out\n\n    auxdata: 0xa2646970667358221220224790aa2193b78c0ef1f79af122e30cbe80a652d66fb18ad66bc491d7fc2f9464736f6c634300081f0033\n}\n",
				"bytecode": {
					"linkReferences": {},
					"object": "608060405234801561000f575f5ffd5b506040516109c63803806109c6833981810160405281019061003191906101d7565b805f73ffffffffffffffffffffffffffffffffffffffff168173ffffffffffffffffffffffffffffffffffffffff16036100a2575f6040517f1e4fbdf70000000000000000000000000000000000000000000000000000000081526004016100999190610211565b60405180910390fd5b6100b1816100b860201b60201c565b505061022a565b5f5f5f9054906101000a900473ffffffffffffffffffffffffffffffffffffffff169050815f5f6101000a81548173ffffffffffffffffffffffffffffffffffffffff021916908373ffffffffffffffffffffffffffffffffffffffff1602179055508173ffffffffffffffffffffffffffffffffffffffff168173ffffffffffffffffffffffffffffffffffffffff167f8be0079c531659141344cd1fd0a4f28419497f9722a3daafe3b4186f6b6457e060405160405180910390a35050565b5f5ffd5b5f73ffffffffffffffffffffffffffffffffffffffff82169050919050565b5f6101a68261017d565b9050919050565b6101b68161019c565b81146101c0575f5ffd5b50565b5f815190506101d1816101ad565b92915050565b5f602082840312156101ec576101eb610179565b5b5f6101f9848285016101c3565b91505092915050565b61020b8161019c565b82525050565b5f6020820190506102245f830184610202565b92915050565b61078f806102375f395ff3fe608060405260043610610049575f3560e01c8063715018a61461004d5780638da5cb5b146100635780639623609d1461008d578063ad3cb1cc146100a9578063f2fde38b146100d3575b5f5ffd5b348015610058575f5ffd5b506100616100fb565b005b34801561006e575f5ffd5b5061007761010e565b60405161008491906103f7565b60405180910390f35b6100a760048036038101906100a291906105c2565b610135565b005b3480156100b4575f5ffd5b506100bd6101ac565b6040516100ca919061068e565b60405180910390f35b3480156100de575f5ffd5b506100f960048036038101906100f491906106ae565b6101e5565b005b610103610269565b61010c5f6102f0565b565b5f5f5f9054906101000a900473ffffffffffffffffffffffffffffffffffffffff16905090565b61013d610269565b8273ffffffffffffffffffffffffffffffffffffffff16634f1ef2863484846040518463ffffffff1660e01b815260040161017992919061072b565b5f604051808303818588803b158015610190575f5ffd5b505af11580156101a2573d5f5f3e3d5ffd5b5050505050505050565b6040518060400160405280600581526020017f352e302e3000000000000000000000000000000000000000000000000000000081525081565b6101ed610269565b5f73ffffffffffffffffffffffffffffffffffffffff168173ffffffffffffffffffffffffffffffffffffffff160361025d575f6040517f1e4fbdf700000000000000000000000000000000000000000000000000000000815260040161025491906103f7565b60405180910390fd5b610266816102f0565b50565b6102716103b1565b73ffffffffffffffffffffffffffffffffffffffff1661028f61010e565b73ffffffffffffffffffffffffffffffffffffffff16146102ee576102b26103b1565b6040517f118cdaa70000000000000000000000000000000000000000000000000000000081526004016102e591906103f7565b60405180910390fd5b565b5f5f5f9054906101000a900473ffffffffffffffffffffffffffffffffffffffff169050815f5f6101000a81548173ffffffffffffffffffffffffffffffffffffffff021916908373ffffffffffffffffffffffffffffffffffffffff1602179055508173ffffffffffffffffffffffffffffffffffffffff168173ffffffffffffffffffffffffffffffffffffffff167f8be0079c531659141344cd1fd0a4f28419497f9722a3daafe3b4186f6b6457e060405160405180910390a35050565b5f33905090565b5f73ffffffffffffffffffffffffffffffffffffffff82169050919050565b5f6103e1826103b8565b9050919050565b6103f1816103d7565b82525050565b5f60208201905061040a5f8301846103e8565b92915050565b5f604051905090565b5f5ffd5b5f5ffd5b5f61042b826103d7565b9050919050565b61043b81610421565b8114610445575f5ffd5b50565b5f8135905061045681610432565b92915050565b610465816103d7565b811461046f575f5ffd5b50565b5f813590506104808161045c565b92915050565b5f5ffd5b5f5ffd5b5f601f19601f8301169050919050565b7f4e487b71000000000000000000000000000000000000000000000000000000005f52604160045260245ffd5b6104d48261048e565b810181811067ffffffffffffffff821117156104f3576104f261049e565b5b80604052505050565b5f610505610410565b905061051182826104cb565b919050565b5f67ffffffffffffffff8211156105305761052f61049e565b5b6105398261048e565b9050602081019050919050565b828183375f83830152505050565b5f61056661056184610516565b6104fc565b9050828152602081018484840111156105825761058161048a565b5b61058d848285610546565b509392505050565b5f82601f8301126105a9576105a8610486565b5b81356105b9848260208601610554565b91505092915050565b5f5f5f606084860312156105d9576105d8610419565b5b5f6105e686828701610448565b93505060206105f786828701610472565b925050604084013567ffffffffffffffff8111156106185761061761041d565b5b61062486828701610595565b9150509250925092565b5f81519050919050565b5f82825260208201905092915050565b8281835e5f83830152505050565b5f6106608261062e565b61066a8185610638565b935061067a818560208601610648565b6106838161048e565b840191505092915050565b5f6020820190508181035f8301526106a68184610656565b905092915050565b5f602082840312156106c3576106c2610419565b5b5f6106d084828501610472565b91505092915050565b5f81519050919050565b5f82825260208201905092915050565b5f6106fd826106d9565b61070781856106e3565b9350610717818560208601610648565b6107208161048e565b840191505092915050565b5f60408201905061073e5f8301856103e8565b818103602083015261075081846106f3565b9050939250505056fea2646970667358221220224790aa2193b78c0ef1f79af122e30cbe80a652d66fb18ad66bc491d7fc2f9464736f6c634300081f0033",
					"opcodes": "PUSH1 0x80 PUSH1 0x40 MSTORE CALLVALUE DUP1 ISZERO PUSH2 0xF JUMPI PUSH0 PUSH0 REVERT JUMPDEST POP PUSH1 0x40 MLOAD PUSH2 0x9C6 CODESIZE SUB DUP1 PUSH2 0x9C6 DUP4 CODECOPY DUP2 DUP2 ADD PUSH1 0x40 MSTORE DUP2 ADD SWAP1 PUSH2 0x31 SWAP2 SWAP1 PUSH2 0x1D7 JUMP JUMPDEST DUP1 PUSH0 PUSH20 0xFFFFFFFFFFFFFFFFFFFFFFFFFFFFFFFFFFFFFFFF AND DUP2 PUSH20 0xFFFFFFFFFFFFFFFFFFFFFFFFFFFFFFFFFFFFFFFF AND SUB PUSH2 0xA2 JUMPI PUSH0 PUSH1 0x40 MLOAD PUSH32 0x1E4FBDF700000000000000000000000000000000000000000000000000000000 DUP2 MSTORE PUSH1 0x4 ADD PUSH2 0x99 SWAP2 SWAP1 PUSH2 0x211 JUMP JUMPDEST PUSH1 0x40 MLOAD DUP1 SWAP2 SUB SWAP1 REVERT JUMPDEST PUSH2 0xB1 DUP2 PUSH2 0xB8 PUSH1 0x20 SHL PUSH1 0x20 SHR JUMP JUMPDEST POP POP PUSH2 0x22A JUMP JUMPDEST PUSH0 PUSH0 PUSH0 SWAP1 SLOAD SWAP1 PUSH2 0x100 EXP SWAP1 DIV PUSH20 0xFFFFFFFFFFFFFFFFFFFFFFFFFFFFFFFFFFFFFFFF AND SWAP1 POP DUP2 PUSH0 PUSH0 PUSH2 0x100 EXP DUP2 SLOAD DUP2 PUSH20 0xFFFFFFFFFFFFFFFFFFFFFFFFFFFFFFFFFFFFFFFF MUL NOT AND SWAP1 DUP4 PUSH20 0xFFFFFFFFFFFFFFFFFFFFFFFFFFFFFFFFFFFFFFFF AND MUL OR SWAP1 SSTORE POP DUP2 PUSH20 0xFFFFFFFFFFFFFFFFFFFFFFFFFFFFFFFFFFFFFFFF AND DUP2 PUSH20 0xFFFFFFFFFFFFFFFFFFFFFFFFFFFFFFFFFFFFFFFF AND PUSH32 0x8BE0079C531659141344CD1FD0A4F28419497F9722A3DAAFE3B4186F6B6457E0 PUSH1 0x40 MLOAD PUSH1 0x40 MLOAD DUP1 SWAP2 SUB SWAP1 LOG3 POP POP JUMP JUMPDEST PUSH0 PUSH0 REVERT JUMPDEST PUSH0 PUSH20 0xFFFFFFFFFFFFFFFFFFFFFFFFFFFFFFFFFFFFFFFF DUP3 AND SWAP1 POP SWAP2 SWAP1 POP JUMP JUMPDEST PUSH0 PUSH2 0x1A6 DUP3 PUSH2 0x17D JUMP JUMPDEST SWAP1 POP SWAP2 SWAP1 POP JUMP JUMPDEST PUSH2 0x1B6 DUP2 PUSH2 0x19C JUMP JUMPDEST DUP2 EQ PUSH2 0x1C0 JUMPI PUSH0 PUSH0 REVERT JUMPDEST POP JUMP JUMPDEST PUSH0 DUP2 MLOAD SWAP1 POP PUSH2 0x1D1 DUP2 PUSH2 0x1AD JUMP JUMPDEST SWAP3 SWAP2 POP POP JUMP JUMPDEST PUSH0 PUSH1 0x20 DUP3 DUP5 SUB SLT ISZERO PUSH2 0x1EC JUMPI PUSH2 0x1EB PUSH2 0x179 JUMP JUMPDEST JUMPDEST PUSH0 PUSH2 0x1F9 DUP5 DUP3 DUP6 ADD PUSH2 0x1C3 JUMP JUMPDEST SWAP2 POP POP SWAP3 SWAP2 POP POP JUMP JUMPDEST PUSH2 0x20B DUP2 PUSH2 0x19C JUMP JUMPDEST DUP3 MSTORE POP POP JUMP JUMPDEST PUSH0 PUSH1 0x20 DUP3 ADD SWAP1 POP PUSH2 0x224 PUSH0 DUP4 ADD DUP5 PUSH2 0x202 JUMP JUMPDEST SWAP3 SWAP2 POP POP JUMP JUMPDEST PUSH2 0x78F DUP1 PUSH2 0x237 PUSH0 CODECOPY PUSH0 RETURN INVALID PUSH1 0x80 PUSH1 0x40 MSTORE PUSH1 0x4 CALLDATASIZE LT PUSH2 0x49 JUMPI PUSH0 CALLDATALOAD PUSH1 0xE0 SHR DUP1 PUSH4 0x715018A6 EQ PUSH2 0x4D JUMPI DUP1 PUSH4 0x8DA5CB5B EQ PUSH2 0x63 JUMPI DUP1 PUSH4 0x9623609D EQ PUSH2 0x8D JUMPI DUP1 PUSH4 0xAD3CB1CC EQ PUSH2 0xA9 JUMPI DUP1 PUSH4 0xF2FDE38B EQ PUSH2 0xD3 JUMPI JUMPDEST PUSH0 PUSH0 REVERT JUMPDEST CALLVALUE DUP1 ISZERO PUSH2 0x58 JUMPI PUSH0 PUSH0 REVERT JUMPDEST POP PUSH2 0x61 PUSH2 0xFB JUMP JUMPDEST STOP JUMPDEST CALLVALUE DUP1 ISZERO PUSH2 0x6E JUMPI PUSH0 PUSH0 REVERT JUMPDEST POP PUSH2 0x77 PUSH2 0x10E JUMP JUMPDEST PUSH1 0x40 MLOAD PUSH2 0x84 SWAP2 SWAP1 PUSH2 0x3F7 JUMP JUMPDEST PUSH1 0x40 MLOAD DUP1 SWAP2 SUB SWAP1 RETURN JUMPDEST PUSH2 0xA7 PUSH1 0x4 DUP1 CALLDATASIZE SUB DUP2 ADD SWAP1 PUSH2 0xA2 SWAP2 SWAP1 PUSH2 0x5C2 JUMP JUMPDEST PUSH2 0x135 JUMP JUMPDEST STOP JUMPDEST CALLVALUE DUP1 ISZERO PUSH2 0xB4 JUMPI PUSH0 PUSH0 REVERT JUMPDEST POP PUSH2 0xBD PUSH2 0x1AC JUMP JUMPDEST PUSH1 0x40 MLOAD PUSH2 0xCA SWAP2 SWAP1 PUSH2 0x68E JUMP JUMPDEST PUSH1 0x40 MLOAD DUP1 SWAP2 SUB SWAP1 RETURN JUMPDEST CALLVALUE DUP1 ISZERO PUSH2 0xDE JUMPI PUSH0 PUSH0 REVERT JUMPDEST POP PUSH2 0xF9 PUSH1 0x4 DUP1 CALLDATASIZE SUB DUP2 ADD SWAP1 PUSH2 0xF4 SWAP2 SWAP1 PUSH2 0x6AE JUMP JUMPDEST PUSH2 0x1E5 JUMP JUMPDEST STOP JUMPDEST PUSH2 0x103 PUSH2 0x269 JUMP JUMPDEST PUSH2 0x10C PUSH0 PUSH2 0x2F0 JUMP JUMPDEST JUMP JUMPDEST PUSH0 PUSH0 PUSH0 SWAP1 SLOAD SWAP1 PUSH2 0x100 EXP SWAP1 DIV PUSH20 0xFFFFFFFFFFFFFFFFFFFFFFFFFFFFFFFFFFFFFFFF AND SWAP1 POP SWAP1 JUMP JUMPDEST PUSH2 0x13D PUSH2 0x269 JUMP JUMPDEST DUP3 PUSH20 0xFFFFFFFFFFFFFFFFFFFFFFFFFFFFFFFFFFFFFFFF AND PUSH4 0x4F1EF286 CALLVALUE DUP5 DUP5 PUSH1 0x40 MLOAD DUP5 PUSH4 0xFFFFFFFF AND PUSH1 0xE0 SHL DUP2 MSTORE PUSH1 0x4 ADD PUSH2 0x179 SWAP3 SWAP2 SWAP1 PUSH2 0x72B JUMP JUMPDEST PUSH0 PUSH1 0x40 MLOAD DUP1 DUP4 SUB DUP2 DUP6 DUP9 DUP1 EXTCODESIZE ISZERO DUP1 ISZERO PUSH2 0x190 JUMPI PUSH0 PUSH0 REVERT JUMPDEST POP GAS CALL ISZERO DUP1 ISZERO PUSH2 0x1A2 JUMPI RETURNDATASIZE PUSH0 PUSH0 RETURNDATACOPY RETURNDATASIZE PUSH0 REVERT JUMPDEST POP POP POP POP POP POP POP POP JUMP JUMPDEST PUSH1 0x40 MLOAD DUP1 PUSH1 0x40 ADD PUSH1 0x40 MSTORE DUP1 PUSH1 0x5 DUP2 MSTORE PUSH1 0x20 ADD PUSH32 0x352E302E30000000000000000000000000000000000000000000000000000000 DUP2 MSTORE POP DUP2 JUMP JUMPDEST PUSH2 0x1ED PUSH2 0x269 JUMP JUMPDEST PUSH0 PUSH20 0xFFFFFFFFFFFFFFFFFFFFFFFFFFFFFFFFFFFFFFFF AND DUP2 PUSH20 0xFFFFFFFFFFFFFFFFFFFFFFFFFFFFFFFFFFFFFFFF AND SUB PUSH2 0x25D JUMPI PUSH0 PUSH1 0x40 MLOAD PUSH32 0x1E4FBDF700000000000000000000000000000000000000000000000000000000 DUP2 MSTORE PUSH1 0x4 ADD PUSH2 0x254 SWAP2 SWAP1 PUSH2 0x3F7 JUMP JUMPDEST PUSH1 0x40 MLOAD DUP1 SWAP2 SUB SWAP1 REVERT JUMPDEST PUSH2 0x266 DUP2 PUSH2 0x2F0 JUMP JUMPDEST POP JUMP JUMPDEST PUSH2 0x271 PUSH2 0x3B1 JUMP JUMPDEST PUSH20 0xFFFFFFFFFFFFFFFFFFFFFFFFFFFFFFFFFFFFFFFF AND PUSH2 0x28F PUSH2 0x10E JUMP JUMPDEST PUSH20 0xFFFFFFFFFFFFFFFFFFFFFFFFFFFFFFFFFFFFFFFF AND EQ PUSH2 0x2EE JUMPI PUSH2 0x2B2 PUSH2 0x3B1 JUMP JUMPDEST PUSH1 0x40 MLOAD PUSH32 0x118CDAA700000000000000000000000000000000000000000000000000000000 DUP2 MSTORE PUSH1 0x4 ADD PUSH2 0x2E5 SWAP2 SWAP1 PUSH2 0x3F7 JUMP JUMPDEST PUSH1 0x40 MLOAD DUP1 SWAP2 SUB SWAP1 REVERT JUMPDEST JUMP JUMPDEST PUSH0 PUSH0 PUSH0 SWAP1 SLOAD SWAP1 PUSH2 0x100 EXP SWAP1 DIV PUSH20 0xFFFFFFFFFFFFFFFFFFFFFFFFFFFFFFFFFFFFFFFF AND SWAP1 POP DUP2 PUSH0 PUSH0 PUSH2 0x100 EXP DUP2 SLOAD DUP2 PUSH20 0xFFFFFFFFFFFFFFFFFFFFFFFFFFFFFFFFFFFFFFFF MUL NOT AND SWAP1 DUP4 PUSH20 0xFFFFFFFFFFFFFFFFFFFFFFFFFFFFFFFFFFFFFFFF AND MUL OR SWAP1 SSTORE POP DUP2 PUSH20 0xFFFFFFFFFFFFFFFFFFFFFFFFFFFFFFFFFFFFFFFF AND DUP2 PUSH20 0xFFFFFFFFFFFFFFFFFFFFFFFFFFFFFFFFFFFFFFFF AND PUSH32 0x8BE0079C531659141344CD1FD0A4F28419497F9722A3DAAFE3B4186F6B6457E0 PUSH1 0x40 MLOAD PUSH1 0x40 MLOAD DUP1 SWAP2 SUB SWAP1 LOG3 POP POP JUMP JUMPDEST PUSH0 CALLER SWAP1 POP SWAP1 JUMP JUMPDEST PUSH0 PUSH20 0xFFFFFFFFFFFFFFFFFFFFFFFFFFFFFFFFFFFFFFFF DUP3 AND SWAP1 POP SWAP2 SWAP1 POP JUMP JUMPDEST PUSH0 PUSH2 0x3E1 DUP3 PUSH2 0x3B8 JUMP JUMPDEST SWAP1 POP SWAP2 SWAP1 POP JUMP JUMPDEST PUSH2 0x3F1 DUP2 PUSH2 0x3D7 JUMP JUMPDEST DUP3 MSTORE POP POP JUMP JUMPDEST PUSH0 PUSH1 0x20 DUP3 ADD SWAP1 POP PUSH2 0x40A PUSH0 DUP4 ADD DUP5 PUSH2 0x3E8 JUMP JUMPDEST SWAP3 SWAP2 POP POP JUMP JUMPDEST PUSH0 PUSH1 0x40 MLOAD SWAP1 POP SWAP1 JUMP JUMPDEST PUSH0 PUSH0 REVERT JUMPDEST PUSH0 PUSH0 REVERT JUMPDEST PUSH0 PUSH2 0x42B DUP3 PUSH2 0x3D7 JUMP JUMPDEST SWAP1 POP SWAP2 SWAP1 POP JUMP JUMPDEST PUSH2 0x43B DUP2 PUSH2 0x421 JUMP JUMPDEST DUP2 EQ PUSH2 0x445 JUMPI PUSH0 PUSH0 REVERT JUMPDEST POP JUMP JUMPDEST PUSH0 DUP2 CALLDATALOAD SWAP1 POP PUSH2 0x456 DUP2 PUSH2 0x432 JUMP JUMPDEST SWAP3 SWAP2 POP POP JUMP JUMPDEST PUSH2 0x465 DUP2 PUSH2 0x3D7 JUMP JUMPDEST DUP2 EQ PUSH2 0x46F JUMPI PUSH0 PUSH0 REVERT JUMPDEST POP JUMP JUMPDEST PUSH0 DUP2 CALLDATALOAD SWAP1 POP PUSH2 0x480 DUP2 PUSH2 0x45C JUMP JUMPDEST SWAP3 SWAP2 POP POP JUMP JUMPDEST PUSH0 PUSH0 REVERT JUMPDEST PUSH0 PUSH0 REVERT JUMPDEST PUSH0 PUSH1 0x1F NOT PUSH1 0x1F DUP4 ADD AND SWAP1 POP SWAP2 SWAP1 POP JUMP JUMPDEST PUSH32 0x4E487B7100000000000000000000000000000000000000000000000000000000 PUSH0 MSTORE PUSH1 0x41 PUSH1 0x4 MSTORE PUSH1 0x24 PUSH0 REVERT JUMPDEST PUSH2 0x4D4 DUP3 PUSH2 0x48E JUMP JUMPDEST DUP2 ADD DUP2 DUP2 LT PUSH8 0xFFFFFFFFFFFFFFFF DUP3 GT OR ISZERO PUSH2 0x4F3 JUMPI PUSH2 0x4F2 PUSH2 0x49E JUMP JUMPDEST JUMPDEST DUP1 PUSH1 0x40 MSTORE POP POP POP JUMP JUMPDEST PUSH0 PUSH2 0x505 PUSH2 0x410 JUMP JUMPDEST SWAP1 POP PUSH2 0x511 DUP3 DUP3 PUSH2 0x4CB JUMP JUMPDEST SWAP2 SWAP1 POP JUMP JUMPDEST PUSH0 PUSH8 0xFFFFFFFFFFFFFFFF DUP3 GT ISZERO PUSH2 0x530 JUMPI PUSH2 0x52F PUSH2 0x49E JUMP JUMPDEST JUMPDEST PUSH2 0x539 DUP3 PUSH2 0x48E JUMP JUMPDEST SWAP1 POP PUSH1 0x20 DUP2 ADD SWAP1 POP SWAP2 SWAP1 POP JUMP JUMPDEST DUP3 DUP2 DUP4 CALLDATACOPY PUSH0 DUP4 DUP4 ADD MSTORE POP POP POP JUMP JUMPDEST PUSH0 PUSH2 0x566 PUSH2 0x561 DUP5 PUSH2 0x516 JUMP JUMPDEST PUSH2 0x4FC JUMP JUMPDEST SWAP1 POP DUP3 DUP2 MSTORE PUSH1 0x20 DUP2 ADD DUP5 DUP5 DUP5 ADD GT ISZERO PUSH2 0x582 JUMPI PUSH2 0x581 PUSH2 0x48A JUMP JUMPDEST JUMPDEST PUSH2 0x58D DUP5 DUP3 DUP6 PUSH2 0x546 JUMP JUMPDEST POP SWAP4 SWAP3 POP POP POP JUMP JUMPDEST PUSH0 DUP3 PUSH1 0x1F DUP4 ADD SLT PUSH2 0x5A9 JUMPI PUSH2 0x5A8 PUSH2 0x486 JUMP JUMPDEST JUMPDEST DUP2 CALLDATALOAD PUSH2 0x5B9 DUP5 DUP3 PUSH1 0x20 DUP7 ADD PUSH2 0x554 JUMP JUMPDEST SWAP2 POP POP SWAP3 SWAP2 POP POP JUMP JUMPDEST PUSH0 PUSH0 PUSH0 PUSH1 0x60 DUP5 DUP7 SUB SLT ISZERO PUSH2 0x5D9 JUMPI PUSH2 0x5D8 PUSH2 0x419 JUMP JUMPDEST JUMPDEST PUSH0 PUSH2 0x5E6 DUP7 DUP3 DUP8 ADD PUSH2 0x448 JUMP JUMPDEST SWAP4 POP POP PUSH1 0x20 PUSH2 0x5F7 DUP7 DUP3 DUP8 ADD PUSH2 0x472 JUMP JUMPDEST SWAP3 POP POP PUSH1 0x40 DUP5 ADD CALLDATALOAD PUSH8 0xFFFFFFFFFFFFFFFF DUP2 GT ISZERO PUSH2 0x618 JUMPI PUSH2 0x617 PUSH2 0x41D JUMP JUMPDEST JUMPDEST PUSH2 0x624 DUP7 DUP3 DUP8 ADD PUSH2 0x595 JUMP JUMPDEST SWAP2 POP POP SWAP3 POP SWAP3 POP SWAP3 JUMP JUMPDEST PUSH0 DUP2 MLOAD SWAP1 POP SWAP2 SWAP1 POP JUMP JUMPDEST PUSH0 DUP3 DUP3 MSTORE PUSH1 0x20 DUP3 ADD SWAP1 POP SWAP3 SWAP2 POP POP JUMP JUMPDEST DUP3 DUP2 DUP4 MCOPY PUSH0 DUP4 DUP4 ADD MSTORE POP POP POP JUMP JUMPDEST PUSH0 PUSH2 0x660 DUP3 PUSH2 0x62E JUMP JUMPDEST PUSH2 0x66A DUP2 DUP6 PUSH2 0x638 JUMP JUMPDEST SWAP4 POP PUSH2 0x67A DUP2 DUP6 PUSH1 0x20 DUP7 ADD PUSH2 0x648 JUMP JUMPDEST PUSH2 0x683 DUP2 PUSH2 0x48E JUMP JUMPDEST DUP5 ADD SWAP2 POP POP SWAP3 SWAP2 POP POP JUMP JUMPDEST PUSH0 PUSH1 0x20 DUP3 ADD SWAP1 POP DUP2 DUP2 SUB PUSH0 DUP4 ADD MSTORE PUSH2 0x6A6 DUP2 DUP5 PUSH2 0x656 JUMP JUMPDEST SWAP1 POP SWAP3 SWAP2 POP POP JUMP JUMPDEST PUSH0 PUSH1 0x20 DUP3 DUP5 SUB SLT ISZERO PUSH2 0x6C3 JUMPI PUSH2 0x6C2 PUSH2 0x419 JUMP JUMPDEST JUMPDEST PUSH0 PUSH2 0x6D0 DUP5 DUP3 DUP6 ADD PUSH2 0x472 JUMP JUMPDEST SWAP2 POP POP SWAP3 SWAP2 POP POP JUMP JUMPDEST PUSH0 DUP2 MLOAD SWAP1 POP SWAP2 SWAP1 POP JUMP JUMPDEST PUSH0 DUP3 DUP3 MSTORE PUSH1 0x20 DUP3 ADD SWAP1 POP SWAP3 SWAP2 POP POP JUMP JUMPDEST PUSH0 PUSH2 0x6FD DUP3 PUSH2 0x6D9 JUMP JUMPDEST PUSH2 0x707 DUP2 DUP6 PUSH2 0x6E3 JUMP JUMPDEST SWAP4 POP PUSH2 0x717 DUP2 DUP6 PUSH1 0x20 DUP7 ADD PUSH2 0x648 JUMP JUMPDEST PUSH2 0x720 DUP2 PUSH2 0x48E JUMP JUMPDEST DUP5 ADD SWAP2 POP POP SWAP3 SWAP2 POP POP JUMP JUMPDEST PUSH0 PUSH1 0x40 DUP3 ADD SWAP1 POP PUSH2 0x73E PUSH0 DUP4 ADD DUP6 PUSH2 0x3E8 JUMP JUMPDEST DUP2 DUP2 SUB PUSH1 0x20 DUP4 ADD MSTORE PUSH2 0x750 DUP2 DUP5 PUSH2 0x6F3 JUMP JUMPDEST SWAP1 POP SWAP4 SWAP3 POP POP POP JUMP INVALID LOG2 PUSH5 0x6970667358 0x22 SLT KECCAK256 0x22 SELFBALANCE SWAP1 0xAA 0x21 SWAP4 0xB7 DUP13 0xE CALL 0xF7 SWAP11 CALL 0x22 CALLF 0xCBE DUP1 0xA6 MSTORE 0xD6 PUSH16 0xB18AD66BC491D7FC2F9464736F6C6343 STOP ADDMOD 0x1F STOP CALLER "
				},
				"gasEstimates": {
					"creation": {
						"codeDepositCost": "387000",
						"executionCost": "infinite",
						"totalCost": "infinite"
					},
					"external": {
						"UPGRADE_INTERFACE_VERSION()": "infinite",
						"owner()": "2514",
						"renounceOwnership()": "infinite",
						"transferOwnership(address)": "infinite",
						"upgradeAndCall(address,address,bytes)": "infinite"
					}
				},
				"methodIdentifiers": {
					"UPGRADE_INTERFACE_VERSION()": "ad3cb1cc",
					"owner()": "8da5cb5b",
					"renounceOwnership()": "715018a6",
					"transferOwnership(address)": "f2fde38b",
					"upgradeAndCall(address,address,bytes)": "9623609d"
				}
			},
			"storageLayout": {
				"storage": [
					{
						"astId": 789,
						"contract": "contracts/EHKD.sol:ProxyAdmin",
						"label": "_owner",
						"offset": 0,
						"slot": "0",
						"type": "t_address"
					}
				],
				"types": {
					"t_address": {
						"encoding": "inplace",
						"label": "address",
						"numberOfBytes": "20"
					}
				}
			},
			"userdoc": {
				"kind": "user",
				"methods": {},
				"version": 1
			}
		}
	}
}